:020000040800F2
:1000000080100020CD0100088B2D00081D2800085D
:10001000892D0008F5050008A5360008000000003D
:100020000000000000000000000000003731000860
:100030005F06000800000000353100083931000873
:10004000E7010008E7010008E7010008E7010008F0
:10005000E7010008E7010008E7010008E7010008E0
:10006000E7010008E7010008E7010008F9050008BA
:10007000E7010008E701000805060008110600086E
:100080001D0600082906000861040008E7010008B1
:10009000E7010008E7010008E7010008E7010008A0
:1000A000E7010008B9310008E7010008E70100088E
:1000B000E7010008E7010008E7010008E701000880
:1000C000E7010008E7010008E7010008E701000870
:1000D000E70100088D36000899360008E70100089E
:1000E000E7010008E7010008E7010008E701000850
:1000F000E7010008E7010008E7010008E701000840
:10010000E7010008E7010008E7010008E70100082F
:10011000E7010008E7010008E7010008E70100081F
:10012000E7010008E7010008E7010008E70100080F
:1001300000F002F800F03AF80AA090E8000C8244BF
:100140008344AAF10107DA4501D100F02FF8AFF29C
:10015000090EBAE80F0013F0010F18BFFB1A43F0A5
:100160000103184794450000B4450000103A24BF2D
:1001700078C878C1FAD8520724BF30C830C144BF0C
:1001800004680C607047000000230024002500264E
:10019000103A28BF78C1FBD8520728BF30C148BFEA
:1001A0000B6070471FB51FBD10B510BD00F01DF9E5
:1001B0001146FFF7F7FF03F0C1FB00F03BF903B472
:1001C000FFF7F2FF03BC00F043F900000948804745
:1001D00009480047FEE7FEE7FEE7FEE7FEE7FEE729
:1001E000FEE7FEE7FEE7FEE704480549054A064B41
:1001F00070470000B731000831010008800A002074
:1002000080100020800C0020800C002040EA0103B8
:1002100010B59B070FD1042A0DD310C808C9121FAF
:100220009C42F8D020BA19BA884201D9012010BDE9
:100230004FF0FF3010BD1AB1D30703D0521C07E0B6
:10024000002010BD10F8013B11F8014B1B1B07D11A
:1002500010F8013B11F8014B1B1B01D1921EF1D18B
:10026000184610BD032A40F2308010F0030C00F055
:10027000158011F8013BBCF1020F624498BF11F8E0
:1002800001CB00F8013B38BF11F8013BA2F1040299
:1002900098BF00F801CB38BF00F8013B11F0030311
:1002A00000F02580083AC0F0088051F8043B083A75
:1002B00051F804CBA0E80810F5E7121D5CBF51F817
:1002C000043B40F8043BAFF30080D20724BF11F891
:1002D000013B11F801CB48BF11F8012B24BF00F8F6
:1002E000013B00F801CB48BF00F8012B704710B567
:1002F000203AC0F00B80B1E81850203AA0E818501E
:10030000B1E81850A0E81850BFF4F5AF5FEA027CDE
:1003100024BFB1E81850A0E8185044BF18C918C04D
:10032000BDE810405FEA827C24BF51F8043B40F8EE
:10033000043B08BF7047D20728BF31F8023B48BFD3
:1003400011F8012B28BF20F8023B48BF00F8012B11
:1003500070474FF000020429C0F0128010F0030C27
:1003600000F01B80CCF1040CBCF1020F18BF00F8A8
:10037000012BA8BF20F8022BA1EB0C0100F00DB857
:100380005FEAC17C24BF00F8012B00F8012B48BFB5
:1003900000F8012B70474FF0000200B51346944659
:1003A0009646203922BFA0E80C50A0E80C50B1F1CD
:1003B0002001BFF4F7AF090728BFA0E80C5048BFE1
:1003C0000CC05DF804EB890028BF40F8042B08BF7F
:1003D000704748BF20F8022B11F0804F18BF00F87B
:1003E000012B7047704770477047754600F02CF836
:1003F000AE4605006946534620F00700854618B012
:1004000020B5FFF7F1FEBDE820404FF000064FF0A9
:1004100000074FF000084FF0000B21F00701AC4639
:10042000ACE8C009ACE8C009ACE8C009ACE8C00958
:100430008D46704710B50446AFF300802046BDE8F6
:100440001040FFF7BCBE000000487047200A0020A3
:1004500001491820ABBEFEE72600020070470000ED
:10046000014800F0EEB900006001002070B50446BC
:1004700000688168C943C90716D1816821F001016C
:10048000816000F019FF054609E000F015FF401BF0
:10049000022804D920688068C043C00706D02068BD
:1004A0008068C043C007F0D0002070BDA06A40F053
:1004B0001000A062E06A40F00100E062012070BD1F
:1004C00010B50146406A826A12F0500F05D0006AEA
:1004D000026BBDE8104008461047816A41F4007184
:1004E000816201688968C1F3424107290CD1017B0F
:1004F00051B9816A21F480718162816AC90403D48F
:10050000816A41F00101816200F098F910BD10B5D7
:10051000406A816A41F040018162C16A41F0040190
:10052000C16200F08DF910BD10B5406A00F087F986
:1005300010BD0000F8B500260446009600688168EA
:10054000C943C9072CD0816841F001018160154879
:1005500015490068B0FBF1F000E0401E0090002853
:10056000FBD100F0A9FE054615E000F0A5FE401BFA
:10057000022810D920688068C043C0070BD0A06A49
:1005800040F01000A062E06A40F00100E06284F8F0
:1005900024600120F8BD20688068C043C007E4D112
:1005A0000020F8BD1400002040420F0010B5A0F25A
:1005B0005C630C46A0F2EC72B3F5487F00D80020D3
:1005C000002A06DD104603F063FB094903F09EFA9A
:1005D00007E00BDA104603F05BFB6FF00A0103F053
:1005E000E2FC2146BDE8104003F06ABB10BD0000EC
:1005F00000E0FF44FEE70000014800F0C5BB00003A
:1006000090010020014800F0BFBB0000440300201F
:10061000014800F0B9BB000000030020014800F0D1
:10062000B3BB000088030020014800F0ADBB000010
:10063000CC03002030B590F840500124AC40C56B8D
:100640006C60046863604368102B036803D0996092
:100650000068C26030BD9A600068C16030BD7047FC
:1006600072B6FEE7F8B500260446009690F824001E
:1006700001280BD0012084F824002046FFF7F6FE65
:100680002046FFF757FF070002D050E00220F8BDD8
:10069000A06A20F4885040F00200A062022001F01D
:1006A0003BF825490968B1FBF0F0400000E0401E2E
:1006B00000900028FBD12068816841F0080181602A
:1006C00000F0FAFD054608E000F0F6FD401B0A28A0
:1006D00003D920688068000715D420688068000767
:1006E000F2D42068816841F00401816000F0E4FDEB
:1006F000054612E000F0E0FD401B0A280DD92068F5
:100700008068400709D5A06A20F0020040F0100080
:10071000A06284F824600120F8BD2068806840074A
:10072000E8D4A06A20F0020040F00100A06284F842
:1007300024603846F8BD0000140000207047000017
:10074000F8B50023009390F824201C46012A12D00B
:10075000012280F824204A681F26072A0DD2056846
:100760006F6B521E02EB82029640B7430E689640B2
:1007700037436F6319E00220F8BD05680D2A0AD2DD
:100780002F6BD21F02EB82029640B7430E68964051
:1007900037432F6309E0EF6A0D3A02EB820296407D
:1007A000B7430E6896403743EF620A68072605682C
:1007B0000A2A0AD3EF680A3A02EB42029640B7438C
:1007C0008E6896403743EF6008E02F6902EB4202E3
:1007D0009640B7438E68964037432F610A68102AC7
:1007E00001D0112A20D1124D0268AA4217D1956872
:1007F0002D0219D4956845F4000595600968102903
:1008000012D10C490C4A0968B1FBF2F101EB8101EC
:10081000490000E0491E00910029FBD104E0816AF3
:1008200041F020018162012380F824401846F8BD80
:10083000002401401400002040420F007047704720
:10084000704770B50446006806684568A90625D556
:10085000B10723D5A16AC90603D4A16A41F4007186
:10086000A1628168C1F34241072910D1217B71B98E
:10087000416821F020014160A06A20F48070A062EC
:10088000A06AC00403D4A06A40F00100A062204620
:10089000FFF7D4FF21686FF01200086028062ED5FC
:1008A00070072CD5A06AC00603D4A06A40F400509B
:1008B000A06220688168C1F30231072909D041682C
:1008C000490515D48168C1F34241072910D1217B24
:1008D00071B9416821F080014160A06A20F4805024
:1008E000A062A06AC00503D4A06A40F00100A06223
:1008F0002046FFF723FF21686FF00C0008606806B0
:100900000CD5F0070AD0A06A40F48030A0622046DF
:1009100000F096F821686FF00100086070BD0000DB
:100920002DE9F04104004FF000057FD0A06A0026B9
:1009300028B9E66284F82460204600F083F8204657
:10094000FFF794FDA16AC90600D420B1A06A40F067
:100950001000A0626AE0A16A21F4885141F002010E
:10096000A162334923688B42E16904D1B1F5402F7C
:1009700001D14FF40021277B4FF4807C41EA4702EC
:1009800061680A43A168614508D0012906D00021A9
:1009900094F814E0BEF1010F02D00AE06146F7E7D7
:1009A000C7B1A76A47F02007A762E76A47F00107C7
:1009B000E7625F6827F469470F435F6021688B68CF
:1009C0001C4F3B4013438B60A16861450BD001294C
:1009D00009D00CE0DFF860E0A7690EEB47370F4362
:1009E00047F40061E5E7218A0D05A5F5801521682A
:1009F000CB6A23F470032B43CB62216889680F4BC9
:100A00001940914208D1E662A16A21F0020141F049
:100A10000101A162BDE8F081A06A20F0020040F06F
:100A20001000A062E06A40F00100E0620120F1E7FE
:100A3000003C0140FDF7E1FF00E0FFFFFE0E1FFF5D
:100A40007047000070B586B00024064600940194FB
:100A50000294039400682549884245D12449886955
:100A600040F400708861886900F40070049088691F
:100A700040F004008861886900F0040004908869EF
:100A800040F0080088618869032500F008000490A0
:100A90000620CDE900056946164800F00FFB01204D
:100AA000CDE900056946144800F008FB144D1348D1
:100AB000C5E900048020C5E90240400028618000AB
:100AC00068612020C5E90604284600F081FA08B1D3
:100AD000FFF7C6FD35620022114612206E6200F05B
:100AE000E9FD122000F0D8FD06B070BD00240140E1
:100AF0000010024000080140000C014008000240C4
:100B0000900100202DE9F047894604463B490068E2
:100B10003B4F0E1D9046884201D0B84207D1306845
:100B200010F4702F03D001252846BDE8F08794F813
:100B3000240001280CD0012084F824002046FFF76F
:100B4000F9FC05004FF0000104D084F82410EBE715
:100B50000220EAE7A06A40F60162904340F4807008
:100B6000A0622068B84218D1326812F4702F14D0F5
:100B7000A06A40F48010A0623068400505D5A06AE4
:100B800020F4005040F48050A062A06AC0040AD54E
:100B9000E06A20F00600E06206E0A26A22F4801219
:100BA000A2624068E9E7E16284F82410216A1548EE
:100BB0008862216A1448C862216A1448086321685F
:100BC0006FF0020008602068816841F480718160E4
:100BD000216843464A464C31206A00F037FA2068C3
:100BE0008168C1F342410729816803D041F4801133
:100BF000816099E741F4A001FAE700000024014078
:100C000000280140C1040008290500080F0500085C
:100C100010B590F821100022022905D0042181632B
:100C200080F82020012010BD01680B6823F00E031E
:100C30000B6001680B6823F001030B6090F84030F3
:100C4000012404FA03F1C36B596080F8214080F855
:100C50002020104610BD00002DE9F05F90F8211013
:100C60000024022903D004218163012485E0016866
:100C70000A6822F00E020A6001680A6822F0010286
:100C80000A603F4E3E4FB215DFF8F4C0DFF8F09037
:100C9000DFF8ECA0DFF8E8B0DFF8E4E00168783FC7
:100CA00013011502ACF1640CA9F15009AAF13C0A38
:100CB000ABF1280BAEF1140E4FF48018B14227D9D6
:100CC000B9420ED0614512D049451DD0514518D0CA
:100CD000594518D0714501D1424615E0294EB1421F
:100CE00001D1012210E0274E1436B14201D1102269
:100CF0000AE0244E2836B14206D0224A3C329142C4
:100D000001D11A4600E02A461E49091F0A602BE05D
:100D1000B94213D0614517D0494522D051451DD065
:100D200059451DD0714501D142461AE0B14202D168
:100D30004FF0807215E0134EB14201D1012210E054
:100D4000104E1436B14201D110220AE00D4E283661
:100D5000B14206D00B4A3C32914201D11A4600E022
:100D60002A46074980394A60012180F82110002174
:100D700080F82010416B01B188472046BDE8F09F04
:100D800080000240080402402DE9F05FC16B0B684F
:100D900001680A68046C4FF0040808FA04F8844DEE
:100DA000844E854FDFF814C2DFF81492DFF814A2E6
:100DB000DFF814B2DFF814E218EA030F65D05FEA37
:100DC000427862D50A68920603D40A6822F00402C7
:100DD0000A60DFF8F0814FF48062016808F11408BE
:100DE00013011402414524D9A9420DD0B1420FD0BC
:100DF000B9421AD0614515D0494515D0514501D1A8
:100E0000120312E0594501D104220EE0714501D1CF
:100E100040220AE06D4D1435A94206D06B4A2832B3
:100E2000914201D11A4600E022466749091F0A6033
:100E300029E0A94213D0B14215D0B94220D0614572
:100E40001BD049451BD0514502D14FF4800217E019
:100E5000414502D14FF0806212E0594501D1042290
:100E60000EE0714501D140220AE0584D1435A942E7
:100E700006D0564A2832914201D11A4600E0224655
:100E80004B4908394A60C16A71E04FF0020808FA1C
:100E900004F818EA030F70D05FEA82786DD50A680B
:100EA000920606D40A6822F00A020A60012180F83C
:100EB0002110DFF810814FF40072016808F1140866
:100EC00013011402414524D9A9420DD0B1420FD0DB
:100ED000B9421AD0614515D0494515D0514501D1C7
:100EE000120312E0594501D102220EE0714501D1F1
:100EF00020220AE0354D1435A94206D0334A283263
:100F0000914201D11A4600E022462F49091F0A608A
:100F100029E0A94213D0B14215D0B94220D0614591
:100F20001BD049451BD0514502D14FF4001217E0A8
:100F3000414502D14FF0007212E0594501D1022221
:100F40000EE0714501D120220AE0204D1435A9425E
:100F500006D01E4A2832914201D11A4600E02246AC
:100F6000134908394A60002180F82010816A00295D
:100F70001CD0BDE8F05F0847FFE70825A5401D42EB
:100F800014D0120712D50A6822F00E020A6090F8F7
:100F90004020C36B012101FA02F25A60816380F89C
:100FA0002110002180F82010016BE0E7BDE8F09FE0
:100FB000080002401C000240300002404400024091
:100FC000580002406C000240080402401C04024029
:100FD00030B560B11A4B01681422994209D2194BFD
:100FE0000B44B3FBF2F292000264174A0AE00120BC
:100FF00030BD134B5B420B44B3FBF2F29200026430
:101000000F4A083AC263022280F821200A6843F698
:10101000F0739A43F0E901342343D0E902452C43AD
:1010200023430469234344692343846923431343CB
:101030000B6000214163012242770177084630BDF1
:1010400008040240F8FFFDBF0000024070B50446EE
:1010500090F82000002501280CD0012084F8200001
:1010600094F821600020012E06D084F8200002258B
:10107000284670BD022070BD022684F82160A0635E
:101080002068066826F0010606602046FFF7D2FABF
:10109000E06A00282068016802D041F00E0106E0F5
:1010A00021F0040101602068016841F00A0101603B
:1010B0002068016841F001010160D9E72DE9F84F8E
:1010C000DFF8C0910024A9F1040B23464FF00F086C
:1010D00009F1040AABF1040ECCE00127A7403A4025
:1010E000BA4272D1DFF8A0C14D68A5EB0C06654588
:1010F0002BD00DDC032D34D005DC35B3012D19D0F8
:10110000022D2FD11BE0112D16D0122D2AD119E05E
:10111000B6F5881F19D006DCB6F5803F15D0B6F5B8
:10112000801F1FD111E0B6F5001F0ED0B6F5041FC9
:1011300018D10AE0CB6815E0CB681B1D12E0CB6824
:1011400008330FE0CB680C330CE08B682BB1012B1C
:101150004FF0080303D0476104E0042302E0076175
:1011600000E00023FF2A01D8064601E000F1040652
:101170004FEA840501D9A5F12005376808FA05FC76
:1011800027EA0C0703FA05F547EA050737604D68BB
:10119000ED006ED53D4DAE6946F00106AE61AD691C
:1011A00024F0030605F001050095394D7719BE6856
:1011B000A5072D0F08FA05FC26EA0C06DFF8D4C0B7
:1011C000604503D14FF0000C25E052E0DFF8C8C0C5
:1011D000604502D14FF0010C1DE0DFF8C0C0604552
:1011E00002D14FF0020C16E0DFF8B4C0604502D126
:1011F0004FF0030C0FE0DFF8ACC0604502D14FF0B8
:10120000040C08E0DFF8A0C0604502D14FF0050CE7
:1012100001E04FF0060C0CFA05FC4CEA060CC7F88E
:1012200008C04D68D9F80060ED024D4601D516435F
:1012300000E096432E604D68DAF80060AD02554636
:1012400001D5164300E096432E604D68DBF8006040
:10125000AD035D4601D5164300E096432E604D6810
:10126000DEF80060ED03754601D5164300E09643B5
:101270002E60641C0A6832FA04F57FF42EAFBDE8D4
:10128000F88F000008040140000011100010024017
:101290000000014000080140000C01400010014026
:1012A0000014014000180140001C01408068084003
:1012B00000D001207047000001488068704700009E
:1012C0000800002070B5040025D094F83D000025EA
:1012D00020B984F83C50204600F04EF9242084F8D0
:1012E0003D002068016821F001010160206801686B
:1012F00041F4004101602068016821F4004101606F
:1013000000F076FB4D4B6168994201D84C4900E0F2
:101310004C49884201D2012070BD4B492268B0FB84
:10132000F1F1566826F03F060E43566062689A4215
:1013300006D94FF4967251434FF47A72B1FBF2F131
:101340002268491C166A26F03F0631431162616823
:10135000994210D84900401EB0FBF1F2521CC2F372
:101360000B02042A01D2042022E0B0FBF1F0401C61
:10137000C0F30B001CE0A268F2B301EBC10303EB66
:101380000116431EB3FBF6F35B1C43F480431B05BD
:1013900049D092B301EBC10202EB0111401EB0FB38
:1013A000F1F0401CC0F30B0040F4804040F40040DA
:1013B0002168CA694CF6FF739A431043C861D4E9A7
:1013C000071001432068026822F0C0021143016047
:1013D000D4E9030101432068826848F2FF339A434D
:1013E00011438160D4E9051001432068C26822F0EE
:1013F000FF021143C16001E00EE016E020680168C1
:1014000041F0010101602564202084F83D0025633E
:1014100084F83E50002070BD01EB4106431EB3FB33
:10142000F6F35B1CB3E70120C2E701EB4101401E6C
:10143000B0FBF1F0401CC0F30B00B7E7A086010041
:1014400080841E0000093D0040420F002DE9F84F46
:101450001F4690468A460446DDF82890FFF72CFF89
:10146000054694F83D0020287FD1192301224049E8
:101470002046009501F063FA002876D194F83C00EC
:10148000012872D0012084F83C0020680168C90757
:1014900003D1016841F0010101602068016821F475
:1014A00000610160212084F83D00102084F83E0096
:1014B00000262664C4F824806785608D20852D4829
:1014C000E0622B464A465146204601F0BFF990B9EA
:1014D000206841698069009036E02A4649462046E6
:1014E00001F0CEFA50B1206C042804D120680168C4
:1014F00041F4007101600120BDE8F88F606A216845
:1015000000780861626A521C6262608D401E6085CC
:10151000208D401E80B2208521684B69DB435B072C
:101520000BD450B110780861606A401C6062608D15
:10153000401E6085208D401E20852A464946204653
:1015400001F0D2F90028CED1208D0028C5D154F861
:101550003D0B016841F400710160202004F81E0970
:10156000E67766770020C7E7FFE70220C4E70000C0
:10157000020010000000FFFF10B586B000210091AE
:1015800001910291039100681349884222D1134CC2
:10159000A06940F00800A061A069694600F0080059
:1015A00004904FF4407000901220019003200390AB
:1015B0000B48FFF783FD0B49486840F0E06040F0BE
:1015C00002004860E06940F40010E061E06900F466
:1015D0000010049006B010BD0054004000100240FE
:1015E000000C01400000014002488168027811446B
:1015F0008160704708000020074810B5016841F07D
:1016000010010160032000F075F80F2000F006F8CB
:1016100000F024F8002010BD0020024070B50D4DF0
:1016200004464FF47A712878B1FBF0F00A49096852
:10163000B1FBF0F000F0AEFB48B9102C07D200224D
:101640002146501E00F036F800206C6070BD01206D
:1016500070BD000008000020140000200C4808B5F0
:10166000816941F001018161816901F0010100910D
:10167000C16941F08051C161C069064900F08050E4
:101680000090486820F0E06040F00070486008BDBD
:101690000010024000000140002809DB00F01F029A
:1016A000012191404009800000F1E020C0F80011C4
:1016B00070470000F0B40E4B1B68C3F30223C3F164
:1016C0000704042C00D904241D1D072D01D200237A
:1016D00000E0DB1E012606FA04F56D1E0D409D405C
:1016E0009E40761E164045EA0601F0BC02F08FB817
:1016F0000CED00E0064A00F0070110684FF6FF030A
:10170000184040EA01200349084310607047000078
:101710000CED00E00000FA0510B501460020284C51
:1017200004292FD00BDC012930D0022929D100F067
:101730006FF96168C1F38131491C49001FE0082934
:1017400020D010291DD161682268D20119D51D4809
:10175000C1F38342C903805C0AD56168194AC1F3A9
:101760004041921E515C184AB2FBF1F1484301E03E
:10177000164948436168490203D440000321B0FB85
:10178000F1F010BDBDE8104000F052B9216AC1F37C
:101790000122012A03D1890701D5D00310BD022AF5
:1017A00005D1616A890702D549F6404010BD032A78
:1017B000FCD121688903F9D54FF2244010BD000007
:1017C000001002403640000800127A0000093D0077
:1017D0002DE9F84304460078344FC00752D0F86929
:1017E0000025C00008D4F86940F08050F861F8691D
:1017F000012500F0805000902D480168C90511D4E2
:101800000168804641F480710160FFF755FD06468E
:1018100004E0FFF751FD801B642822D8D8F80000AF
:10182000C005F6D5386A10F4407020D0A18801F4C4
:10183000407181421BD0386A1E49012220F4407059
:101840000A6000220A603862C00710D0FFF734FD3A
:10185000064641F2883807E0FFF72EFD811B41451F
:1018600002D90320BDE8F883386A8007F4D5386AC6
:10187000616820F44070084338621DB1F86920F0B7
:101880008050F8612078800705D57868A16820F439
:101890004040084378602078C00605D578686169C3
:1018A00020F48000084378600020DBE7001002404D
:1018B00000700040400442422DE9F0470D4604000C
:1018C00067D0DFF81881D8F8000000F00700A842C0
:1018D0000CD2D8F8001021F007012943C8F80010F5
:1018E000D8F8000000F00700A84252D120683C4E12
:1018F000810712D5400703D5706840F4E06070603E
:101900002078000703D5706840F4605070607068FC
:10191000A16820F0F000084370602078C00727D04D
:101920006068012810D03168022810D0890700298A
:101930002FDA716821F0030101437160FFF7BCFCED
:10194000074641F288390CE031688903EFE78901E5
:10195000EDE7FFF7B1FCC11B494502D90320BDE803
:10196000F0877068616800F00C00B0EB810FF0D177
:10197000D8F80010404601F00701A9420BD90168D0
:1019800021F0070129430160006800F00700A84228
:1019900001D00120E3E72078400705D57068E168B1
:1019A00020F4E060084370602078000706D5706876
:1019B000216920F4605040EAC100706000F038F8FE
:1019C0007168084AC1F30311515CC84006490860B8
:1019D00006480068FFF722FE0020C0E70020024012
:1019E0000010024046400008140000200C000020B7
:1019F0000448054900684968044AC1F30221515C62
:101A0000C8407047140000200010024056400008F3
:101A10000448054900684968044AC1F3C221515C81
:101A2000C8407047140000200010024056400008D3
:101A30000E4B59680E4801F00C02042A11D0082AF6
:101A40000FD10C48C1F38342C903805C0AD55968A1
:101A5000084AC1F34041921E515C054A5043B0FB15
:101A6000F1F07047044948437047000000100240FD
:101A700000127A002440000800093D002DE9F84FCB
:101A800004006FD02078BE4DC00747D06868C0F30F
:101A90008100012807D06868C0F38100022809D1BD
:101AA0006868C00306D52868800337D560680028B9
:101AB000E7D033E06068B0F5803F0BD010B1B0F5EF
:101AC000A02F11D0286820F480302860286820F4E6
:101AD000802002E0286840F480302860606888B187
:101AE000FFF7EAFB064609E0286840F480202860FA
:101AF000F0E7FFF7E1FB801B642873D828688003B8
:101B0000F7D50BE0FFF7D8FB064604E0FFF7D4FB60
:101B1000801B6428F1D828688003F7D42078DFF888
:101B2000648280074FF0010A4FF0000939D56868D8
:101B300010F00C0F07D06868C0F38100022809D1AB
:101B40006868C00306D42868800714D52069012876
:101B500008D110E02069B0B1C8F800A0FFF7ACFBD5
:101B6000064605E007E1FFF7A7FB801B0228C4D863
:101B700028688007F7D52868616920F0F80040EAF6
:101B8000C10028600DE0C8F80090FFF795FB0646FD
:101B900004E0FFF791FB801B022823D82868800708
:101BA000F7D4207800072CD57748A169D9B1C0F8BF
:101BB00000A0FFF781FB064604E0FFF77DFB801BDA
:101BC00002280FD8686A8007F7D570484FF4FA5199
:101BD0000068B0FBF1F0009000BF0098411E00913A
:101BE000FAD20EE07CE0C0F80090FFF765FB0646F5
:101BF00004E0FFF761FB801B022871D8686A800748
:101C0000F7D4207840075BD5E8690027C00008D4E6
:101C1000E86940F08050E861E869012700F08050F1
:101C200000905B480168C90511D40168834641F4FE
:101C300080710160FFF740FB064604E0FFF73CFBC4
:101C4000801B64284CD8DBF80000C005F6D5E0689E
:101C500001280AD008B1052813D0286A20F0010015
:101C60002862286A20F0040002E0286A40F001009F
:101C70002862E06841F2883B88B1FFF71DFB064609
:101C800009E0286A40F004002862EEE7FFF714FB41
:101C9000811B59455BD8286A8007F7D50BE0FFF711
:101CA0000BFB064604E0FFF707FB811B59454ED8A6
:101CB000286A8007F7D41FB1E86920F08050E861F6
:101CC000E069A8B36968C1F38101022946D00228FE
:101CD000484606D0C8F86000FFF7EEFA044639E03F
:101CE00035E04746C8F86000FFF7E6FA064604E02C
:101CF000FFF7E2FA801B022829D828688001F7D470
:101D0000206AB0F5803F05D16868A16820F40030F2
:101D100008436860D4E908010843696821F4741134
:101D200008436860C7F860A0FFF7C6FA044605E0FC
:101D300023E0FFF7C1FA001B022808D828688001B9
:101D4000F7D51AE0FFF7B8FA001B022802D90320E2
:101D5000BDE8F88F28688001F4D40EE00128F7D0A0
:101D60006868226A00F48031914204D1616A00F40B
:101D70007010884201D00120EAE70020E8E7000067
:101D80000010024000004242800442421400002041
:101D90000070004010B5401EB0F1807F01D30120DB
:101DA00010BD4FF0E02460610F21601701F02FFD9E
:101DB0000020A06107202061002010BD70477047FF
:101DC00070B590F83C20012A2CD0012580F83C50B9
:101DD000022280F83D2002685368946823F0700660
:101DE0000B6833435360104B02689A420ED00F4B7E
:101DF0009A420BD0B2F1804F08D00D4B9A4205D0D9
:101E00000C4B9A4202D00C4B9A4204D1496824F000
:101E100080031943916080F83D50002180F83C1008
:101E2000084670BD022070BD002C01400034014006
:101E30000004004000080040000C004010B5040001
:101E400003D094F83D0010B107E0012010BD002040
:101E500084F83C00204600F01FF8022084F83D0082
:101E6000211D206801F0AEF9012084F8460084F8B5
:101E70003E0084F83F0084F8400084F8410084F874
:101E8000420084F8430084F8440084F8450084F854
:101E90003D00002010BD000008B500680B498842D5
:101EA00012D10B48816941F400618161806900228F
:101EB00000F40060009011461920FFF7FBFBBDE81D
:101EC00008401920FFF7E8BB08BD0000002C0140C6
:101ED0000010024070B5044690F83C00002501282F
:101EE00017D0012684F83C60022084F83D00206869
:101EF000826822F0770222F47F42826008685028CC
:101F000038D00DDC20284FD005DC90B3102811D13B
:101F10004AE0022070BD302846D040280AD13BE07C
:101F200060282FD070280DD0B0F5805F03D0B0F5B9
:101F3000005F12D0012584F83D60002084F83C0049
:101F4000284670BDCB68D1E90121206801F088F9ED
:101F50002068816841F0770109E0CB68D1E901216F
:101F6000206801F07DF92068816841F4804181603A
:101F7000E1E719E0CA684968206801F083F9502157
:101F8000206806E0CA684968206801F08CF9602181
:101F9000206801F06FF9CEE7CA684968206801F04F
:101FA00071F940212068F4E7226801461046F0E705
:101FB00070472DE9F04104460068C66805694FF096
:101FC0000007A90713D5B10711D5F91E016101203A
:101FD0002077206880698007204602D0FFF7E8FF5D
:101FE00004E000F07EF8204600F07CF827776807D0
:101FF00016D5700714D521686FF00400086102201F
:1020000020772068806910F4407F204602D0FFF7D7
:10201000CFFF04E000F065F8204600F063F8277772
:10202000280715D5300713D521686FF0080008611F
:10203000042020772068C0698007204602D0FFF77F
:10204000B7FF04E000F04DF8204600F04BF827778A
:10205000E80616D5F00614D521686FF01000086167
:10206000082020772068C06910F4407F204602D005
:10207000FFF79EFF04E000F034F8204600F032F84D
:102080002777E80708D0F00706D021686FF0010035
:102090000861204600F027F8280608D5300606D546
:1020A00021686FF0800008612046FFF787FE680610
:1020B00008D5700606D521686FF0400008612046FB
:1020C00000F012F8A8060AD5B00608D521686FF00E
:1020D000200008612046BDE8F041FFF770BEBDE872
:1020E000F081704770477047704738B5044690F8E4
:1020F0004200202801D0022038BD71B16AB1012010
:10210000206300206063204601F076FA0246206BCF
:10211000012804D00122104638BD012038BD2068B6
:1021200001684068009020680C3050E8001F41F0C2
:10213000100140E80013002BF5D1ECE70A460449F2
:10214000884203D10146034801F0F6BA7047000007
:10215000700200204404002070470000F8B50168B8
:1021600004460868CA684B6910F00F0F4FF000056D
:1021700059D003F0010602F49077374365D0C107C8
:1021800005D0D10503D5616C41F0010161644107BF
:1021900005D5D90703D0616C41F002016164810764
:1021A00005D5D90703D0616C41F0040161640107D2
:1021B00007D502F02001314303D0616C41F00801E2
:1021C0006164616C00293AD0800604D5900602D57E
:1021D000204601F054F920684069616CC0F380101A
:1021E000090700D460B3204601F014F92068406963
:1021F000400621D52068143050E8001F21F040012E
:1022000040E80012002AF5D1E06BA8B16D494163A6
:10221000E06BFEF721FD002811D0E06B416B01B0AF
:10222000BDE8F040084783060FD593060DD520463C
:10223000BDE8F84001F023B92046FFF78DFFF8BD57
:102240002046FFF789FF6564F8BD266B2023012E29
:102250007CD1C6067AD5D60678D50868486800903D
:1022600048694FF00206400640D5E16B08684068B7
:102270000004000CE8D0A28D8242E5D9E08588698F
:1022800020282DD020680C3050E8001F21F48071E8
:1022900040E80012002AF5D12068143050E8001FF1
:1022A00021F0010140E80012002AF5D12068143025
:1022B00050E8001F21F0400140E80012002AF5D14B
:1022C00084F84230256320680C3050E8001F21F06C
:1022D000100140E80012002AF5D1E06BFEF798FCEF
:1022E0006663A08DE18D401A81B22AE0A08DE18D58
:1022F000401A81B2E08D0028A6D00029A4D0206821
:102300000C3050E8002F22F4907240E80027002F94
:10231000F5D12068143050E8002F22F0010240E887
:102320000027002FF5D184F84230256320680C3057
:1023300050E8002F22F0100240E80023002BF5D1D6
:1023400066632046FFF7FAFEF8BDFFE705062BD5CA
:10235000150629D594F841002128F5D1A068B0F5DB
:10236000805F01D12069B0B1206A411C21622168DF
:1023700000784860E08C401E0004000CE084E3D14B
:102380002068C16821F08001C1602068C16841F007
:102390004001C160D8E7206A0088C0F308004860A7
:1023A000206A801C2062E5E74006CDD55006CBD5DB
:1023B000CA68204622F04002CA6084F8413000F02A
:1023C0004FF9C1E7CB32000870B5040004D094F88F
:1023D0004100002510B106E0012070BD84F8405096
:1023E000204600F023F8242084F841002068C168CA
:1023F00021F40051C160204601F0A2F82068016973
:1024000021F4904101612068416921F02A01416174
:102410002068C16841F40051C1606564202084F8DF
:10242000410084F842006563002070BD2DE9F0474B
:1024300086B0002500950195029503950446DFF8C6
:1024400080C101685F484027022203235E4E4FF09F
:1024500010094FF08008614553D1816941F48041F2
:102460008161816901F480410491816941F0080131
:1024700081618069DFF854A100F00800CDE90330E4
:10248000CDE9007269465046FEF718FECDE9008599
:102490004746694650460295FEF710FE706840F0C8
:1024A000E06040F0040070604A4E4948C6E900050B
:1024B000C6E9025735617561B5613046F561FEF7D1
:1024C00087FD08B1FEF7CCF8E6637462414E4048E0
:1024D00044361438C6E9025735617561B561F56156
:1024E000C6E900093046FEF773FD08B1FEF7B8F8FB
:1024F000A6630022114625207462FFF7DBF8252031
:1025000059E0DFF8D4C0614557D1C16941F40031C9
:10251000C161C16901F400310491816941F0200178
:1025200081618069DFF8B4A000F0200004902020D1
:10253000CDE90002694603935046FEF7BFFDCDE9A1
:102540000075694650460295FEF7B8FD706840F088
:10255000E06040F0080070601E4E1D488836143060
:10256000C6E90005C6E9025835617561B56147469F
:102570003046F561FEF72CFD08B1FEF771F8E66311
:102580007462144E1248CC362830C6E902573561C1
:102590007561B561F561C6E900093046FEF718FDC1
:1025A00008B1FEF75DF8A66300221146262074628A
:1025B000FFF780F82620FFF76FF806B0BDE8F08738
:1025C000003801400010024000000140000C0140B2
:1025D0005800024000030020004400400014014065
:1025E0007047704737B5044690F84100202801D065
:1025F00002203EBD019951B34AB32162A284E28414
:1026000000206064212384F84130A56B114BAB623C
:10261000A56B114BEB62A56B104B2B63A36B58633F
:1026200020681346A56B021D2846FEF70FFD2168A2
:102630006FF0400008602068143050E8001F41F03F
:10264000800140E80012002AF5D100203EBD0120A3
:102650003EBD0000C93300080B340008DB3200081F
:10266000704770472DE9F84F4F4E04464FF07F57A3
:1026700030883946FDF79AFF4C4901F0DFF94C49A3
:1026800001F0EAFB4B4900256060884203DA4A49C1
:10269000884200D2256070883946FDF787FF474998
:1026A00001F0DAFB46492060884203DA4549884256
:1026B00000D26560B188A1F50062A1F5CE61B1F5E7
:1026C000487F01D8002005E0002A01DA3E4801E0F9
:1026D00000DD3E48DFF8F8A0A0604FF0010251464F
:1026E0004FF0000001F0F8F83A4E20734FF400620A
:1026F0003146012001F0F0F8607337153A46314653
:10270000022001F0E9F8DFF8D090A0734FF40078D0
:1027100042464946032001F0DFF800904246314628
:10272000042001F0D9F883463A464946052001F0D5
:10273000D3F80746B2154946062001F0CDF8804689
:1027400008225146072001F0C7F8064620225146CC
:10275000082001F0C1F80346204A00994FF07E504E
:1027600009B1014603E05FEA0B0100D01146216187
:102770000FB1014603E05FEA080100D01146616134
:102780001EB90BB1104600E00020A061207B00289C
:1027900008D0256065600120A5606073A573256180
:1027A0006561A561BDE8F88F18000020CDCCCC3D57
:1027B0006F12033BCDCC4C3DCDCC4CBD96438B3CF6
:1027C0008FC2F53C8FC2F5BCCDCC4C3FCDCC4CBFBD
:1027D000001801400010014000080140000080BFC7
:1027E0000B4810B50021016081800A210948FDF7DE
:1027F000D2FD084828210C30FDF7CDFD0648FDF735
:1028000031FFBDE81040032201490348FEF77AB9C1
:10281000180000201004002060010020FEE701687D
:102820004A69D24352050FD46FF480624A61002195
:1028300040F8301F202242738173026942F0040283
:10284000026101730120704700207047F8B504460B
:10285000C06A1E460D461746082807D0012805D035
:1028600010F5803F02D0206B122804D12068016847
:1028700041F480710160134600224FF0011120469F
:10288000009600F05CF840B120680068C00502D5F1
:102890004FF4007020640320F8BD2069B0F5804F2C
:1028A0000ED00620216800EAD51040F0F000086143
:1028B00033463A460B49204600F085F878B902E0E5
:1028C00005F0FE0000E0E8B22168086105493346E2
:1028D0003A46891F204600F076F80028DCD0012017
:1028E000F8BD00000800010070B516460D4604460C
:1028F0001EE02046FFF793FF08B1012070BD681C61
:1029000016D0FEF7D9FC801BA84200D885B92068F4
:102910004069C04340070BD5002044F8300F202108
:102920006173A073216941F0200121612073E4E704
:1029300020684069C0434007DBD4002070BD2DE90A
:10294000F0471E4690460D460446C1F30747DDF8A2
:10295000209026E0701C24D0FEF7AEFCA0EB09000E
:10296000B04200D8EEB92068012F16D0806925EA60
:1029700000000004000C12D00020404511D10020BE
:1029800044F8300F20216173A073216941F02001C8
:10299000216120730120BDE8F0874069E7E701204D
:1029A000EBE72068012F0AD0806925EA00000004C7
:1029B000000C06D000204045CCD00020EBE7406959
:1029C000F3E70120F7E72DE9F047984616460D4654
:1029D00004464FF000094FF0200AC1F3074723E0F7
:1029E00020684069C043400515D42068016841F45F
:1029F0000071016021686FF480604861C4F8309014
:102A000084F83DA084F83E90216C41F004012164DB
:102A100084F83C9020E0701C06D0FEF74DFCA0EB43
:102A20000800B04203D816B1012F1ED020E0206864
:102A3000012F14D0806925EA00000004000C17D093
:102A400044F8309F84F80DA084F80E90216941F07D
:102A50002001216184F80C900120BDE8F0874069D5
:102A600025EA00000004000CEAD12068406901E07A
:102A70002068806925EA00000004000CB0D1ECE772
:102A800070B516460D4604461EE02046FFF7C7FE09
:102A900008B1012070BD681C16D0FEF70DFC801B2C
:102AA000A84200D885B920684069C04300060BD50C
:102AB000002044F8300F20216173A073216941F098
:102AC000200121612073E4E720684069C0430006CB
:102AD000DBD4002070BD00003EB500211B480091F2
:102AE0000191194A029102609215826001240473D7
:102AF000017503254FF460220561C2614160FDF755
:102B00000FFF08B1FDF7ACFD009401940224694663
:102B10000E480294FDF714FE08B1FDF7A1FD0094E4
:102B200069460A480194FDF70BFE08B1FDF798FDD0
:102B30000820CDE9000569460448FDF701FE00289C
:102B400001D0FDF78DFD3EBD002401406001002055
:102B5000194808B5416941F001014161406900220D
:102B600000F00100009011460B20FEF7A3FD0B20A2
:102B7000FEF792FD002211460E20FEF79BFD0E206F
:102B8000FEF78AFD002211460F20FEF793FD0F206D
:102B9000FEF782FD002211461020FEF78BFD10206B
:102BA000FEF77AFD002211461120FEF783FDBDE8F5
:102BB00008401120FEF770BD0010024070B586B0CD
:102BC0000024274801940394816941F04001816108
:102BD000816901F040010491816941F01001816136
:102BE000816901F010010491816941F00401816162
:102BF000816901F004010491816941F0080181615A
:102C0000816901F008010491816941F0200181612D
:102C10008069144E00F020000490292001250090C6
:102C2000694602953046FEF749FA4FF4C0608DE8D8
:102C3000310069460C48FEF741FA4FF470608DE8A8
:102C4000310069460948FEF739FA0221CDE900143E
:102C5000029169463046FEF731FA06B070BD0000B9
:102C6000001002400018014000100140000801401F
:102C70000D4810B50B4901600C49416000214FF42B
:102C800080428160C0E9031241618161C1610162DA
:102C9000FEF718FB002803D0BDE81040FDF7E0BCAC
:102CA00010BD000000540040D4010020A0860100A7
:102CB00010B586B000241748009401940294039440
:102CC00004941349059401604721C0E9011440F2BE
:102CD000E731C0E9031444618461FFF7AFF808B13C
:102CE000FDF7BEFC4FF48050009069460948FFF79D
:102CF000F1F808B1FDF7B4FC049404A90548059463
:102D0000FFF75EF8002801D0FDF7AAFC06B010BD61
:102D1000002C0140280200200C4810B50A4901602F
:102D20004FF4E1314160002181600C22C160C0E9B3
:102D300004128161C161FFF747FB002803D0BDE8A1
:102D40001040FDF78DBC10BD00380140700200201E
:102D50000C4810B50A4901604FF4E131416000218F
:102D600081600C22C160C0E904128161C161FFF77A
:102D70002BFB002803D0BDE81040FDF771BC10BD4F
:102D800000440040B8020020FEE7FEE710B5AE2088
:102D900000F0E2F8202000F0DFF8102000F0DCF86E
:102DA000B02000F0D9F8C82000F0D6F8002000F0DC
:102DB000D3F8102000F0D0F8402000F0CDF88120AA
:102DC00000F0CAF8DF2000F0C7F8A12000F0C4F836
:102DD000A62000F0C1F8A82000F0BEF83F2000F0C7
:102DE000BBF8A42000F0B8F8D32000F0B5F800201C
:102DF00000F0B2F8D52000F0AFF8F02000F0ACF809
:102E0000D92000F0A9F8222000F0A6F8DA2000F07E
:102E1000A3F8122000F0A0F8DB2000F09DF820209D
:102E200000F09AF88D2000F097F8142000F094F844
:102E300000F008F800F05AF9BDE81040AF2000F0AB
:102E40008BB800004FF480610148FDF782BA0000A2
:102E50001D0600203CB51C78059D203ACDE90045B3
:102E60005D68E41D5B78E408544303FB045200F002
:102E7000D3F83CBD2DE9FF4F074618785978C01D9F
:102E8000C00885B000254843001DC0B2DDF848A049
:102E90001C46914603903CE00020009009EB0500A1
:102EA000834600F09BFC5FEA000836D000260CE069
:102EB00061680398424606FB00100290584602994A
:102EC000FDF7A4F938B1761CF6B2207AB042EFD8FB
:102ED0000098F0B90BE02178CDE9001A029A6378E6
:102EE0003846121D069900F097F860780CE0CDF88E
:102EF00000A0E368B8F1010F12D0202238460699ED
:102F0000FFF7A8FFE06840783844C7B205EB080037
:102F100085B219F805000028BED109B0BDE8F08FD0
:102F200019F8052038460699FFF794FFE0686D1CF4
:102F3000ADB240783844C7B2EBE7000038B54FF087
:102F4000FF340B460246782102480094FEF77EFAD1
:102F500038BD0000D4010020024948700221014818
:102F6000FFF7ECBF200000202DE9FC418046072040
:102F7000CDE9000301F00704CE08154602FA04F07B
:102F80001F46C2B223464146304600F08BF8002C63
:102F90000CD0601EC0B2CDE90007C4F1080025FACC
:102FA00000F2701C0023414600F07CF8BDE8FC8173
:102FB0002DE9FC4301F007041646CF0898468146E8
:102FC00001F0070104EB080206FA01F0099D082A46
:102FD00016D90721CDE90015C2B223464946384625
:102FE00000F060F808EB04000938C0B2CDE9000534
:102FF000C4F1080026FA00F2781C0023494607E0D5
:10300000521ED1B2CDE90015C2B223464946384618
:1030100000F048F8BDE8FC832DE9FF4F82B01E4662
:103020000F989346C70800F007008A4600250190D4
:1030300018E0029800240BEB050900EB05080DE0F1
:1030400004FB06F0109B10F809200AEBC400C1B283
:1030500008F0FF00FFF788FF641CE4B2BC42EFD326
:103060006D1CEDB2B542E4D30198002816D006FBE2
:1030700007F800240AEBC7050EE01098009008EB53
:10308000040102981BF801202044E9B2C0B2019B60
:10309000FFF78EFF641CE4B2B442EED306B0BDE885
:1030A000F08F0000F0B50828DDE9056419D2802909
:1030B00017D20CB1D243D2B2FF25761C05FA06F422
:1030C000C3F10803084F44EA0206DD4007EBC017CE
:1030D000044B785CA2432E43AA4330401A7010433D
:1030E0007854F0BD1E0000201D06002070B5104D64
:1030F00040200024287005F1810604F1B000C0B220
:10310000FFF72AFF0020FFF727FF1020FFF724FF1B
:1031100006EBC4118022681CFDF7A4F88121044845
:10312000FFF70CFF641CE4B2082CE6D370BD00006E
:103130009C05002070477047FEF756BA30B595B031
:1031400028216846FDF727F914210AA8FDF723F97D
:1031500018210FA8FDF71FF901210804CDE900107F
:103160000024029402250491CDE907504FF4E010A9
:1031700009906846FEF782FC08B172B6FEE70F20A0
:10318000CDE90A054FF48060CDE90C4002210AA880
:103190000E94FEF791FB08B172B6FEE74FF40040C3
:1031A00011900F950FA8FEF713FB002801D072B6FF
:1031B000FEE715B030BD70470148FEF7FABE0000CB
:1031C00028020020F0B50268204D214E214FDFF883
:1031D00088C0224B4FF0804EA84209D0984207D0B9
:1031E000704505D0B04203D0B84201D0604503D14C
:1031F00022F070044A682243A84209D0984207D0BE
:10320000704505D0B04203D0B84201D0604503D12B
:1032100022F44074CA6822434C6922F0800222439F
:1032200002608A68C2620A688262A84201D098423B
:1032300001D109690163012141610169C90703D015
:10324000016921F001010161F0BD0000002C014085
:103250000004004000080040000C00400034014021
:1032600010B5846842EA032224F47F440A432243CF
:10327000826010BD826822F070020A4342F00701AA
:103280008160704710B5046A036A23F0010303628A
:10329000836923F0F00343EA021324F00A020A438D
:1032A0008361026210BD10B5036A046A24F0100441
:1032B0000462846923F0A00324F4704444EA0232D7
:1032C00043EA01118261016210BD10B5406A00211C
:1032D000C185C184FEF740FF10BD70B5446A206807
:1032E000406994F84110C0F3C0100025212904D191
:1032F00018B1E584204600F0B4F82068406994F8DD
:103300004210C0F38010222904D118B1E58520466F
:1033100000F080F8606C40F0100060642046FEF71A
:103320001BFF70BD10B50146406A096809684FF07F
:10333000000389062ED4C38501680C3151E8002FA3
:1033400022F4807241E80024002CF5D10168143188
:1033500051E8002F22F0010241E80024002CF5D1B1
:103360000168143151E8002F22F0400241E80024A6
:10337000002CF5D1202180F84210016B012909D1E0
:1033800001680C3151E8002F22F0100241E80024BE
:10339000002CF5D14363016B012902D0FFF720F91E
:1033A00010BD818DFEF7CAFE10BD10B5406A012127
:1033B0004163016B012902D0FFF713F910BD818D24
:1033C0004908FEF7BBFE10BD10B50146406A09680A
:1033D0000968890616D40021C1840168143151E8B6
:1033E000002F22F0800241E80023002BF5D1016874
:1033F0000C3151E8002F42F0400241E80023002B3D
:10340000F5D110BDFFF72CF910BD10B5406AFFF7DC
:1034100028F910BD01680C3151E8002F22F4907298
:1034200041E80023002BF5D10168143151E8002F49
:1034300022F0010241E80023002BF5D1016B0129A4
:1034400009D101680C3151E8002F22F0100241E847
:103450000023002BF5D1202180F8421000210163C8
:10346000704701680C3151E8002F22F0C00241E89A
:103470000023002BF5D1202180F84110704708B5BA
:1034800090F84210222901D0022008BD81684FF433
:103490008053994201D1026922B1826A99421BD0BC
:1034A00049B10AE00268816A5268C2F308020A80E0
:1034B000816A891C08E0016971B10168496801F0FD
:1034C0007F011170816A491C8162C18D491E090406
:1034D000090CC18503D01BE001684968F1E7016868
:1034E000CA6822F02002CA600168CA6822F48072A9
:1034F000CA6001684A6922F001024A61202180F80D
:10350000421000214163026B012A03D0FFF768F8E3
:10351000002008BD016301680C3151E8002F22F042
:10352000100241E80023002BF5D101680A68D20699
:1035300002D50A6849680091818DFEF7FFFDE7E733
:1035400070B5044600680169E26821F440511143F6
:103550000161A16820690143606901432068C26874
:1035600041F20C639A430A43C26020684169A26930
:1035700021F44071114341611E492068884202D103
:10358000FEF746FA01E0FEF733FA00EBC00101EB6B
:103590000011606864228000B1FBF0F3B3FBF2F32A
:1035A0006FF018067343B1FBF0F5B1FBF0F605EBD5
:1035B0008305322303EB0515B5FBF2F5B6FBF2F6F6
:1035C00005F0F00505EB0615B1FBF0F6B1FBF0F0E8
:1035D000B0FBF2F06FF01801484306EB800003EBFC
:1035E0000010B0FBF2F0216800F00F002844886062
:1035F00070BD00000038014037B582B01346039A11
:1036000082620446838500206064222184F842108F
:10361000E56B1B49A962E56B1A49E962E56B1A493A
:103620002963E16B48632168E06B091DFDF70EFD1E
:103630002068016840680090206948B120680C301B
:1036400050E8001F41F4807140E80012002AF5D1D3
:103650002068143050E8001F41F0010140E80012DA
:10366000002AF5D12068143050E8001F41F04001D5
:1036700040E80012002AF5D105B0002030BD00005E
:1036800025330008AB330008DB3200080148FEF7A1
:1036900065BD0000700200200148FEF75FBD00001C
:1036A000B8020020FEE710B5044690F8D8000028C4
:1036B00010D0FDF701FED4F8E410401A0A2809D30F
:1036C00094F8D800022805D0022004F8D80FA0688A
:1036D000401CA06010BD000070B50025C0F8D85097
:1036E000C0F8DC50C0F8E0500446C0F8E4501C219B
:1036F0009C30FCF750FE1C2104F1E800FCF74BFE67
:1037000004F8D45F2571FDF7D7FD2061D43C402239
:1037100021460848FEF7E9FC0649C96B09680A68B2
:1037200022F004020A60002802D0022184F8D81096
:1037300070BD00007002002070B50C4605460146C1
:1037400000F075F8402229462046FEF7CEFCE06BDB
:103750000068016821F00401016070BD70B5064683
:103760000C0036D01C2206F1B800FCF7C0FDAA20E0
:1037700086F84000552086F84100192086F842005E
:103780002068C6F843006068C6F84700A068C6F81D
:103790004B00E068C6F84F002069C6F85300606926
:1037A000C6F85700207E617E00F0010001F00101A3
:1037B00040EA4100A17E06F1430501F0010140EA23
:1037C000810028761C22E91EBDE870400248FEF701
:1037D00009BF012070BD00007002002000780106C2
:1037E00001D4012070470621B1EB501F01D1022006
:1037F00070470E21B1EB101F01D1032070471E212D
:10380000B1EBD00F01D104207047002070470907A9
:10381000090E002804DB00F1E02080F80014704756
:1038200000F00F0000F1E02080F8141D704770B523
:103830000D4604461C2A1CD3002315E0E85CAA2888
:1038400010D1E818417855290CD18078C11C194451
:1038500089B291420DD819280CD0D4F8E000401C50
:10386000C4F8E0005B1C9BB203F11C0080B29042E4
:10387000E4D970BDE81804F19C0150F8032FC4F896
:103880009C204268C4F8A0208268C4F8A420C268C2
:10389000C4F8A8200269C4F8AC204269C4F8B0207A
:1038A000027E02F001020A76027EC2F340024A76EC
:1038B000007E1C22C0F38000887604F1E800FCF74B
:1038C00016FD012504F8D45FA068401CA060FDF738
:1038D000F3FC2061257170BD70B50B46044611469E
:1038E0001846FDF7E3FC70B10025FDF7E5FC124931
:1038F000024601F10C06085D38B1002301280AD008
:10390000022811D113E00125EFE775B146F8242014
:103910000120085509E03DB156F82400101A092885
:1039200003D30220085504E00B55002070BD002D84
:10393000FAD0012070BD00001004002008B5FDF78A
:103940005BFEFFF7FBFBFFF739F9FFF701F9FFF724
:10395000C3F8FFF7E1F9FFF7ABF9FFF7F9F9FFF764
:1039600087F9FEF73DFF2548FFF7B6FE08B172B6AE
:10397000FEE7FFF70BFAFFF765FA0024204B21A2C0
:10398000214605200094FFF775FA1D4B21A2142152
:1039900005200094FFF76EFA194B22A2282105207A
:1039A0000094FFF767FAFFF7A1FB224CFDF784FCB8
:1039B0006168411A1429F9D360601F48FEF752FE6E
:1039C0001D4800F11C0102680A6042684A60826872
:1039D0008A600269CA6042690A6182694A61827BBF
:1039E0000A76027B4A76407B88760448FFF7B6FE6B
:1039F00020700248FFF757FED8E70000240000209F
:103A0000E846000873746F7020206D6F646520674E
:103A10007269700070466C69702075702020206695
:103A20006F7277006E466C697020646F776E2062EB
:103A3000466F7200000000202801002090EA010F6C
:103A400048BF81F0004100F10E82421A3CBF801A4B
:103A500089184FEAD0524FF07F4C1CEA410FA2EB7D
:103A6000D15318BF9CEA026F00F03B804FF0004C2E
:103A70004CEA00204CEA012121FA03FC10EB0C0C6B
:103A80001ED202F1FF325FEA1C2040EBC25038BF69
:103A900070471CF07F0F4FEA400C18BFBCF17F4FFE
:103AA00038BF7047C3F12003994008BF20F00100E0
:103AB000BCF17F4F38BF7047A0F1C04000F0C7B9DC
:103AC0004FEA3C00000A40EBC25028BF1CF0FF0F39
:103AD0004FEA400CE6D018BFBCF17F4F38BF7047AB
:103AE000EAE79CEA026F05D010EA5C0F08BF00F01D
:103AF0000040704710B500F064F900BF64FBBE3EA3
:103B0000014800F01EBA00BF0000C07F4FF47F0CD8
:103B10001CEAD0121EBF1CEAD11392EA0C0F93EAE2
:103B20000C0F00F0858090EA010F48BF42F48072CC
:103B300040F4000C41F400002CF07F4120F07F4065
:103B400000B58142A2EB03020FF2081CACEB504E11
:103B5000C0F100009EF800E04FEA4E0E00FB0EFCA4
:103B600038BF49004FEA2C1C02F5FA020CFB0EF399
:103B70004FEACE1E4FEA112C4FEAC1210EEB635ED5
:103B800042EB22420EFB0CFC4FEA1C5300FB0311DC
:103B90004FEA112C4FEA01310EFB0CFC4FEADC4CD2
:103BA00000FB0C11C14228BF09184CEB03335DF830
:103BB00004EB10EB410143EBC250B2F57C0F38BF70
:103BC000704729D512F0F00F1CBF00F1C04000F083
:103BD00000407047008182838485868788898B8C2A
:103BE0008D8E8F919293959697999A9C9D9FA0A266
:103BF000A3A5A7A8AAACAEB0B2B3B5B7B9BCBEC0B6
:103C0000C2C5C7C9CCCED1D4D7D9DCDFE2E6E9EC56
:103C1000F0F3F7FAFE0000004FEA400C0CF1807C54
:103C2000BCF17E4F28BF7047B0F1C04000F00FB923
:103C300090EA010F0CEAD11348BF42F4807262454A
:103C400038BF634507D213F47F0F16D080EA010016
:103C500000F00040704710B500F0B3F8097EFC3E5C
:103C600000F005B880EA010000F00040704780EAEB
:103C7000010000F0004000F0EAB812F47F0F04BF2A
:103C80000248704780EA010000F0E1B80000C07F00
:103C900010F0004148BF4042B0FA80F310FA03F23E
:103CA000C3F19D030BD051EAC35101EB122053061F
:103CB00038BF704700F1010008BF20F001007047D5
:103CC0004FF47F0C1CEAD0121EBF1CEAD11392EAFB
:103CD0000C0F93EA0C0F00F0478090EA010F48BFE9
:103CE00042F480724FF0004C4CEA00204CEA012173
:103CF00002EB0302A0FB0113A2F50002002918BF8A
:103D000043F001035B0028BF4FEA330342EB22423A
:103D10005FEA132C4CEBC2502EBFBCEB436FB2F5E5
:103D20007C0F70474FEA036CBCF1004F08BF20F0D6
:103D30000100B2F57C0F38BF70470BD582F0FF024F
:103D400012F5803FC8BF704700F1C040D8BF00F0F7
:103D50000040704700F5000C5FEA4C0C48BF70470C
:103D6000B0F1C04000F073B890EA010F0CEAD11333
:103D700048BF42F48072624538BF634504D280EA8E
:103D8000010000F00040704710B500F01AF800BFC5
:103D90008900013E00F007B800F009B85FEA410C65
:103DA0005FEA1C6C08D080EA010000F050B85FEABE
:103DB000400C5FEA1C6CF6D14FF00040A0F580008B
:103DC00070470EF1020E2EF0030E5EF8044B2442F3
:103DD00004D44FEA4102B2F17F4F11D84FEA4003B9
:103DE000B3F17F4F0CD80ED14FEAD07CB2F17F4FA8
:103DF0000CEB4C0C0CF1020C08BF4CEBD17C04E03A
:103E00004FF0080C01E04FEAD17C0CEB4C0324FA94
:103E100003F404F00704B4F1040C06D20EEB840C96
:103E2000BDE810404CF0010C6047DFE80CF00708DB
:103E300002024FF00040A0F5800010BD084642008D
:103E400018BFD2F1807288BF00F0004010BDFF2182
:103E500041EAD050C005704790EA010F48BF81F099
:103E600000413FF5F2AD421A04D882F00042A0EBC7
:103E7000020011444FEAD0524FF07F4C1CEA410F30
:103E8000A2EBD15318BF9CEA026F4AD04FF0004C0E
:103E90004CEA00204CEA012121FA03FCB0EB0C0CA7
:103EA0000FD412F0FE0F36D05FEA4C001DD5001281
:103EB00040EBC25038BF70471CF03F0F18BF70472F
:103EC0000BE0A2F101025FEA1C2040EBC25038BFB8
:103ED00070471CF07F0F18BF7047C3F12003994053
:103EE00014BF401E20F00100704780084FEA1223E3
:103EF00008BF7047B0FA80FCA2EB0C02CCF1280C92
:103F000060FA0CF093EA122F04BF00EBC250704726
:103F10004FEAC3707047130A5FEADC1008BF7047AE
:103F2000F6E79CEA026F04D010EA5C0F08BF00209D
:103F3000704710B5FFF745FF40DFF63E81F00040C7
:103F400070470CF00F03092B08BF082000F05180C8
:103F50000A2B0BD0082B18BF704708BF1CF0400F6E
:103F60000AD04FF000004FF0000170471CF0400FE6
:103F700018BF4FF0004070471CF0100F08D020F021
:103F8000704300F07F4242EAD3014FEA437070472A
:103F900000F0604021F07F4242EA000201F07F40E1
:103FA00040EA727070474FF0FF0212EAD0521CBF15
:103FB00092F0FF038B42C2BFD14200EBC150704769
:103FC000002A0AD0002B0BD0002900F00040A4BF2B
:103FD00040F0FE4040F40000704700F000407047A1
:103FE00043024FF00B0C18BF4CF0806C7FF488AD8F
:103FF00070471CF4801F11D01CF4E02F03D06FEA2F
:10400000CC31490070474FF04050EFF3008222F06E
:10401000704242EA000282F3008870474FF00000CD
:104020007047010202030405060708090A0B0C0D7C
:104030000E0F1010010202030405060708090A0BFF
:104040000C0D0E0F10100000000000000000010217
:104050000304060708090000000001020304000031
:104060000000000000000000000000000000000050
:1040700000F80000000000000033300000000010D5
:104080000C06100C0600000000000000000040C0FC
:104090007840C0784000043F04043F0404000070EE
:1040A00088FC08300000001820FF211E0000F008E6
:1040B000F000E018000000211C031E211E0000F08B
:1040C0000888700000001E212324192721101016D3
:1040D0000E000000000000000000000000000000D2
:1040E00000E0180402000000000718204000000251
:1040F0000418E000000000402018070000004040C5
:1041000080F0804040000202010F01020200000026
:1041100000F0000000000101011F0101010000008A
:1041200000000000000080B07000000000000000EF
:104130000000000000000001010101010101000078
:10414000000000000000003030000000000000000F
:10415000000080601804006018060100000000E004
:1041600010080810E000000F102020100F000010B1
:1041700010F8000000000020203F20200000007008
:104180000808088870000030282422213000003000
:104190000888884830000018202020110E000000F8
:1041A000C02010F8000000070424243F240000F879
:1041B0000888880808000019212020110E0000E05E
:1041C000108888180000000F112020110E00003800
:1041D0000808C83808000000003F00000000007018
:1041E000880808887000001C222121221C0000E0A1
:1041F00010080810E0000000312222110F0000001A
:1042000000C0C000000000000030300000000000CE
:10421000008000000000000080600000000000003E
:1042200080402010080000010204081020004040D7
:10423000404040404000040404040404040000081A
:1042400010204080000000201008040201000070CF
:1042500048080808F0000000003036010000C030B7
:10426000C828E810E0000718272423140B000000DA
:10427000C038E0000000203C23020227382008F864
:10428000888888700000203F202020110E00C03058
:10429000080808083800071820202010080008F82F
:1042A00008080810E000203F202020100F0008F828
:1042B0008888E8081000203F20202320180008F8F4
:1042C0008888E8081000203F200003000000C0306C
:1042D00008080838000007182020221E020008F8ED
:1042E00008000008F808203F210101213F200008B4
:1042F00008F8080800000020203F202000000000EF
:104300000808F8080800C08080807F00000008F8D6
:1043100088C028180800203F20012638200008F80F
:10432000080000000000203F20202020300008F876
:10433000F800F8F80800203F003F003F200008F890
:1043400030C00008F808203F200007183F00E010A8
:1043500008080810E0000F10202020100F0008F8B7
:1043600008080808F000203F210101010000E010CA
:1043700008080810E0000F18242438504F0008F8EF
:10438000888888887000203F2000030C302000704F
:104390008808080838000038202121221C0018084D
:1043A00008F8080818000000203F2000000008F866
:1043B00008000008F808001F202020201F000878AF
:1043C000880000C83808000007380E010000F8080F
:1043D00000F80008F800033C0700073C0300081839
:1043E00068808068180820302C03032C302008389F
:1043F000C800C83808000000203F20000000100856
:104400000808C8380800203826212020180000009D
:1044100000FE020202000000007F40404000000C4D
:1044200030C000000000000000010638C00000029B
:104430000202FE000000004040407F00000000003B
:10444000040202020400000000000000000000005E
:10445000000000000000808080808080808000025A
:104460000204000000000000000000000000000046
:104470008080808000000019242222223F2008F83A
:10448000008080000000003F112020110E0000007D
:10449000008080800000000E11202020110000000C
:1044A00000808088F800000E112020103F200000BE
:1044B000808080800000001F2222222213000080C2
:1044C00080F0888888180020203F2020000000000D
:1044D000808080808000006B94949493600008F842
:1044E000008080800000203F210000203F200080CD
:1044F0009898000000000020203F202000000000CD
:1045000000809898000000C08080807F000008F83C
:10451000000080808000203F24022D302000000811
:1045200008F8000000000020203F202000008080CC
:10453000808080808000203F20003F20003F8080DE
:10454000008080800000203F210000203F200000EC
:10455000808080800000001F202020201F0080809D
:1045600000808000000080FFA12020110E000000CC
:10457000008080808000000E112020A0FF808080BD
:1045800080008080800020203F212000010000006A
:10459000808080808000003324242424190000803F
:1045A00080E0808000000000001F2020000080804C
:1045B000000000808000001F202020103F2080800D
:1045C00080000080808000010E300806010080809D
:1045D0000080008080800F300C030C300F000080C2
:1045E0008000808080000020312E0E3120008080ED
:1045F00080000080808080818E701806010000801D
:104600008080808080000021302C2221300000003A
:104610000000807C020200000000003F40400000DB
:104620000000FF00000000000000FF00000000028A
:10463000027C800000000040403F000000000006B7
:10464000010102020404000000000000000000005C
:10465000100800005E400008E6B3A2001060020CE3
:10466000C000F8888888FF8888A8180004047C03A4
:1046700080601F80432C102846818000E789B900A4
:10468000403C10FF1010404848487F48C848400050
:10469000020602FF010100020A1242827F020200AA
:1046A000E5BE8B00001088C43310545454FF54549A
:1046B0007C101000020100FF0010121212FF1212F3
:1046C00012100000E58AA8004044C444444440104D
:1046D00010FF101010F00000103C131014B8403000
:1046E0000E014080403F00001010000058460008B6
:1046F0000400000050460008184700080000002091
:10470000240000006C0100083C4700082400002041
:104710005C1000008801000801000000000000009B
:1047200001000000100000000000000000127A00EC
:0C4730000000000000000000000000007D
:0400000508000131BD
:00000001FF
