:020000040800F2
:10000000280A0020CD0100087F220008B31F000845
:100010007D22000899030008A527000800000000C1
:100020000000000000000000000000008322000823
:100030000304000800000000812200088522000857
:10004000E7010008E7010008E7010008E7010008F0
:10005000E7010008E7010008E7010008E7010008E0
:10006000E7010008E7010008E70100089D03000818
:10007000E7010008E7010008A9030008B50300082C
:10008000C1030008CD03000839030008E701000898
:10009000E7010008E7010008E7010008E7010008A0
:1000A000E701000805230008E7010008E701000850
:1000B000E7010008E7010008E7010008E701000880
:1000C000E7010008E7010008E7010008E701000870
:1000D000E70100088D27000899270008E7010008BC
:1000E000E7010008E7010008E7010008E701000850
:1000F000E7010008E7010008E7010008E701000840
:10010000E7010008E7010008E7010008E70100082F
:10011000E7010008E7010008E7010008E70100081F
:10012000E7010008E7010008E7010008E70100080F
:1001300000F002F800F03AF80AA090E8000C8244BF
:100140008344AAF10107DA4501D100F02FF8AFF29C
:10015000090EBAE80F0013F0010F18BFFB1A43F0A5
:10016000010318477827000098270000103A24BFA1
:1001700078C878C1FAD8520724BF30C830C144BF0C
:1001800004680C607047000000230024002500264E
:10019000103A28BF78C1FBD8520728BF30C148BFEA
:1001A0000B6070471FB51FBD10B510BD00F08AF879
:1001B0001146FFF7F7FF02F069FB00F0A8F803B45F
:1001C000FFF7F2FF03BC00F0AFF8000009488047DA
:1001D00009480047FEE7FEE7FEE7FEE7FEE7FEE729
:1001E000FEE7FEE7FEE7FEE704480549054A064B41
:1001F0007047000003230008310100082804002094
:10020000280A0020280600202806002010B5203AE1
:10021000C0F00B80B1E81850203AA0E81850B1E8BF
:100220001850A0E81850BFF4F5AF5FEA027C24BF75
:10023000B1E81850A0E8185044BF18C918C0BDE86C
:1002400010405FEA827C24BF51F8043B40F8043B35
:1002500008BF7047D20728BF31F8023B48BF11F8EA
:10026000012B28BF20F8023B48BF00F8012B704744
:100270004FF0000200B5134694469646203922BF3F
:10028000A0E80C50A0E80C50B1F12001BFF4F7AF8A
:10029000090728BFA0E80C5048BF0CC05DF804EB6C
:1002A000890028BF40F8042B08BF704748BF20F8DA
:1002B000022B11F0804F18BF00F8012B70477047D8
:1002C00070477047754600F02BF8AE46050069464A
:1002D000534620F00700854618B020B5FFF784FF8D
:1002E000BDE820404FF000064FF000074FF0000837
:1002F0004FF0000B21F00701AC46ACE8C009ACE8B8
:10030000C009ACE8C009ACE8C0098D46704710B51B
:100310000446AFF300802046BDE81040FFF74FBF12
:1003200000487047C803002001491820ABBEFEE713
:100330002600020070470000014800F0E6B8000007
:100340001000002070B5044600688168C943C907E1
:1003500016D1816821F00101816000F085FD05461C
:1003600009E000F081FD401B022804D92068806864
:10037000C043C00706D020688068C043C007F0D0E3
:10038000002070BDA06A40F01000A062E06A40F05A
:100390000100E062012070BDFEE70000014800F0AE
:1003A000D1BA000040000020014800F0CBBA0000A4
:1003B000F4010020014800F0C5BA0000B00100209F
:1003C000014800F0BFBA000038020020014800F0E8
:1003D000B9BA00007C02002030B590F840500124EA
:1003E000AC40C56B6C60046863604368102B0368A5
:1003F00003D099600068C26030BD9A600068C16037
:1004000030BD704772B6FEE770470000F8B50023B4
:10041000009390F824201C46012A12D0012280F873
:1004200024204A681F26072A0DD205686F6B521ECA
:1004300002EB82029640B7430E68964037436F63E3
:1004400019E00220F8BD05680D2A0AD22F6BD21FD1
:1004500002EB82029640B7430E68964037432F6303
:1004600009E0EF6A0D3A02EB82029640B7430E684C
:1004700096403743EF620A68072605680A2A0AD3BE
:10048000EF680A3A02EB42029640B7438E68964004
:100490003743EF6008E02F6902EB42029640B74312
:1004A0008E68964037432F610A68102A01D0112ABE
:1004B00020D1124D0268AA4217D195682D0219D495
:1004C000956845F4000595600968102912D10C491A
:1004D0000C4A0968B1FBF2F101EB8101490000E02F
:1004E000491E00910029FBD104E0816A41F02001FE
:1004F0008162012380F824401846F8BD00240140A1
:100500000C00002040420F00704770B504460068A0
:1005100006684568A90625D5B10723D5A16AC9068D
:1005200003D4A16A41F40071A1628168C1F3424120
:10053000072910D1217B71B9416821F02001416068
:10054000A06A20F48070A062A06AC00403D4A06AEC
:1005500040F00100A0622046FFF7D6FF21686FF04F
:100560001200086028062ED570072CD5A06AC00698
:1005700003D4A06A40F40050A06220688168C1F3EF
:100580000231072909D04168490515D48168C1F3B2
:100590004241072910D1217B71B9416821F08001C6
:1005A0004160A06A20F48050A062A06AC00503D414
:1005B000A06A40F00100A0622046FFF725FF2168F5
:1005C0006FF00C00086068060CD5F0070AD0A06A2E
:1005D00040F48030A062204600F096F821686FF069
:1005E0000100086070BD00002DE9F04104004FF0EB
:1005F00000057FD0A06A002628B9E66284F824604E
:10060000204600F083F82046FFF79CFEA16AC90649
:1006100000D420B1A06A40F01000A0626AE0A16A94
:1006200021F4885141F00201A162334923688B42D1
:10063000E16904D1B1F5402F01D14FF40021277BAE
:100640004FF4807C41EA470261680A43A168614532
:1006500008D0012906D0002194F814E0BEF1010F62
:1006600002D00AE06146F7E7C7B1A76A47F0200762
:10067000A762E76A47F00107E7625F6827F4694706
:100680000F435F6021688B681C4F3B4013438B60B6
:10069000A16861450BD0012909D00CE0DFF860E0CA
:1006A000A7690EEB47370F4347F40061E5E7218A5E
:1006B0000D05A5F580152168CB6A23F470032B4343
:1006C000CB62216889680F4B1940914208D1E662DC
:1006D000A16A21F0020141F00101A162BDE8F081AF
:1006E000A06A20F0020040F01000A062E06A40F032
:1006F0000100E0620120F1E7003C0140FDF7E1FF6D
:1007000000E0FFFFFE0E1FFF7047000070B586B0CF
:10071000002406460094019402940394006825493D
:10072000884244D12449886940F40070886188690E
:1007300000F400700490886940F0040088618869C2
:1007400000F004000490886940F00800886188691E
:10075000032500F0080004900620CDE90005694655
:10076000164800F089FA009569461548019500F091
:1007700083FA154D1348C5E900048020C5E90240FD
:1007800040002861800068612020C5E906042846F1
:1007900000F0FCF908B1FFF735FE35620022114682
:1007A00012206E6200F0C8FC122000F0B7FC06B008
:1007B00070BD00000024014000100240000801400C
:1007C000000C0140080002404000002010B590F8E5
:1007D00021100022022905D00421816380F8202005
:1007E000012010BD01680B6823F00E030B60016847
:1007F0000B6823F001030B6090F84030012404FAE9
:1008000003F1C36B596080F8214080F82020104626
:1008100010BD00002DE9F05F90F82110002402299E
:1008200003D004218163012485E001680A6822F075
:100830000E020A6001680A6822F001020A603F4E57
:100840003E4FB215DFF8F4C0DFF8F090DFF8ECA00F
:10085000DFF8E8B0DFF8E4E00168783F1301150243
:10086000ACF1640CA9F15009AAF13C0AABF1280BD8
:10087000AEF1140E4FF48018B14227D9B9420ED010
:10088000614512D049451DD0514518D0594518D061
:10089000714501D1424615E0294EB14201D10122F4
:1008A00010E0274E1436B14201D110220AE0244E46
:1008B0002836B14206D0224A3C32914201D11A4632
:1008C00000E02A461E49091F0A602BE0B94213D0F6
:1008D000614517D0494522D051451DD059451DD0FD
:1008E000714501D142461AE0B14202D14FF0807207
:1008F00015E0134EB14201D1012210E0104E143622
:10090000B14201D110220AE00D4E2836B14206D084
:100910000B4A3C32914201D11A4600E02A4607496F
:1009200080394A60012180F82110002180F82010D0
:10093000416B01B188472046BDE8F09F800002402E
:10094000080402402DE9F05FC16B0B6801680A687A
:10095000046C4FF0040808FA04F8844D844E854F67
:10096000DFF814C2DFF81492DFF814A2DFF814B233
:10097000DFF814E218EA030F65D05FEA427862D527
:100980000A68920603D40A6822F004020A60DFF8BB
:10099000F0814FF48062016808F114081301140219
:1009A000414524D9A9420DD0B1420FD0B9421AD045
:1009B000614515D0494515D0514501D1120312E0CA
:1009C000594501D104220EE0714501D140220AE0CF
:1009D0006D4D1435A94206D06B4A2832914201D19F
:1009E0001A4600E022466749091F0A6029E0A94229
:1009F00013D0B14215D0B94220D061451BD0494532
:100A00001BD0514502D14FF4800217E0414502D17D
:100A10004FF0806212E0594501D104220EE0714589
:100A200001D140220AE0584D1435A94206D0564A59
:100A30002832914201D11A4600E022464B4908393A
:100A40004A60C16A71E04FF0020808FA04F818EA37
:100A5000030F70D05FEA82786DD50A68920606D4DB
:100A60000A6822F00A020A60012180F82110DFF8EA
:100A700010814FF40072016808F114081301140288
:100A8000414524D9A9420DD0B1420FD0B9421AD064
:100A9000614515D0494515D0514501D1120312E0E9
:100AA000594501D102220EE0714501D120220AE010
:100AB000354D1435A94206D0334A2832914201D12E
:100AC0001A4600E022462F49091F0A6029E0A94280
:100AD00013D0B14215D0B94220D061451BD0494551
:100AE0001BD0514502D14FF4001217E0414502D10D
:100AF0004FF0007212E0594501D102220EE071451B
:100B000001D120220AE0204D1435A94206D01E4A08
:100B10002832914201D11A4600E022461349083991
:100B20004A60002180F82010816A00291CD0BDE8AD
:100B3000F05F0847FFE70825A5401D4214D01207C3
:100B400012D50A6822F00E020A6090F84020C36BAA
:100B5000012101FA02F25A60816380F8211000211C
:100B600080F82010016BE0E7BDE8F09F080002402C
:100B70001C00024030000240440002405800024085
:100B80006C000240080402401C04024030B560B111
:100B90001A4B01681422994209D2194B0B44B3FB3A
:100BA000F2F292000264174A0AE0012030BD134BB2
:100BB0005B420B44B3FBF2F2920002640F4A083A24
:100BC000C263022280F821200A6843F6F0739A4338
:100BD000F0E901342343D0E902452C43234304695F
:100BE0002343446923438469234313430B60002157
:100BF0004163012242770177084630BD0804024074
:100C0000F8FFFDBF0000024070B5044690F82000D8
:100C1000002501280CD0012084F8200094F82160E0
:100C20000020012E06D084F820000225284670BD41
:100C3000022070BD022684F82160A0632068066847
:100C400026F0010606602046FFF7C6FBE06A002892
:100C50002068016802D041F00E0106E021F0040195
:100C600001602068016841F00A01016020680168A4
:100C700041F001010160D9E72DE9F84FDFF8C0919B
:100C80000024A9F1040B23464FF00F0809F1040AD0
:100C9000ABF1040ECCE00127A7403A40BA4272D132
:100CA000DFF8A0C14D68A5EB0C0665452BD00DDC27
:100CB000032D34D005DC35B3012D19D0022D2FD1F1
:100CC0001BE0112D16D0122D2AD119E0B6F5881F80
:100CD00019D006DCB6F5803F15D0B6F5801F1FD1C0
:100CE00011E0B6F5001F0ED0B6F5041F18D10AE0CA
:100CF000CB6815E0CB681B1D12E0CB6808330FE012
:100D0000CB680C330CE08B682BB1012B4FF0080340
:100D100003D0476104E0042302E0076100E0002300
:100D2000FF2A01D8064601E000F104064FEA8405D7
:100D300001D9A5F12005376808FA05FC27EA0C0758
:100D400003FA05F547EA050737604D68ED006ED5F3
:100D50003D4DAE6946F00106AE61AD6924F0030673
:100D600005F001050095394D7719BE68A5072D0FCF
:100D700008FA05FC26EA0C06DFF8D4C0604503D16A
:100D80004FF0000C25E052E0DFF8C8C0604502D10A
:100D90004FF0010C1DE0DFF8C0C0604502D14FF0FC
:100DA000020C16E0DFF8B4C0604502D14FF0030C2E
:100DB0000FE0DFF8ACC0604502D14FF0040C08E052
:100DC000DFF8A0C0604502D14FF0050C01E04FF004
:100DD000060C0CFA05FC4CEA060CC7F808C04D6876
:100DE000D9F80060ED024D4601D5164300E0964368
:100DF0002E604D68DAF80060AD02554601D5164305
:100E000000E096432E604D68DBF80060AD035D4660
:100E100001D5164300E096432E604D68DEF8006071
:100E2000ED03754601D5164300E096432E60641C21
:100E30000A6832FA04F57FF42EAFBDE8F88F00009F
:100E400008040140000011100010024000000140A1
:100E500000080140000C0140001001400014014056
:100E600000180140001C01400148806870470000E4
:100E70000000002070B5040025D094F83D00002546
:100E800020B984F83C50204600F0B8F8242084F8BB
:100E90003D002068016821F00101016020680168BF
:100EA00041F4004101602068016821F400410160C3
:100EB00000F084FA4D4B6168994201D84C4900E03A
:100EC0004C49884201D2012070BD4B492268B0FBD9
:100ED000F1F1566826F03F060E43566062689A426A
:100EE00006D94FF4967251434FF47A72B1FBF2F186
:100EF0002268491C166A26F03F0631431162616878
:100F0000994210D84900401EB0FBF1F2521CC2F3C6
:100F10000B02042A01D2042022E0B0FBF1F0401CB5
:100F2000C0F30B001CE0A268F2B301EBC10303EBBA
:100F30000116431EB3FBF6F35B1C43F480431B0511
:100F400049D092B301EBC10202EB0111401EB0FB8C
:100F5000F1F0401CC0F30B0040F4804040F400402E
:100F60002168CA694CF6FF739A431043C861D4E9FB
:100F7000071001432068026822F0C002114301609B
:100F8000D4E9030101432068826848F2FF339A43A1
:100F900011438160D4E9051001432068C26822F042
:100FA000FF021143C16001E00EE016E02068016815
:100FB00041F0010101602564202084F83D00256393
:100FC00084F83E50002070BD01EB4106431EB3FB88
:100FD000F6F35B1CB3E70120C2E701EB4101401EC1
:100FE000B0FBF1F0401CC0F30B00B7E7A086010096
:100FF00080841E0000093D0040420F0010B586B0FD
:1010000000210091019102910391006813498842E7
:1010100022D1134CA06940F00800A061A069694684
:1010200000F0080004904FF44070009012200190EE
:10103000032003900B48FFF71FFE0B49486840F060
:10104000E06040F002004860E06940F40010E061B8
:10105000E06900F40010049006B010BD0054004098
:1010600000100240000C014000000140024881686D
:10107000027811448160704700000020074810B5D5
:10108000016841F010010160032000F075F80F20A5
:1010900000F006F800F024F8002010BD0020024007
:1010A00070B50D4D04464FF47A712878B1FBF0F01D
:1010B0000A490968B1FBF0F000F052FB48B9102C66
:1010C00007D200222146501E00F036F800206C6046
:1010D00070BD012070BD0000000000200C00002049
:1010E0000C4808B5816941F001018161816901F015
:1010F00001010091C16941F08051C161C069064997
:1011000000F080500090486820F0E06040F00070EF
:10111000486008BD0010024000000140002809DBC3
:1011200000F01F02012191404009800000F1E02001
:10113000C0F8001170470000F0B40E4B1B68C3F3F9
:101140000223C3F10704042C00D904241D1D072D1C
:1011500001D2002300E0DB1E012606FA04F56D1E15
:101160000D409D409E40761E164045EA0601F0BCAB
:1011700001F02BBB0CED00E0064A00F007011068FF
:101180004FF6FF03184040EA01200349084310606E
:10119000704700000CED00E00000FA052DE9F8436F
:1011A00004460078344FC00752D0F8690025C000CB
:1011B00008D4F86940F08050F861F869012500F022
:1011C000805000902D480168C90511D401688046FF
:1011D00041F480710160FFF747FE064604E0FFF727
:1011E00043FE801B642822D8D8F80000C005F6D53D
:1011F000386A10F4407020D0A18801F44071814217
:101200001BD0386A1E49012220F440700A60002277
:101210000A603862C00710D0FFF726FE064641F28A
:10122000883807E0FFF720FE811B414502D90320E3
:10123000BDE8F883386A8007F4D5386A616820F41D
:101240004070084338621DB1F86920F08050F861A1
:101250002078800705D57868A16820F440400843CD
:1012600078602078C00605D57868616920F4800030
:10127000084378600020DBE7001002400070004067
:10128000400442422DE9F0470D46040067D0DFF8E4
:101290001881D8F8000000F00700A8420CD2D8F856
:1012A000001021F007012943C8F80010D8F8000009
:1012B00000F00700A84252D120683C4E810712D5A9
:1012C000400703D5706840F4E06070602078000744
:1012D00003D5706840F4605070607068A16820F0B9
:1012E000F000084370602078C00727D060680128AC
:1012F00010D03168022810D0890700292FDA7168D0
:1013000021F0030101437160FFF7AEFD074641F292
:1013100088390CE031688903EFE78901EDE7FFF7D1
:10132000A3FDC11B494502D90320BDE8F0877068C1
:10133000616800F00C00B0EB810FF0D1D8F800101C
:10134000404601F00701A9420BD9016821F00701CD
:1013500029430160006800F00700A84201D0012085
:10136000E3E72078400705D57068E16820F4E06085
:10137000084370602078000706D57068216920F462
:10138000605040EAC100706000F038F87168084AA7
:10139000C1F30311515CC840064908600648006863
:1013A000FFF77EFE0020C0E7002002400010024050
:1013B000C42800080C00002004000020044805494F
:1013C00000684968044AC1F30221515CC840704773
:1013D0000C00002000100240D428000804480549F1
:1013E00000684968044AC1F3C221515CC840704793
:1013F0000C00002000100240D42800080E4B596851
:101400000E4801F00C02042A11D0082A0FD10C4812
:10141000C1F38342C903805C0AD55968084AC1F305
:101420004041921E515C054A5043B0FBF1F07047B9
:1014300004494843704700000010024000127A003F
:10144000B428000800093D002DE9F84F04006FD0D2
:101450002078BE4DC00747D06868C0F381000128DE
:1014600007D06868C0F38100022809D16868C0030A
:1014700006D52868800337D560680028E7D033E0B8
:101480006068B0F5803F0BD010B1B0F5A02F11D03F
:10149000286820F480302860286820F4802002E04A
:1014A000286840F480302860606888B1FFF7DCFC71
:1014B000064609E0286840F480202860F0E7FFF73E
:1014C000D3FC801B642873D828688003F7D50BE011
:1014D000FFF7CAFC064604E0FFF7C6FC801B642841
:1014E000F1D828688003F7D42078DFF86482800779
:1014F0004FF0010A4FF0000939D5686810F00C0F61
:1015000007D06868C0F38100022809D16868C00369
:1015100006D42868800714D52069012808D110E076
:101520002069B0B1C8F800A0FFF79EFC064605E0B0
:1015300007E1FFF799FC801B0228C4D828688007C0
:10154000F7D52868616920F0F80040EAC1002860FA
:101550000DE0C8F80090FFF787FC064604E0FFF7AF
:1015600083FC801B022823D828688007F7D42078C2
:1015700000072CD57748A169D9B1C0F800A0FFF7C2
:1015800073FC064604E0FFF76FFC801B02280FD8AF
:10159000686A8007F7D570484FF4FA510068B0FBCD
:1015A000F1F0009000BF0098411E0091FAD20EE0C9
:1015B0007CE0C0F80090FFF757FC064604E0FFF718
:1015C00053FC801B022871D8686A8007F7D4207802
:1015D00040075BD5E8690027C00008D4E86940F0FF
:1015E0008050E861E869012700F0805000905B4876
:1015F0000168C90511D40168834641F48071016016
:10160000FFF732FC064604E0FFF72EFC801B64283F
:101610004CD8DBF80000C005F6D5E06801280AD0F8
:1016200008B1052813D0286A20F001002862286A32
:1016300020F0040002E0286A40F001002862E0681F
:1016400041F2883B88B1FFF70FFC064609E0286AA3
:1016500040F004002862EEE7FFF706FC811B5945C5
:101660005BD8286A8007F7D50BE0FFF7FDFB06463D
:1016700004E0FFF7F9FB811B59454ED8286A800723
:10168000F7D41FB1E86920F08050E861E069A8B3A1
:101690006968C1F38101022946D00228484606D074
:1016A000C8F86000FFF7E0FB044639E035E0474644
:1016B000C8F86000FFF7D8FB064604E0FFF7D4FB4C
:1016C000801B022829D828688001F7D4206AB0F549
:1016D000803F05D16868A16820F400300843686045
:1016E000D4E908010843696821F47411084368606B
:1016F000C7F860A0FFF7B8FB044605E023E0FFF75A
:10170000B3FB001B022808D828688001F7D51AE02F
:10171000FFF7AAFB001B022802D90320BDE8F88FBF
:1017200028688001F4D40EE00128F7D06868226AA6
:1017300000F48031914204D1616A00F47010884253
:1017400001D00120EAE70020E8E700000010024095
:1017500000004242800442420C0000200070004021
:1017600010B5401EB0F1807F01D3012010BD4FF0B5
:10177000E02460610F21601701F027F80020A061CC
:1017800007202061002010BD7047704770B590F8A9
:101790003C20012A2CD0012580F83C50022280F800
:1017A0003D2002685368946823F070060B68334349
:1017B0005360104B02689A420ED00F4B9A420BD0E6
:1017C000B2F1804F08D00D4B9A4205D00C4B9A4293
:1017D00002D00C4B9A4204D1496824F0800319438B
:1017E000916080F83D50002180F83C10084670BDA3
:1017F000022070BD002C0140003401400004004074
:1018000000080040000C004010B5040003D094F81C
:101810003D0010B107E0012010BD002084F83C001D
:10182000204600F01FF8022084F83D00211D2068AA
:1018300000F06EFD012084F8460084F83E0084F834
:101840003F0084F8400084F8410084F8420084F8A6
:10185000430084F8440084F8450084F83D000020EB
:1018600010BD000008B500680B49884212D10B4832
:10187000816941F4006181618069002200F40060A7
:10188000009011461920FFF757FCBDE808401920C9
:10189000FFF744BC08BD0000002C014000100240CE
:1018A00070B5044690F83C000025012817D00126A9
:1018B00084F83C60022084F83D002068826822F0B1
:1018C000770222F47F4282600868502838D00DDC0D
:1018D00020284FD005DC90B3102811D14AE0022017
:1018E00070BD302846D040280AD13BE060282FD078
:1018F00070280DD0B0F5805F03D0B0F5005F12D036
:10190000012584F83D60002084F83C00284670BD25
:10191000CB68D1E90121206800F048FD206881688A
:1019200041F0770109E0CB68D1E90121206800F09E
:101930003DFD2068816841F480418160E1E719E064
:10194000CA684968206800F043FD5021206806E01D
:10195000CA684968206800F04CFD6021206800F0EA
:101960002FFDCEE7CA684968206800F031FD4021AC
:101970002068F4E7226801461046F0E770472DE939
:10198000F04104460068C66805694FF00007A907E2
:1019900013D5B10711D5F91E016101202077206808
:1019A00080698007204602D0FFF7E8FF04E000F0DE
:1019B0007EF8204600F07CF82777680716D5700778
:1019C00014D521686FF00400086102202077206898
:1019D000806910F4407F204602D0FFF7CFFF04E07B
:1019E00000F065F8204600F063F82777280715D542
:1019F000300713D521686FF00800086104202077B4
:101A00002068C0698007204602D0FFF7B7FF04E0D6
:101A100000F04DF8204600F04BF82777E80616D581
:101A2000F00614D521686FF01000086108202077B7
:101A30002068C06910F4407F204602D0FFF79EFF67
:101A400004E000F034F8204600F032F82777E80789
:101A500008D0F00706D021686FF001000861204629
:101A600000F027F8280608D5300606D521686FF063
:101A7000800008612046FFF787FE680608D57006DB
:101A800006D521686FF040000861204600F012F88A
:101A9000A8060AD5B00608D521686FF020000861B5
:101AA0002046BDE8F041FFF770BEBDE8F081704709
:101AB00070477047704738B5044690F842002028B8
:101AC00001D0022038BD71B16AB10120206300202D
:101AD0006063204600F010FE0246206B012804D00F
:101AE0000122104638BD012038BD206801684068D9
:101AF000009020680C3050E8001F41F0100140E8D1
:101B00000013002BF5D1ECE70A460449884203D1C3
:101B10000146034800F047BE704700002001002046
:101B2000C002002070470000F8B50168044608684C
:101B3000CA684B6910F00F0F4FF0000559D003F041
:101B4000010602F49077374365D0C10705D0D1056F
:101B500003D5616C41F001016164410705D5D907E6
:101B600003D0616C41F002016164810705D5D9079A
:101B700003D0616C41F004016164010707D502F0F4
:101B80002001314303D0616C41F008016164616C54
:101B900000293AD0800604D5900602D5204600F0F0
:101BA000EEFC20684069616CC0F38010090700D426
:101BB00060B3204600F0AEFC20684069400621D5A5
:101BC0002068143050E8001F21F0400140E8001266
:101BD000002AF5D1E06BA8B16D494163E06BFEF7D7
:101BE00019FE002811D0E06B416B01B0BDE8F04058
:101BF000084783060FD593060DD52046BDE8F8406B
:101C000000F0BDBC2046FFF78DFFF8BD2046FFF772
:101C100089FF6564F8BD266B2023012E7CD1C606A2
:101C20007AD5D60678D508684868009048694FF09C
:101C30000206400640D5E16B086840680004000CCD
:101C4000E8D0A28D8242E5D9E085886920282DD090
:101C500020680C3050E8001F21F4807140E8001229
:101C6000002AF5D12068143050E8001F21F001014E
:101C700040E80012002AF5D12068143050E8001F17
:101C800021F0400140E80012002AF5D184F84230EA
:101C9000256320680C3050E8001F21F0100140E857
:101CA0000012002AF5D1E06BFEF790FD6663A08D6F
:101CB000E18D401A81B22AE0A08DE18D401A81B2F7
:101CC000E08D0028A6D00029A4D020680C3050E870
:101CD000002F22F4907240E80027002FF5D12068F1
:101CE000143050E8002F22F0010240E80027002FB6
:101CF000F5D184F84230256320680C3050E8002F7D
:101D000022F0100240E80023002BF5D16663204644
:101D1000FFF7FAFEF8BDFFE705062BD5150629D516
:101D200094F841002128F5D1A068B0F5805F01D179
:101D30002069B0B1206A411C2162216800784860A6
:101D4000E08C401E0004000CE084E3D12068C168F0
:101D500021F08001C1602068C16841F04001C1608C
:101D6000D8E7206A0088C0F308004860206A801C19
:101D70002062E5E74006CDD55006CBD5CA6820469F
:101D800022F04002CA6084F8413000F011F9C1E746
:101D90001724000870B5040004D094F84100002511
:101DA00010B106E0012070BD84F84050204600F0DC
:101DB00023F8242084F841002068C16821F40051F0
:101DC000C160204600F03CFC2068016921F490418C
:101DD00001612068416921F02A0141612068C168E0
:101DE00041F40051C1606564202084F8410084F80A
:101DF00042006563002070BD2DE9F04786B00025E4
:101E000000950195029503950446DFF880C10168AD
:101E10005F484027022203235E4E4FF010094FF027
:101E20008008614553D1816941F4804181618169B4
:101E300001F480410491816941F008018161806968
:101E4000DFF854A100F00800CDE90330CDE90072BD
:101E500069465046FEF710FFCDE9008547466946C2
:101E600050460295FEF708FF706840F0E06040F0D1
:101E7000040070604A4E4948C6E90005C6E90257A9
:101E800035617561B5613046F561FEF77FFE08B1D9
:101E9000FEF7B8FAE6637462414E4048443614389F
:101EA000C6E9025735617561B561F561C6E900099A
:101EB0003046FEF76BFE08B1FEF7A4FAA6630022D7
:101EC000114625207462FFF737F9252059E0DFF825
:101ED000D4C0614557D1C16941F40031C161C169C4
:101EE00001F400310491816941F020018161806930
:101EF000DFF8B4A000F0200004902020CDE900021B
:101F0000694603935046FEF7B7FECDE90075694672
:101F100050460295FEF7B0FE706840F0E06040F079
:101F2000080070601E4E1D4888361430C6E9000552
:101F3000C6E9025835617561B56147463046F561BD
:101F4000FEF724FE08B1FEF75DFAE6637462144EF4
:101F50001248CC362830C6E9025735617561B56143
:101F6000F561C6E900093046FEF710FE08B1FEF73C
:101F700049FAA6630022114626207462FFF7DCF8B6
:101F80002620FFF7CBF806B0BDE8F0870038014007
:101F90000010024000000140000C014058000240C7
:101FA000B001002000440040001401407047704719
:101FB0007047FEE73EB500212148009101911F4A7C
:101FC0000291026092158260012404730175042558
:101FD0004FF460220561C2614160FEF705FB08B164
:101FE000FEF710FA00940194022469461448029402
:101FF000FEF70CFA08B1FEF705FA0094694610489E
:102000000194FEF703FA08B1FEF7FCF908200090EE
:102010000320019069460A48FEF7F8F908B1FEF777
:10202000F1F90920CDE9000569460548FEF7EEF90A
:10203000002801D0FEF7E6F93EBD00000024014073
:1020400010000020194808B5416941F001014161C3
:102050004069002200F00100009011460B20FFF7BC
:102060006BF80B20FFF75AF8002211460E20FFF7FD
:1020700063F80E20FFF752F8002211460F20FFF7F9
:102080005BF80F20FFF74AF8002211461020FFF7F7
:1020900053F81020FFF742F8002211461120FFF7F5
:1020A0004BF8BDE808401120FFF738B80010024097
:1020B00070B586B00024274801940394816941F0EB
:1020C00040018161816901F040010491816941F021
:1020D00010018161816901F010010491816941F071
:1020E00004018161816901F004010491816941F079
:1020F00008018161816901F008010491816941F061
:10210000200181618069144E00F020000490282095
:1021100001250090694602953046FEF7ADFD4FF46B
:10212000C0608DE8310069460C48FEF7A5FD4FF40C
:10213000E0608DE8310069460948FEF79DFD022107
:10214000CDE90014029169463046FEF795FD06B0D0
:1021500070BD000000100240001801400010014056
:10216000000801400D4810B50B4901600C49416061
:1021700000214FF480428160C0E903124161816116
:10218000C1610162FEF776FE002803D0BDE8104071
:10219000FEF738B910BD0000005400408400002054
:1021A000A086010010B586B0002417480094019461
:1021B0000294039404941349059401604721C0E9F3
:1021C000011440F2E731C0E9031444618461FFF770
:1021D0001BFB08B1FEF716F94FF4805000906946DA
:1021E0000948FFF75DFB08B1FEF70CF9049404A958
:1021F00005480594FFF7CAFA002801D0FEF702F956
:1022000006B010BD002C0140D80000200C4810B5CD
:102210000A4901604FF4E1314160002181600C22E4
:10222000C160C0E904128161C161FFF7B3FD0028FC
:1022300003D0BDE81040FEF7E5B810BD00380140FE
:10224000200100200C4810B50A4901604FF4E1312B
:102250004160002181600C22C160C0E904128161EB
:10226000C161FFF797FD002803D0BDE81040FEF7DD
:10227000C9B810BD0044004068010020FEE7FEE739
:1022800070477047FEF7F2BE30B595B0282168461A
:10229000FDF7EEFF14210AA8FDF7EAFF18210FA8A9
:1022A000FDF7E6FF01210804CDE9001000240294A7
:1022B00002250491CDE907504FF4E01009906846DB
:1022C000FFF7C2F808B172B6FEE70F20CDE90A05A4
:1022D0004FF48060CDE90C4002210AA80E94FEF76D
:1022E000D1FF08B172B6FEE74FF4004011900F9590
:1022F0000FA8FEF753FF002801D072B6FEE715B015
:1023000030BD70470148FFF73ABB0000D8000020FD
:10231000F0B50268204D214E214FDFF888C0224BD6
:102320004FF0804EA84209D0984207D0704505D0A2
:10233000B04203D0B84201D0604503D122F070040E
:102340004A682243A84209D0984207D0704505D078
:10235000B04203D0B84201D0604503D122F44074AA
:10236000CA6822434C6922F08002224302608A68D4
:10237000C2620A688262A84201D0984201D109690A
:102380000163012141610169C90703D0016921F09D
:1023900001010161F0BD0000002C0140000400407B
:1023A00000080040000C00400034014010B5846873
:1023B00042EA032224F47F440A432243826010BD90
:1023C000826822F070020A4342F007018160704780
:1023D00010B5046A036A23F001030362836923F0E2
:1023E000F00343EA021324F00A020A438361026203
:1023F00010BD10B5036A046A24F0100404628469F5
:1024000023F0A00324F4704444EA023243EA0111A9
:102410008261016210BD10B5406A0021C185C1848E
:10242000FFF780FB10BD70B5446A2068406994F8DE
:102430004110C0F3C0100025212904D118B1E58452
:10244000204600F08EF82068406994F84210C0F3EE
:102450008010222904D118B1E585204600F05AF8F1
:10246000606C40F0100060642046FFF75BFB70BDBD
:1024700010B50146406A096809684FF000038906F3
:102480002ED4C38501680C3151E8002F22F48072EC
:1024900041E80024002CF5D10168143151E8002FE7
:1024A00022F0010241E80024002CF5D1016814312A
:1024B00051E8002F22F0400241E80024002CF5D121
:1024C000202180F84210016B012909D101680C31EB
:1024D00051E8002F22F0100241E80024002CF5D131
:1024E0004363016B012902D0FFF760FD10BD818DB0
:1024F000FFF70AFB10BD10B5406A01214163016B73
:10250000012902D0FFF753FD10BD818D4908FFF767
:10251000FBFA10BD01680C3151E8002F22F49072D3
:1025200041E80023002BF5D10168143151E8002F58
:1025300022F0010241E80023002BF5D1016B0129B3
:1025400009D101680C3151E8002F22F0100241E856
:102550000023002BF5D1202180F8421000210163D7
:10256000704701680C3151E8002F22F0C00241E8A9
:102570000023002BF5D1202180F84110704708B5C9
:1025800090F84210222901D0022008BD81684FF442
:102590008053994201D1026922B1826A99421BD0CB
:1025A00049B10AE00268816A5268C2F308020A80EF
:1025B000816A891C08E0016971B10168496801F00C
:1025C0007F011170816A491C8162C18D491E090415
:1025D000090CC18503D01BE001684968F1E7016877
:1025E000CA6822F02002CA600168CA6822F48072B8
:1025F000CA6001684A6922F001024A61202180F81C
:10260000421000214163026B012A03D0FFF7CEFC88
:10261000002008BD016301680C3151E8002F22F051
:10262000100241E80023002BF5D101680A68D206A8
:1026300002D50A6849680091818DFFF765FAE7E7DE
:1026400070B5044600680169E26821F44051114305
:102650000161A16820690143606901432068C26883
:1026600041F20C639A430A43C26020684169A2693F
:1026700021F44071114341611E492068884202D112
:10268000FEF7ACFE01E0FEF799FE00EBC00101EBA6
:102690000011606864228000B1FBF0F3B3FBF2F339
:1026A0006FF018067343B1FBF0F5B1FBF0F605EBE4
:1026B0008305322303EB0515B5FBF2F5B6FBF2F605
:1026C00005F0F00505EB0615B1FBF0F6B1FBF0F0F7
:1026D000B0FBF2F06FF01801484306EB800003EB0B
:1026E0000010B0FBF2F0216800F00F002844886071
:1026F00070BD00000038014037B582B01346039A20
:1027000082620446838500206064222184F842109E
:10271000E56B1B49A962E56B1A49E962E56B1A4949
:102720002963E16B48632168E06B091DFEF76CFAD1
:102730002068016840680090206948B120680C302A
:1027400050E8001F41F4807140E80012002AF5D1E2
:102750002068143050E8001F41F0010140E80012E9
:10276000002AF5D12068143050E8001F41F04001E4
:1027700040E80012002AF5D105B0002030BD00006D
:1027800071240008F7240008272400080148FFF7F7
:10279000CBB90000200100200148FFF7C5B90000B7
:1027A00068010020FEE770B50C460546014600F0C2
:1027B0001CF8402229462046FFF77DF9E06B0068AF
:1027C000016821F00401016070BD0907090E0028AD
:1027D00004DB00F1E02080F80014704700F00F00E7
:1027E00000F1E02080F8141D704770B50D460446D6
:1027F000102A1CD3002315E0E85CAA2810D1E818A1
:10280000417855290CD18078C11C194489B2914274
:102810000DD80D280CD0D4F8B800401CC4F8B8006E
:102820005B1C9BB203F1100080B29042E4D970BDF2
:10283000E81804F1900130F8032F52BA0A80428858
:1028400052BA4A80828852BA8A80C28852BACA80F2
:10285000028952BA0A81428952BA4A81027B02F045
:1028600001020A73007B0E22C0F34000487304F19A
:10287000C000FDF7CBFC012504F8AC5FA068401C4C
:10288000A060FEF7F1FA2061257170BDFEF7F6FB3E
:10289000FFF7FAFCFFF70CFCFFF7D4FBFFF78AFB0E
:1028A000FFF7B4FCFFF77EFCFFF7CCFCFFF75AFC08
:1028B000FEE7010202030405060708090A0B0C0DD6
:1028C0000E0F1010000000000000000001020304C1
:1028D000060708090000000001020304FC280008A4
:1028E00000000020100000006C0100080C29000806
:1028F00010000020180A00008801000801000000F4
:0C290000100000000000000000127A002F
:0400000508000131BD
:00000001FF
