:020000040800F2
:1000000020090020CD0100081B2100084D1E00081A
:100010001921000837030008A5240008000000008B
:100020000000000000000000000000001F21000888
:1000300075030008000000001D21000821210008B0
:10004000E7010008E7010008E7010008E7010008F0
:10005000E7010008E7010008E7010008E7010008E0
:10006000E7010008E7010008E7010008390300087C
:10007000E7010008E70100084503000851030008F4
:100080005D03000869030008D5020008E7010008C5
:10009000E7010008E7010008E7010008E7010008A0
:1000A000E7010008A1210008E7010008E7010008B6
:1000B000E7010008E7010008E7010008E701000880
:1000C000E7010008E7010008E7010008E701000870
:1000D000E70100088D24000899240008E7010008C2
:1000E000E7010008E7010008E7010008E701000850
:1000F000E7010008E7010008E7010008E701000840
:10010000E7010008E7010008E7010008E70100082F
:10011000E7010008E7010008E7010008E70100081F
:10012000E7010008E7010008E7010008E70100080F
:1001300000F002F800F03AF80AA090E8000C8244BF
:100140008344AAF10107DA4501D100F02FF8AFF29C
:10015000090EBAE80F0013F0010F18BFFB1A43F0A5
:1001600001031847B4230000D4230000103A24BF31
:1001700078C878C1FAD8520724BF30C830C144BF0C
:1001800004680C607047000000230024002500264E
:10019000103A28BF78C1FBD8520728BF30C148BFEA
:1001A0000B6070471FB51FBD10B510BD00F058F8AB
:1001B0001146FFF7F7FF02F086F900F076F803B476
:1001C000FFF7F2FF03BC00F07DF80000094880470C
:1001D00009480047FEE7FEE7FEE7FEE7FEE7FEE729
:1001E000FEE7FEE7FEE7FEE704480549054A064B41
:1001F000704700009F210008310100082003002003
:100200002009002020050020200500204FF00002DA
:1002100000B5134694469646203922BFA0E80C50FC
:10022000A0E80C50B1F12001BFF4F7AF090728BFD7
:10023000A0E80C5048BF0CC05DF804EB890028BF53
:1002400040F8042B08BF704748BF20F8022B11F07C
:10025000804F18BF00F8012B7047704770477047F8
:10026000754600F02BF8AE4605006946534620F06F
:100270000700854618B020B5FFF7B6FFBDE820405F
:100280004FF000064FF000074FF000084FF0000B52
:1002900021F00701AC46ACE8C009ACE8C009ACE805
:1002A000C009ACE8C0098D46704710B50446AFF3ED
:1002B00000802046BDE81040FFF781BF004870472E
:1002C000C002002001491820ABBEFEE72600020054
:1002D00070470000014800F0D0B800001000002076
:1002E00070B5044600688168C943C90717D18168A1
:1002F00021F00101816000F03BFD05460AE000BFEE
:1003000000F036FD401B022804D920688068C043F5
:10031000C00706D020688068C043C007F0D0002026
:1003200070BDA06A40F01000A062E06A40F00100D9
:10033000E062012070BDFEE7014800F0BBBA00009A
:1003400040000020014800F0B5BA0000F401002090
:10035000014800F0AFBA0000B0010020014800F0F1
:10036000A9BA000038020020014800F0A3BA00003A
:100370007C020020704772B6FEE77047F8B5002493
:10038000009490F824202546012A12D0012280F8FA
:1003900024204A681F23072A0DD20668776B521E55
:1003A00002EB820293409F430B6893401F437763A5
:1003B00019E00220F8BD06680D2A0AD2376BD21F59
:1003C00002EB820293409F430B6893401F433763C5
:1003D00009E0F76A0D3A02EB820293409F430B68F3
:1003E00093401F43F7620A68072306680A2A0AD364
:1003F000F7680A3A02EB420293409F438B689340AE
:100400001F43F76008E0376902EB420293409F43C5
:100410008B6893401F4337610A68102A01D0112A64
:1004200020D1124B02689A4217D193681B0219D44B
:10043000936843F4000393600968102912D10C49B2
:100440000C4A0968B1FBF2F101EB8101490000E0BF
:10045000491E00910029FBD104E0816A41F020018E
:100460008162012480F824502046F8BD0024014018
:100470000C00002040420F00704770B50446006831
:1004800006684568A90625D5B10723D5A16AC9061E
:1004900003D4A16A41F40071A1628168C1F34241B1
:1004A000072910D1217B71B9416821F020014160F9
:1004B000A06A20F48070A062A06AC00403D4A06A7D
:1004C00040F00100A0622046FFF7D6FF21686FF0E0
:1004D0001200086028062ED570072CD5A06AC00629
:1004E00003D4A06A40F40050A06220688168C1F380
:1004F0000231072909D04168490515D48168C1F343
:100500004241072910D1217B71B9416821F0800156
:100510004160A06A20F48050A062A06AC00503D4A4
:10052000A06A40F00100A0622046FFF726FF216884
:100530006FF00C00086068060CD5F0070AD0A06ABE
:1005400040F48030A062204600F096F821686FF0F9
:100550000100086070BD00002DE9F04104004FF07B
:1005600000057FD0A06A002628B9E66284F82460DE
:10057000204600F083F82046FFF7B2FEA16AC906C4
:1005800000D420B1A06A40F01000A0626AE0A16A25
:1005900021F4885141F00201A162334923688B4262
:1005A000E16904D1B1F5402F01D14FF40021277B3F
:1005B0004FF4807C41EA470261680A43A1686145C3
:1005C00008D0012906D0002194F814E0BEF1010FF3
:1005D00002D00AE06146F7E7C7B1A76A47F02007F3
:1005E000A762E76A47F00107E7625F6827F4694797
:1005F0000F435F60236899681C4F3940114399602D
:10060000A16861450BD0012909D00CE0DFF860E05A
:10061000A7690EEB47370F4347F40061E5E7218AEE
:100620000D05A5F580152168CB6A23F470032B43D3
:10063000CB62216889680F4B1940914208D1E6626C
:10064000A16A21F0020141F00101A162BDE8F0813F
:10065000A06A20F0020040F01000A062E06A40F0C2
:100660000100E0620120F1E7003C0140FDF7E1FFFD
:1006700000E0FFFFFE0E1FFF7047000070B586B060
:1006800000250646009501950295039500682549C9
:10069000884244D12449886940F40070886188699F
:1006A00000F400700490886940F004008861886953
:1006B00000F004000490886940F0080088618869AF
:1006C000032400F0080004900620CDE900046946E8
:1006D000164800F051FA009469461548019400F05C
:1006E0004BFA154C1348C4E900058020C4E90250B8
:1006F00040002061800060612020C4E9060520469A
:1007000000F0FCF908B1FFF736FE34620022114612
:100710001220666200F094FC122000F083FC06B008
:1007200070BD00000024014000100240000801409C
:10073000000C0140080002404000002010B590F875
:1007400021100022022905D00421816380F8202095
:10075000012010BD01680B6823F00E030B600168D7
:100760000B6823F001030B6090F84030C46B01214B
:1007700001FA03F3636080F8211080F8202010460E
:1007800010BD00002DE9F05F90F82110002402292F
:1007900003D004218163012485E001680A6822F006
:1007A0000E020A6001680A6822F001020A603F4EE8
:1007B0003E4FB215DFF8F4C0DFF8F090DFF8ECA0A0
:1007C000DFF8E8B0DFF8E4E00168783F13011502D4
:1007D000ACF1640CA9F15009AAF13C0AABF1280B69
:1007E000AEF1140E4FF48018B14227D9B9420ED0A1
:1007F000614512D049451DD0514518D0594518D0F2
:10080000714501D1424615E0294EB14201D1012284
:1008100010E0274E1436B14201D110220AE0244ED6
:100820002836B14206D0224A3C32914201D11A46C2
:1008300000E02A461E49091F0A602BE0B94213D086
:10084000614517D0494522D051451DD059451DD08D
:10085000714501D142461AE0B14202D14FF0807297
:1008600015E0134EB14201D1012210E0104E1436B2
:10087000B14201D110220AE00D4E2836B14206D015
:100880000B4A3C32914201D11A4600E02A46074900
:1008900080394A60012180F82110002180F8201061
:1008A000416B01B188472046BDE8F09F80000240BF
:1008B000080402402DE9F05FC16B0A6801680B680B
:1008C000046C4FF0040808FA04F8844D844E854FF8
:1008D000DFF814C2DFF81492DFF814A2DFF814B2C4
:1008E000DFF814E218EA020F65D05FEA437862D5B8
:1008F0000A68920603D40A6822F004020A60DFF84C
:10090000F0814FF48062016808F1140813011402A9
:10091000414524D9A9420DD0B1420FD0B9421AD0D5
:10092000614515D0494515D0514501D1120312E05A
:10093000594501D104220EE0714501D140220AE05F
:100940006D4D1435A94206D06B4A2832914201D12F
:100950001A4600E022466749091F0A6029E0A942B9
:1009600013D0B14215D0B94220D061451BD04945C2
:100970001BD0514502D14FF4800217E0414502D10E
:100980004FF0806212E0594501D104220EE071451A
:1009900001D140220AE0584D1435A94206D0564AEA
:1009A0002832914201D11A4600E022464B490839CB
:1009B0004A60C16A71E04FF0020808FA04F818EAC8
:1009C000020F70D05FEA83786DD50A68920606D46C
:1009D0000A6822F00A020A60012180F82110DFF87B
:1009E00010814FF40072016808F114081301140219
:1009F000414524D9A9420DD0B1420FD0B9421AD0F5
:100A0000614515D0494515D0514501D1120312E079
:100A1000594501D102220EE0714501D120220AE0A0
:100A2000354D1435A94206D0334A2832914201D1BE
:100A30001A4600E022462F49091F0A6029E0A94210
:100A400013D0B14215D0B94220D061451BD04945E1
:100A50001BD0514502D14FF4001217E0414502D19D
:100A60004FF0007212E0594501D102220EE07145AB
:100A700001D120220AE0204D1435A94206D01E4A99
:100A80002832914201D11A4600E022461349083922
:100A90004A60002180F82010816A00291CD0BDE83E
:100AA000F05F0847FFE70825A540154214D01A0754
:100AB00012D50A6822F00E020A6090F84020C36B3B
:100AC000012101FA02F25A60816380F821100021AD
:100AD00080F82010016BE0E7BDE8F09F08000240BD
:100AE0001C00024030000240440002405800024016
:100AF0006C000240080402401C04024030B560B1A2
:100B00001A4B026814219A4209D2194B1344B3FBC1
:100B1000F1F18900016417490AE0012030BD134B4F
:100B20005B421344B3FBF1F1890001640F490839BA
:100B3000C163022180F82110136843F6F0718B43E2
:100B4000F0E901142143D0E902452C432143046913
:100B500021434469214384692143194311600021E1
:100B60004163012242770177084630BD0804024004
:100B7000F8FFFDBF000002402DE9F84FDFF8C891F3
:100B80000024A9F1040B23460F2709F1040AABF155
:100B9000040ED1E00125A54006EA0502AA4276D15D
:100BA000DFF8A8C14E68A6EB0C0866452BD00DDC1B
:100BB000032E34D005DC36B3012E19D0022E2FD1EE
:100BC0001BE0112E16D0122E2AD119E0B8F5881F7D
:100BD00019D006DCB8F5803F15D0B8F5801F1FD1BD
:100BE00011E0B8F5001F0ED0B8F5041F18D10AE0C7
:100BF000CB6815E0CB681B1D12E0CB6808330FE013
:100C0000CB680C330CE08B682BB1012B4FF0080341
:100C100003D0456104E0042302E0056100E0002305
:100C2000FF2A01D8064601E000F104064FEA8405D8
:100C300001D9A5F12005D6F8008007FA05FC28EABD
:100C40000C0803FA05F548EA0508C6F800804D6867
:100C5000ED0070D53E4DAE6946F00106AE61AD695E
:100C600024F0030605F0010500953A4D06EB050C4E
:100C7000DCF80850A607360F07FA06F825EA08053B
:100C8000DFF8D480404503D14FF0000825E052E062
:100C9000DFF8C880404502D14FF001081DE0DFF8C1
:100CA000C080404502D14FF0020816E0DFF8B48062
:100CB000404502D14FF003080FE0DFF8AC8040451B
:100CC00002D14FF0040808E0DFF8A080404502D1CF
:100CD0004FF0050801E04FF0060808FA06F848EA68
:100CE0000508CCF808804D68D9F80060ED024D4643
:100CF00001D5164300E096432E604D68DAF8006097
:100D0000AD02554601D5164300E096432E604D686E
:100D1000DBF80060AD035D4601D5164300E0964365
:100D20002E604D68DEF80060ED03754601D5164370
:100D300000E096432E60641C0A681646E2407FF489
:100D400029AFBDE8F88F0000080401400000111031
:100D5000001002400000014000080140000C01406A
:100D6000001001400014014000180140001C014027
:100D700001488068704700000000002070B5040042
:100D800025D094F83D00002520B984F83C50204639
:100D900000F0B8F8242084F83D002068016821F0B4
:100DA000010101602068016841F400410160206890
:100DB000016821F40041016000F080FA4D4A616849
:100DC000914201D84C4900E04C49884201D20120AF
:100DD00070BD4B492368B0FBF1F15E6826F03F0619
:100DE0000E435E606368934206D94FF4967359438D
:100DF0004FF47A73B1FBF3F12368491C1E6A26F0A5
:100E00003F06314319626168914210D84900401E83
:100E1000B0FBF1F2521CC2F30B02042A01D20420EF
:100E200022E0B0FBF1F0401CC0F30B001CE0A26814
:100E3000F2B301EBC10303EB0116431EB3FBF6F360
:100E40005B1C43F480431B0549D092B301EBC10204
:100E500002EB0111401EB0FBF1F0401CC0F30B008F
:100E600040F4804040F400402168CA694CF6FF73AA
:100E70009A431043C861D4E907100143206802680F
:100E800022F0C00211430160D4E90301014320684C
:100E9000826848F2FF339A4311438160D4E9050127
:100EA00008432168CA6822F0FF021043C86001E0CD
:100EB0000EE016E02068016841F001010160256440
:100EC000202084F83D00256384F83E50002070BD4A
:100ED00001EB4106431EB3FBF6F35B1CB3E70120B5
:100EE000C2E701EB4101401EB0FBF1F0401CC0F332
:100EF0000B00B7E7A086010080841E0000093D00BA
:100F000040420F0010B586B000210091019102917E
:100F1000039100681349884222D1134CA06940F024
:100F20000800A061A069694600F0080004904FF431
:100F30004070009012200190032003900B48FFF7AF
:100F40001BFE0B48416841F0E06141F00201416045
:100F5000E06940F40010E061E06900F400100490E2
:100F600006B010BD0054004000100240000C0140CB
:100F70000000014002488168027811448160704796
:100F800000000020074810B5016841F01001016021
:100F9000032000F075F80F2000F006F800F024F8A8
:100FA000002010BD0020024070B50D4D04464FF4E6
:100FB0007A712878B1FBF0F00A490968B1FBF0F0CA
:100FC00000F052FB48B9102C07D200222146501ED7
:100FD00000F036F800206C6070BD012070BD00008C
:100FE000000000200C0000200C4808B5816941F089
:100FF00001018161816901F001010091C16941F044
:101000008051C161C06900F080500090044841687F
:1010100021F0E06141F00071416008BD0010024024
:1010200000000140002809DB00F01F02012191406F
:101030004009800000F1E020C0F800117047000076
:10104000F0B40E4B1B680C46C3F30223C3F1070533
:10105000042D00D90425191D072901D2002300E021
:10106000DB1E012606FA05F1491E214099409E40EB
:10107000761E16403143F0BC01F015BA0CED00E0CD
:10108000064900F0070208684FF6FF03184040EADF
:101090000220034A10430860704700000CED00E096
:1010A0000000FA052DE9F84305460078354CC007E5
:1010B00054D0E0690026C00008D4E06940F08050B8
:1010C000E061E069012600F0805000902E48016840
:1010D000C90512D40168804641F480710160FFF7B0
:1010E00047FE074605E000BFFFF742FEC01B64282D
:1010F00023D8D8F80000C005F6D5206A10F4407057
:1011000021D0A98801F4407181421CD0206A1F4976
:10111000012220F440700A6000220A602062C007A9
:1011200011D0FFF725FE074641F2883808E000BFDE
:10113000FFF71EFEC11B414502D90320BDE8F8831D
:10114000206A8007F4D5206A696820F4407008435B
:1011500020621EB1E06920F08050E06128788007AD
:1011600005D56068A96820F440400843606028788D
:10117000C00605D56068696920F480000843606096
:101180000020DBE7001002400070004040044242B3
:101190002DE9F0470F46050061D0434E306800F05E
:1011A0000700B84209D2306820F0070038433060A9
:1011B000306800F00700B84251D128683B4C8107E5
:1011C00012D5400703D5606840F4E060606028787D
:1011D000000703D5606840F4605060606068A968EB
:1011E00020F0F000084360602878C00728D06868C5
:1011F000012810D02168022810D0890700292EDA92
:10120000616821F0030101436160FFF7B1FD804691
:1012100041F288390DE021688903EFE78901EDE7A4
:10122000FFF7A6FDA0EB0801494502D90320BDE860
:10123000F0876068696800F00C00B0EB810FEFD1B7
:10124000306800F00700B8420BD9306820F0070082
:1012500038433060306800F00700B84201D0012008
:10126000E5E72878400705D56068E96820F4E06084
:10127000084360602878000706D56068296920F473
:10128000605040EAC100606000F038F86168084AC8
:10129000C1F30311515CC840064908600648006864
:1012A000FFF782FE0020C2E700200240001002404B
:1012B000FE2400080C00002004000020044805491A
:1012C00000684968044AC1F30221515CC840704774
:1012D0000C000020001002400E25000804480549BB
:1012E00000684968044AC1F3C221515CC840704794
:1012F0000C000020001002400E2500080E4A516824
:101300000E4801F00C03042B11D0082B0FD10C4810
:10131000C1F38343C903C05C0AD55168084AC1F3CD
:101320004041921E515C054A5043B0FBF1F07047BA
:1013300004494843704700000010024000127A0040
:10134000EE24000800093D002DE9F84F040070D09C
:101350002078C04DC00749D06868C0F381000128DB
:1013600007D06868C0F38100022809D16868C0030B
:1013700006D52868800339D560680028E7D035E0B5
:101380006068B0F5803F0BD010B1B0F5A02F11D040
:10139000286820F480302860286820F4802002E04B
:1013A000286840F480302860606890B1FFF7E0FC66
:1013B00006460AE0286840F480202860F0E700BF75
:1013C000FFF7D6FC801B642873D828688003F7D504
:1013D0000CE0FFF7CDFC064605E000BFFFF7C8FCB8
:1013E000801B6428F0D828688003F7D420789A4EB0
:1013F00080074FF001094FF0000839D5686810F0F8
:101400000C0F07D06868C0F38100022809D1686812
:10141000C00306D42868800714D52069012808D1A4
:1014200010E02069B0B1C6F80090FFF7A1FC0746B4
:1014300005E00AE1FFF79CFCC01B0228C4D828681D
:101440008007F7D52868616920F0F80040EAC100FC
:1014500028600DE0C6F80080FFF78AFC074604E02C
:10146000FFF786FCC01B022823D828688007F7D422
:10147000207800072CD57948A169D9B1C0F800902F
:10148000FFF776FC074604E0FFF772FCC01B02285A
:101490000FD8686A8007F7D571484FF4FA51006891
:1014A000B0FBF1F0009000BF0098411E0091FAD20D
:1014B0000EE080E0C0F80080FFF75AFC074604E029
:1014C000FFF756FCC01B022875D8686A8007F7D45E
:1014D0002078400760D5E8690027C00008D4E86993
:1014E00040F08050E861E869012700F080500090EA
:1014F0005C480168C90513D40168834641F48071D2
:101500000160FFF735FC824606E000BFFFF730FCC4
:10151000A0EB0A0064284ED8DBF80000C005F5D522
:10152000E06801280AD008B1052813D0286A20F005
:1015300001002862286A20F0040002E0286A40F0D6
:1015400001002862E06841F2883B98B1FFF710FC87
:1015500082460BE0286A40F004002862EEE700BFF4
:10156000FFF706FCA0EB0A0159455AD8286A800704
:10157000F6D50CE0FFF7FCFB824605E0FFF7F8FB31
:10158000A0EB0A0159454CD8286A8007F6D41FB150
:10159000E86920F08050E861E06988B36968C1F3C8
:1015A0008101022944D00228C6F8608004D0FFF7E8
:1015B000DFFB044638E034E0FFF7DAFB074604E0DF
:1015C000FFF7D6FBC01B02282BD828688001F7D470
:1015D000206AB0F5803F05D16868A16820F400302A
:1015E00008436860D4E908010843696821F474116C
:1015F00008436860C6F86090FFF7BAFB044606E04F
:1016000025E000BFFFF7B4FB001B022809D82868BB
:101610008001F7D51BE000BFFFF7AAFB001B0228E3
:1016200002D90320BDE8F88F28688001F4D40EE0C9
:101630000128F7D06868226A00F48031914204D111
:10164000616A00F47010884201D00120EAE70020AE
:10165000E8E70000001002400000424280044242DD
:101660000C0000200070004010B5401EB0F1807FDB
:1016700001D3012010BD4FF0E02460610F216017FD
:1016800000F011FF0020A06107202061002010BDA4
:101690007047704770B590F83C20012A2CD0012487
:1016A00080F83C40022280F83D2003685A689D681B
:1016B00022F070060A6832435A60104B02689A4260
:1016C0000ED00F4B9A420BD0B2F1804F08D00D4B89
:1016D0009A4205D00C4B9A4202D00C4B9A4204D14C
:1016E000496825F080031943916080F83D4000214E
:1016F00080F83C10084670BD022070BD002C0140EF
:10170000003401400004004000080040000C00408C
:1017100010B5040003D094F83D0010B107E001209B
:1017200010BD002084F83C00204600F01FF8022085
:1017300084F83D00211D206800F038FD012084F868
:10174000460084F83E0084F83F0084F8400084F8A6
:10175000410084F8420084F8430084F8440084F88F
:10176000450084F83D00002010BD000008B5006869
:101770000B49884212D10B48816941F400618161B3
:101780008069002200F40060009011461920FFF7E4
:1017900057FCBDE808401920FFF744BC08BD000015
:1017A000002C01400010024070B5044690F83C0047
:1017B0000025012817D0012684F83C60022084F817
:1017C0003D002068826822F0770222F47F42826026
:1017D0000868502838D00DDC20284FD005DC90B3A5
:1017E000102811D14AE0022070BD302846D0402890
:1017F0000AD13BE060282FD070280DD0B0F5805F73
:1018000003D0B0F5005F12D0012584F83D600020C0
:1018100084F83C00284670BDCB68D1E901212068DE
:1018200000F012FD2068816841F0770109E0CB6883
:10183000D1E90121206800F007FD2068816841F4AA
:1018400080418160E1E719E0CA684968206800F0DA
:101850000DFD5021206806E0CA684968206800F044
:1018600016FD6021206800F0F9FCCEE7CA684968DF
:10187000206800F0FBFC40212068F4E72268014664
:101880001046F0E770472DE9F04104460068C6684D
:1018900005694FF00007A90713D5B10711D5F91E47
:1018A000016101202077206880698007204602D0EE
:1018B000FFF7E8FF04E000F07EF8204600F07CF837
:1018C0002777680716D5700714D521686FF00400D4
:1018D0000861022020772068806910F4407F20464C
:1018E00002D0FFF7CFFF04E000F065F8204600F0DB
:1018F00063F82777280715D5300713D521686FF0CF
:1019000008000861042020772068C069800720460D
:1019100002D0FFF7B7FF04E000F04DF8204600F0DA
:101920004BF82777E80616D5F00614D521686FF036
:1019300010000861082020772068C06910F4407FFB
:10194000204602D0FFF79EFF04E000F034F8204666
:1019500000F032F82777E80708D0F00706D02168B2
:101960006FF001000861204600F027F8280608D52E
:10197000300606D521686FF0800008612046FFF729
:1019800087FE680608D5700606D521686FF040000E
:101990000861204600F012F8A8060AD5B00608D55E
:1019A00021686FF0200008612046BDE8F041FFF794
:1019B00070BEBDE8F0817047704770477047704750
:1019C00070470000F8B5016804460868CA684B69AA
:1019D00010F00F0F4FF0000559D003F0010602F48C
:1019E0009077374365D0C10705D0D10503D5616C29
:1019F00041F001016164410705D5D90703D0616C4D
:101A000041F002016164810705D5D90703D0616CFB
:101A100041F004016164010707D502F02001314360
:101A200003D0616C41F008016164616C00293AD017
:101A3000800604D5900602D5204600F069FC206897
:101A40004069616CC0F38010090700D460B3204680
:101A500000F037FC20684069400621D5206814302A
:101A600050E8001F21F0400140E80012002AF5D1A3
:101A7000E06BA8B16D494163E06BFEF783FE00287F
:101A800011D0E06B416B01B0BDE8F0400847830620
:101A90000FD593060DD52046BDE8F84000F038BCC0
:101AA0002046FFF78DFFF8BD2046FFF789FF6564EC
:101AB000F8BD266B2023012E7CD1C6067AD5D6062A
:101AC00078D508684868009048694FF002064006DB
:101AD00040D5E16B086840680004000CE8D0A28D96
:101AE0008242E5D9E085886920282DD020680C3015
:101AF00050E8001F21F4807140E80012002AF5D15F
:101B00002068143050E8001F21F0010140E8001265
:101B1000002AF5D12068143050E8001F21F0400160
:101B200040E80012002AF5D184F84230256320688D
:101B30000C3050E8001F21F0100140E80012002A8C
:101B4000F5D1E06BFEF7FAFD6663A08DE18D401ADA
:101B500081B22AE0A08DE18D401A81B2E08D00288B
:101B6000A6D00029A4D022680C3252E8000F20F43D
:101B7000907042E80007002FF5D12068143050E83B
:101B8000002F22F0010240E80027002FF5D184F851
:101B90004230256320680C3050E8002F22F01002FC
:101BA00040E80023002BF5D166632046FFF707FFCE
:101BB000F8BDFFE705062BD5150629D594F8410099
:101BC0002128F5D1A068B0F5805F01D12069B0B1BE
:101BD000206A411C2162216800784860E08C401E28
:101BE0000004000CE084E3D12068C16821F080018A
:101BF000C1602068C16841F04001C160D8E7206A37
:101C00000088C0F308004860206A801C2062E5E775
:101C10004006CDD55006CBD5CA68204622F04002FA
:101C2000CA6084F8413000F010F9C1E7B32200081F
:101C300070B5040004D094F84100002510B106E00E
:101C4000012070BD84F84050204600F023F8242085
:101C500084F841002068C16821F40051C160204629
:101C600000F0B8FB2068016921F49041016120680F
:101C7000416921F02A0141612068C16841F40051A5
:101C8000C1606564202084F8410084F842006563E7
:101C9000002070BD2DE9F04786B000250095019524
:101CA000029503950446DFF880C103685F4840272A
:101CB000022103225E4E4FF010094FF08008634569
:101CC00053D1836943F480438361836903F4804380
:101CD0000493836943F0080383618069CDE900714F
:101CE00000F00800CDE90320DFF848A1694650461E
:101CF000FEF742FFCDE9008547466946504602950A
:101D0000FEF73AFF706840F0E06040F00400706059
:101D10004A4E4948C6E90005C6E902573561756172
:101D2000B5613046F561FEF7E9FE08B1FEF723FB29
:101D3000E6637462414E404844361438C6E902579F
:101D400035617561B561F561C6E900093046FEF798
:101D5000D5FE08B1FEF70FFBA66300221146252031
:101D60007462FFF76DF9252059E0DFF8D4C06345B0
:101D700057D1C36943F40033C361C36903F400332B
:101D80000493836943F0200383618069DFF8B4A082
:101D900000F0200004902020CDE900010392694664
:101DA0005046FEF7E9FECDE90075694650460295BA
:101DB000FEF7E2FE706840F0E06040F008007060FE
:101DC0001E4E1D4888361430C6E90005C6E9025883
:101DD00035617561B56147463046F561FEF78EFEA7
:101DE00008B1FEF7C8FAE6637462144E1248CC36A6
:101DF0002830C6E9025735617561B561F561C6E9FC
:101E000000093046FEF77AFE08B1FEF7B4FAA66381
:101E10000022114626207462FFF712F92620FFF7F0
:101E200001F906B0BDE8F08700380140001002401B
:101E300000000140000C014058000240B0010020A9
:101E4000004400400014014070477047FEE7000066
:101E50003EB500212148009101911F4A0291026084
:101E60009215826001240473017504254FF46022E9
:101E70000561C2614160FEF76FFB08B1FEF77BFAB6
:101E8000009401940224694614480294FEF776FAFD
:101E900008B1FEF770FA0094694610480194FEF705
:101EA0006DFA08B1FEF767FA082000900320019050
:101EB00069460A48FEF762FA08B1FEF75CFA0920A3
:101EC000CDE9000569460548FEF758FA002801D01B
:101ED000FEF751FA3EBD0000002401401000002032
:101EE000194808B5416941F001014161406900228A
:101EF00000F00100009011460B20FFF7A1F80B2025
:101F0000FFF790F8002211460E20FFF799F80E20F7
:101F1000FFF788F8002211460F20FFF791F80F20F5
:101F2000FFF780F8002211461020FFF789F81020F3
:101F3000FFF778F8002211461120FFF781F8BDE87D
:101F400008401120FFF76EB80010024070B586B04F
:101F50000024274801940394816941F04001816184
:101F6000816901F040010491816941F010018161B2
:101F7000816901F010010491816941F004018161DE
:101F8000816901F004010491816941F008018161D6
:101F9000816901F008010491816941F020018161AA
:101FA0008069144E00F02000049028200125009044
:101FB000694602953046FEF7DFFD4FF4C0608DE8BC
:101FC000310069460C48FEF7D7FD4FF4E0608DE81C
:101FD000310069460948FEF7CFFD0221CDE9001422
:101FE000029169463046FEF7C7FD06B070BD00009D
:101FF000001002400018014000100140000801409C
:102000000D4810B50B4901600C49416000214FF4A7
:1020100080428160C0E9031241618161C161016256
:10202000FEF7ACFE002803D0BDE81040FEF7A3B9D0
:1020300010BD00000054004084000020A086010074
:1020400010B586B0002417480094019402940394BC
:1020500004941349059401604721C0E9011440F23A
:10206000E731C0E9031444618461FFF751FB08B113
:10207000FEF781F94FF48050009069460948FFF758
:1020800093FB08B1FEF777F9049404A90548059479
:10209000FFF700FB002801D0FEF76DF906B010BD78
:1020A000002C0140D80000200C4810B50A490160FE
:1020B0004FF4E1314160002181600C22C160C0E930
:1020C00004128161C161FFF7B3FD002803D0BDE8B0
:1020D0001040FEF750B910BD00380140200100202B
:1020E0000C4810B50A4901604FF4E131416000210C
:1020F00081600C22C160C0E904128161C161FFF7F7
:1021000097FD002803D0BDE81040FEF734B910BD9C
:102110000044004068010020FEE7FEE7704770477A
:10212000FEF728BF30B595B028216846FEF76EF857
:1021300014210AA8FEF76AF818210FA8FEF766F81E
:1021400001210804CDE90010002502950224049124
:10215000CDE907404FF4E01009906846FFF7F4F826
:1021600008B172B6FEE70AA90F2081E831004FF4EA
:102170008060CDE90D0502210AA8FFF709F808B132
:1021800072B6FEE74FF4004011900F940FA8FEF7CF
:1021900089FF002801D072B6FEE715B030BD704748
:1021A0000148FFF770BB0000D8000020F0B50268BE
:1021B000204C214D214E224F224B4FF0804CA0420B
:1021C00009D0984207D0604505D0A84203D0B0425C
:1021D00001D0B84204D122F0700E4A6842EA0E02E1
:1021E000A04209D0984207D0604505D0A84203D04C
:1021F000B04201D0B84203D122F44075CA682A43E4
:102200004D6922F080022A4302608A68C2620A682D
:102210008262A04201D0984201D109690163012183
:1022200041610169C90703D0016921F00101016120
:10223000F0BD0000002C01400004004000080040F8
:10224000000C00400034014010B5846842EA0322CB
:1022500024F47F440A432243826010BD826822F046
:1022600070020A4342F007018160704710B5036AAB
:10227000046A24F001040462846924F0F00444EA4E
:10228000021423F00A020A438461026210BD10B5F1
:10229000036A046A24F010040462846923F0A00332
:1022A00024F4704444EA023243EA0111826101627B
:1022B00010BD10B5406A0021C185C184FFF780FBC5
:1022C00010BD01680C3151E8002F22F4907241E8F2
:1022D0000023002BF5D10168143151E8002F22F0C2
:1022E000010241E80023002BF5D1016B012909D13E
:1022F00001680C3151E8002F22F0100241E8002360
:10230000002BF5D1202180F8421000210163704795
:1023100008B590F84210222901D0022008BD826839
:102320004FF480539A4201D1016921B1816A9A42E6
:102330001BD04AB10AE00268816A5268C2F30802FF
:102340000A80816A891C08E0026972B102685268D9
:1023500002F07F020A70816A491C8162C18D491EA8
:102360000904090CC18503D01BE002685268F1E73B
:102370000168CA6822F02002CA600168CA6822F4B3
:102380008072CA6001684A6922F001024A61202114
:1023900080F8421000214163026B012A03D0FFF74D
:1023A00053FD002008BD016301680C3151E8002F86
:1023B00022F0100241E80023002BF5D101680A68E1
:1023C000D20602D50A6849680091818DFFF7F7FAB5
:1023D000E7E7000070B5044600680169E26821F48F
:1023E0004051114301612169A068084361690843B4
:1023F0002168CA6841F20C639A430243CA602068AC
:102400004169A26921F44071114341611E4920686C
:10241000884202D1FEF762FF01E0FEF74FFF00EBBA
:10242000C00101EB0012606864218000B2FBF0F390
:10243000B3FBF1F36FF018067343B2FBF0F5B2FB98
:10244000F0F605EB8305322303EB0515B5FBF1F53B
:10245000B6FBF1F605F0F00505EB0615B2FBF0F65C
:10246000B2FBF0F0B0FBF1F06FF01802504306EB56
:10247000800003EB0010B0FBF1F0216800F00F00CA
:102480002844886070BD0000003801400148FFF713
:1024900099BA0000200100200148FFF793BA00001C
:1024A00068010020FEE70907090E002804DB00F19F
:1024B000E02080F80014704700F00F0000F1E020E9
:1024C00080F8141D7047FEF75DFDFFF72BFEFFF748
:1024D0003DFDFFF705FDFFF7BBFCFFF7E5FDFFF74F
:1024E000AFFDFFF7FDFDFFF78BFDFEE701020203E5
:1024F0000405060708090A0B0C0D0E0F101000004A
:1025000000000000000001020304060708090000A3
:10251000000001020304000038250008000000202C
:10252000100000006C010008482500081000002081
:1025300010090000880100080100000010000000E0
:082540000000000000127A0007
:0400000508000131BD
:00000001FF
