:020000040800F2
:10000000786000242D040008D3520008E94E00084F
:10001000D15200086B070008356700080000000097
:100020000000000000000000000000006D03000858
:10003000E50B000800000000C90300080555000892
:100040004B0400084B0400084B0400084B04000854
:100050004B0400084B0400084B0400084B04000844
:100060004B0400084B0400084B0400086D0700080F
:100070007907000885070008910700084B0400086D
:100080004B0400084B0400084B0400084B04000814
:100090004B0400084B0400084B0400084B04000804
:1000A0004B0400084B0400084B0400084B040008F4
:1000B0004B0400084B0400084B0400084B040008E4
:1000C0004B0400084B0400084B0400084B040008D4
:1000D0004B040008296700084B0400084B04000883
:1000E0004B0400084B040008000000004B0400080B
:1000F0004B0400084B0400084B0400084B040008A4
:100100004B0400084B0400084B0400084B04000893
:100110004B0400084B0400084B0400084B04000883
:100120004B0400084B0400084B0400084B04000873
:100130004B0400084B0400084B0400084B04000863
:1001400000000000000000000000000000000000AF
:100150004B0400084B0400084B0400084B04000843
:100160004B0400084B0400084B0400084B04000833
:100170004B0400084B0400084B040008000000007A
:100180004B0400084B0400084B0400084B04000813
:100190004B0400084B0400084B0400084B04000803
:1001A0004B0400084B0400084B040008000000004A
:1001B0004B0400084B0400084B0400084B040008E3
:1001C0004B0400084B040008000000000000000081
:1001D00000000000000000004B04000800000000C8
:1001E000000000000000000000000000000000000F
:1001F00000000000000000004B0400084B04000851
:100200004B0400084B040008000000004B040008E9
:100210004B0400088D5600084B0400084B040008EE
:100220004B040008000000004B0400080000000020
:100230004B0400084B040008000000004B040008B9
:100240004B0400084B0400084B0400084B04000852
:100250004B0400084B0400084B0400084B04000842
:100260004B0400084B0400084B0400084B04000832
:100270004B0400084B0400084B0400080000000079
:100280004B0400084B0400084B0400084B04000812
:10029000000000004B0400084B04000800000000B0
:1002A000000000004B0400084B0400084B04000849
:1002B0004B0400084B0400084B040008090C00081C
:1002C000150C00084B0400084B04000800F002F86D
:1002D00000F03CF80AA090E8000C82448344AAF1A4
:1002E0000107DA4501D100F031F8AFF2090EBAE8A2
:1002F0000F0013F0010F18BFFB1A43F0010318475A
:100300004C8300006C830000103A24BF78C878C189
:10031000FAD8520724BF30C830C144BF04680C600B
:10032000704700000023002400250026103A28BF53
:1003300078C1FBD8520728BF30C148BF0B60704757
:100340001FB507F0FFFF1FBD10B510BD00F0D8F9B5
:100350001146FFF7F5FF06F0DDFB00F0F6F903B4F8
:10036000FFF7F2FF03BC00F0F9F900002C4B19680D
:100370000868B0E8F04F80F30988BFF36F8F4FF043
:10038000000080F3118870470000000008480068F2
:10039000006880F308884FF0000080F3148862B68C
:1003A00061B6BFF34F8FBFF36F8F00DF00BF00BF99
:1003B00008ED00E0DFF80C00016841F47001016015
:1003C000704700BF88ED00E0EFF30980BFF36F8F47
:1003D000134B1A681EF0100F08BF20ED108A20E999
:1003E000F04F106009B44FF0500080F31188BFF354
:1003F0004F8FBFF36F8F07F075FA4FF0000080F357
:10040000118809BC19680868B0E8F04F1EF0100F99
:1004100008BFB0EC108A80F30988BFF36F8F704774
:100420001C000024EFF30580704700000A48804755
:100430000A4880470A480047FEE7FEE7FEE7FEE776
:10044000FEE7FEE7FEE7FEE7FEE7FEE705480649B2
:10045000064A074B70470000ED0B0008B555000831
:10046000CD020008785400247860002478580024D5
:100470007858002453EA020C00F069802DE9F04B13
:100480004FF00006002B1FBFB3FA83F503FA05F403
:1004900024FA05F65E4012BF1643B2FA82F502FA5C
:1004A00005F4C5F120051EBF22FA05FC44EA0C0440
:1004B000203556EA044C4FEA144418BF641C4FF030
:1004C00000084FF00009904271EB030C39D300296A
:1004D00019BFB1FA81F701FA07F6B0FA80F700FA0E
:1004E00007F6C7F120071EBF20FA07FC46EA0C06F4
:1004F0002037B6FBF4FCA7EB0507103F07F01F0BF6
:10050000CBF120060CFA0BFB2CFA06F644BFB346DF
:100510000026202FA4BF5E464FF0000B5BEA060CBE
:1005200008BF4FF0010B19EB0B09ABFB027C48EB4A
:100530000608C01B06FB02CC0BFB03CC71EB0C01C5
:10054000C1E70B46024641464846BDE8F08B13B56D
:100550004FF000004FF00001AFF30080BDE81C40F9
:100560007047032A40F2308010F0030C00F0158031
:1005700011F8013BBCF1020F624498BF11F801CBA6
:1005800000F8013B38BF11F8013BA2F1040298BF0B
:1005900000F801CB38BF00F8013B11F0030300F075
:1005A0002580083AC0F0088051F8043B083A51F819
:1005B00004CBA0E80810F5E7121D5CBF51F8043B1E
:1005C00040F8043BAFF30080D20724BF11F8013B91
:1005D00011F801CB48BF11F8012B24BF00F8013BF3
:1005E00000F801CB48BF00F8012B704710B5203A46
:1005F000C0F00B80B1E81850203AA0E81850B1E8DC
:100600001850A0E81850BFF4F5AF5FEA027C24BF91
:10061000B1E81850A0E8185044BF18C918C0BDE888
:1006200010405FEA827C24BF51F8043B40F8043B51
:1006300008BF7047D20728BF31F8023B48BF11F806
:10064000012B28BF20F8023B48BF00F8012B704760
:1006500002F0FF0343EA032242EA024200F002B83A
:100660004FF000020429C0F0128010F0030C00F0DB
:100670001B80CCF1040CBCF1020F18BF00F8012B59
:10068000A8BF20F8022BA1EB0C0100F00DB85FEA27
:10069000C17C24BF00F8012B00F8012B48BF00F8F3
:1006A000012B70474FF0000200B513469446964662
:1006B000203922BFA0E80C50A0E80C50B1F1200175
:1006C000BFF4F7AF090728BFA0E80C5048BF0CC023
:1006D0005DF804EB890028BF40F8042B08BF704781
:1006E00048BF20F8022B11F0804F18BF00F8012BF3
:1006F0007047704770477047004870471454002493
:100700007546FFF7F9FFAE4605006946534620F0EF
:100710000700854618B020B5FFF798FEBDE82040D9
:100720004FF000064FF000074FF000084FF0000BAD
:1007300021F00701AC46ACE8C009ACE8C009ACE860
:10074000C009ACE8C0098D46704710B50446AFF348
:1007500000802046BDE81040FFF701BE0149182087
:10076000ABBEFEE7260002007047FEE7014800F03E
:1007700095BE000004040024014800F08FBE000074
:100780007C040024014800F089BE0000140300240A
:10079000014800F083BE00008C03002410B52A4AF3
:1007A000016891423AD0284A1832914236D0264AFE
:1007B0003032914232D0244A483291422ED0224ADD
:1007C000603291422AD0204A7832914226D01E4A85
:1007D0009032914222D01C4AA83291421ED01B4A2C
:1007E00091421BD0194A1832914217D0174A303221
:1007F000914213D0154A483291420FD0134A6032C9
:1008000091420BD0114A7832914207D00F4A903270
:10081000914203D00D4AA832914211D1CAB20C4C78
:100820001823103AB2FBF3F26FF3090102F0070349
:10083000032AE35CC36500D9091D8165084610BD24
:1008400021F0FF01F9E7000010000240100402400F
:100850009883000810B501680123224CCAB2A14256
:100860001BD0204C1434A14217D01E4C2834A14276
:1008700013D01C4C3C34A1420FD01A4C5034A1422E
:100880000BD0184C6434A14207D0164C7834A142E6
:1008900003D0144C8C34A1420FD11421083AB2FB7E
:1008A000F1F1114A02EB810202660F4A01F01F01C9
:1008B00080328B40C0E9192310BD1824103AB2FBD6
:1008C000F4F20A4C2144A82900D80832084901EB67
:1008D0008201016606498031416602F01F018B40AA
:1008E000836610BD0854025800580258F0FBFDBF43
:1008F0000008024010B50279531E072B30D8194C5E
:100900000168A1421BD0174C1434A14217D0154CDA
:100910002834A14213D0134C3C34A1420FD0114CC7
:100920005034A1420BD00F4C6434A14207D00D4C7F
:100930007834A14203D00B4C8C34A14206D10A4931
:1009400001EB8201C1660849443105E0074901EB2A
:100950008201C1660549443101670121994041671F
:1009600010BD000008540258FC580258FC08024010
:10097000014610B500208B694FF0C0748A6A53B1EC
:10098000B3F5005F15D072B1012A0CD0022A0AD04B
:10099000032A09D104E01AB1012A06D0022A03D1A0
:1009A000C96AC90100D5012010BDC96AA142FAD0A7
:1009B00010BD002AF7D0012AF2D0022AF3D0032A70
:1009C000F3D010BD2DE9F04F834E834FDFF808C2FE
:1009D0004836DFF80492DFF800A20CF1180CDFF8BB
:1009E000F8B109F13009DFF8F0E10AF1600A0468B2
:1009F0000BF1780B856D0EF1900EBC426DD0644505
:100A00006BD04C4569D0B44267D0544565D05C4545
:100A100063D0744561D0DFF8C08108F1A80844456F
:100A20005BD0DFF8B881444557D0DFF8B08108F1DA
:100A30001808444551D0DFF8A48108F13008444536
:100A40004BD0DFF8988108F14808444545D0DFF8DD
:100A50008C8108F1600844453FD0DFF8808108F1BF
:100A60007808444539D0DFF8748108F1900844458E
:100A700033D0DFF8688108F1A80844452DD0DFF8AD
:100A80006081444529D0DFF8588108F114084445B5
:100A900023D0DFF84C8108F1280844451DD0DFF849
:100AA000408108F13C08444517D0DFF8348108F153
:100AB0005008444511D0DFF8288108F16408444506
:100AC0000BD0DFF81C8108F17808444505D0DFF829
:100AD000108108F18C08444509D1D0E91948C4F8BF
:100AE0000480C46E1CB1D0E91C48C4F804800468BA
:100AF000BC422ED064452CD04C452AD0B44228D0DC
:100B0000544526D05C4524D0744522D0324EA836B8
:100B1000B4421ED0314EB4421BD0304E1836B442CF
:100B200017D02E4E3036B44213D02C4E4836B44235
:100B30000FD02A4E6036B4420BD0284E7836B442DD
:100B400007D0264E9036B44203D0244EA836B44285
:100B500015D190F85C4004F01F063F24B440AC600F
:100B60000468256825F4802525602EE09A600068D9
:100B7000C160BDE8F08F99600068C260F9E7184E67
:100B8000B4421BD0164E1436B44217D0144E283639
:100B9000B44213D0124E3C36B4420FD0104E5036F1
:100BA000B4420BD00E4E6436B44207D00C4E7836A9
:100BB000B44203D00A4E8C36B442DAD190F85C408D
:100BC00004F01F060124B4406C600468636083680D
:100BD000402B0368CFD1C9E7100002401004024047
:100BE00008540258704772B6FEE7000005480168D5
:100BF00041F0020101600348083801688904FCD50E
:100C0000704700000C480258014801F0A9BB0000E1
:100C10004C010024014801F0A3BB00004C0100245A
:100C200030B50368426B53F8844F4FF6FC718C4328
:100C300044EA82041C60036853F8844F058F24F44F
:100C40007F0444EA05441C60836B1A440368D3F8AC
:100C500088408C4344EA8204C3F88840036853F810
:100C6000884F858F24F4FE0444EA05441C60C36B5E
:100C700002EB43020368D3F8A0408C4344EA8204A9
:100C8000C3F8A040036853F8A04FB0F8405024F4D4
:100C9000FE0444EA05441C60D0E9103403FB04223E
:100CA0000368D3F8B0408C4344EA8204C3F8B040F0
:100CB000036853F8B04FB0F8485024F4FE0444EAF7
:100CC00005441C60D0E9123403FB04220368D3F806
:100CD000AC408C4344EA8204C3F8AC40D0E91434FD
:100CE00003FB04220368D3F8F0408C4344EA8204F7
:100CF000C3F8F040036853F8F04FB0F8585024F4AC
:100D00007C1444EA05441C60836D02EB43030268D3
:100D1000D2F8C0408C4344EA8301C2F8C010016895
:100D200051F8C02FB0F85C3022F47C1242EA034242
:100D30000A60016851F8C02F90F8603022F07C52B0
:100D400042EA03620A60416B234A02EB8101C166F9
:100D5000826B01EB82020267C36B02EBC302426744
:100D6000D0E91034634302EB83028267D0E9123486
:100D7000634302EB8302C267D0E91434634302EB9E
:100D80008302C0F88020836D02EBC302C0F8842088
:100D9000C46D836E5C4302EB8402C0F88820046E4D
:100DA0005C430E4B02EB8402C0F890209A420AD9B1
:100DB000D0F89C1041F02001C0F89C10032180F86D
:100DC0009810012030BD002200E004C1D0F890301E
:100DD0008B42FAD8002030BD00AC0040FCD300406C
:100DE000102908D0002180F88C10D0F88810491CF8
:100DF000C0F8881070477430AFF300802DE9F041DF
:100E0000044600F11905002020762878FD280BD132
:100E10006878EE2808D10E222946002005F0CEFD84
:100E20006082E989884204D06069401C6061BDE845
:100E3000F081B5F80300D5F8072006B2B5F8050033
:100E400000EE106A03B2A87A9FED1D1AB8EEC00A30
:100E5000A97860F31F62A88960EE010A9FED190A64
:100E6000C1F302172770C9096170E97A60EE800A40
:100E7000A17000F00701E170C0F3CB0020820120D7
:100E8000C4ED010A00EE903AF8EEE00A60EE810A45
:100E90009FED0D1A60EE810AC0EE801A00EE902AD6
:100EA000F8EEE00AC4ED021ADFED081A60EEA10ABE
:100EB00060EE810A80EE801A84ED031A2076B6E790
:100EC0000000803B5C8FCA40D00FC9400000003852
:100ED0002DE9F84F044601F08DFE009034B194F8EE
:100EE0003500022805D080206065EBE00120BDE8D8
:100EF000F88FCC4ECB4FCB491836DFF828833037EC
:100F0000DFF82093DFF81CA308F14808DFF814B3DA
:100F100009F1600920680AF1780A0BF1900B884208
:100F20002ED0B0422CD0B8422AD0404528D04845D7
:100F300026D0504524D0584522D0BA4AA8329042F3
:100F40001ED0B94A90421BD0B74A1832904217D0EF
:100F5000B54A3032904213D0B34A483290420FD053
:100F6000B14A603290420BD0AF4A7832904207D0FB
:100F7000AD4A9032904203D0AB4AA832904209D198
:100F8000026822F01E0202602068426922F080029C
:100F9000426103E0026822F00E02026025688D4281
:100FA00028464DD0B0424BD0B84249D0404547D0FA
:100FB000484545D0504543D0584541D0994AA8327C
:100FC00090423DD0984A90423AD0974A1832904287
:100FD00036D0954A3032904232D0934A48329042CD
:100FE0002ED0914A603290422AD08F4A7832904275
:100FF00026D08D4A9032904222D08B4AA83290421D
:101000001ED08A4A90421BD0884A1432904217D090
:10101000864A2832904213D0844A3C3290420FD004
:10102000824A503290420BD0804A6432904207D0BC
:101030007E4A7832904203D07C4A8C32954204D169
:10104000206E026822F4807202607649206888422D
:1010500028D0B04226D0B84224D0404522D04845BE
:1010600020D050451ED058451CD06E49A83188422A
:1010700018D06D49884215D06B491831884211D07B
:101080006949303188420DD067494831884209D0DA
:1010900065496031884205D063497831884201D082
:1010A00061499031016821F0010101600EE001F019
:1010B000A1FD0099401A052808D920206065032069
:1010C00084F83500002084F834000FE72868C00752
:1010D000EDD1544A0121206890422ED0B0422CD04C
:1010E000B8422AD0404528D0484526D0504524D083
:1010F000584522D04B4BA83398421ED04A4B9842B9
:101100001BD0494B1833984217D0474B3033984285
:1011100013D0454B483398420FD0434B603398422D
:101120000BD0414B7833984207D03F4B90339842D5
:1011300003D03D4BA833984208D194F85C30A06DA1
:1011400003F01F053F23AB40836007E094F85C3059
:10115000A06D03F01F0301FA03F34360206890427F
:101160004DD0B0424BD0B84249D0404547D0484519
:1011700045D0504543D0584541D02A4AA8329042E4
:101180003DD0294A90423AD0274A1832904236D070
:10119000254A3032904232D0234A483290422ED0F3
:1011A000214A603290422AD01F4A7832904226D09B
:1011B0001D4A9032904222D01B4AA83290421ED043
:1011C0001A4A90421BD0194A1432904217D0174A3B
:1011D0002832904213D0154A3C3290420FD0134A25
:1011E000503290420BD0114A6432904207D00F4ADD
:1011F0007832904203D00D4A8C3290420BD1D4E920
:1012000019024260E06E30B1026822F4807202601E
:10121000D4E91C02426084F83510002084F83400C0
:1012200065E6000010000240100402400854025815
:101230002DE9F05F28B190F83510022904D0802103
:1012400041650120BDE8F09F914A914B914D1832C4
:10125000904E3033DFF838C21835DFF834E24836C4
:10126000DFF83092DFF82CA20EF1600EDFF824B226
:1012700009F1300901680AF1600A864C0BF1A80BEC
:10128000614529D0914227D0994225D0804F4837D7
:10129000B94221D071451FD07D4F7837B9421BD05C
:1012A0007B4F9037B94217D0794FA837B94213D046
:1012B000A14211D0A9420FD049450DD0B1420BD067
:1012C000514509D0734F7837B94205D0714F9037E7
:1012D000B94201D059452FD1042780F835706145B6
:1012E00025D0914223D0994221D06948483081428B
:1012F0001DD071451BD066487830814217D06448B4
:101300009030814213D06248A83081420FD0A14270
:101310000DD0A9420BD0494509D0B14207D0514563
:1013200005D05C487830814201D05A489030086836
:1013300020F001000860A8E0D1F8008028F00E0835
:10134000C1F800800168E04641452BD0914229D088
:10135000994227D0DFF838C10CF1480C614521D003
:1013600071451FD0DFF828C10CF1780C614519D008
:10137000DFF81CC10CF1900C614513D0DFF810C1EF
:101380000CF1A80C61450DD0A1420BD0A94209D0A7
:10139000494507D0B14205D0514503D0DFF8F4C02C
:1013A0000CF1780CD1F800C02CF0010CC1F800C091
:1013B00001684FF0010C414546D0914244D099421A
:1013C00042D0334A483291423ED071453CD0304AF7
:1013D0007832914238D02E4A9032914234D02C4A01
:1013E000A832914230D0A1422ED0A9422CD04945FA
:1013F0002AD0B14228D0514526D0264A783291428F
:1014000022D0B94220D059451ED0234A91421BD048
:10141000214A1432914217D01F4A2832914213D0E8
:101420001D4A3C3291420FD01B4A503291420BD0A0
:10143000194A6432914207D0174A7832914203D058
:10144000154A8C32914218D1016E0A6822F48072DA
:101450000A6090F85C20816D02F01F020CFA02F223
:101460004A60D0E919124A60C16E31B10A6822F4AB
:1014700080720A60D0E91C124A6080F835C00021F1
:1014800080F83410016D01B188470020DAE60000D1
:101490001000024010040240085402582DE9FC5F7D
:1014A0000446002000904FF41651F9480068B0FB44
:1014B000F1F00190A56D2E682A68F64FDFF8D4830D
:1014C000DFF8D0A3DFF8CCB308F1180820680AF1E0
:1014D000300ADFF8C4930BF1480BB84238D04146CC
:1014E000884235D0504533D0584531D0E949603134
:1014F00088422DD0E7497831884229D0E54990319A
:10150000884225D0E349A831884221D048451FD0E0
:10151000E149183188421BD0DF493031884217D069
:10152000DD494831884213D0DFF86CE30EF1600EDC
:1015300070450DD0D84B7833984209D0DFF858C3A6
:101540000CF1900C604503D0D349A83188427DD17D
:1015500094F85C10082301F01F0103FA01F23242F3
:101560004CD0B84233D0404531D050452FD05845AB
:101570002DD0C8496031884229D0C6497831884287
:1015800025D0C4499031884221D0C249A83188422F
:101590001DD048451BD0C0491831884217D0BE49DC
:1015A0003031884213D0BC49483188420FD0BA4903
:1015B000603188420BD0B8497831884207D0B649AB
:1015C0009031884203D0B449A831884203D10168E0
:1015D00001F0040102E0016801F0080171B1016845
:1015E00021F00401016094F85C0000F01F0003FA90
:1015F00000F2AA60606D40F00100606594F85C0044
:10160000012100F01F008140314241D02068B842E2
:1016100035D0404533D0504531D058452FD09D4A24
:10162000603290422BD09B4A7832904227D0994A20
:101630009032904223D0974AA83290421FD048451A
:101640001DD0954A1832904219D000E0B3E1924A79
:101650003032904213D0904A483290420FD08E4A96
:10166000603290420BD08C4A7832904207D08A4A3E
:101670009032904203D0884AA83290427ED140698D
:1016800010F0800F04D0A960606D40F0020060652A
:1016900094F85C00042100F01F00814031423FD0EB
:1016A0002068B84233D0404531D050452FD05845FE
:1016B0002DD0784A6032904229D0764A78329042D2
:1016C00025D0744A9032904221D0724AA83290427A
:1016D0001DD048451BD0704A1832904217D06E4A30
:1016E0003032904213D06C4A483290420FD06A4A4E
:1016F000603290420BD0684A7832904207D0664AF6
:101700009032904203D0644AA83290424FD1006890
:1017100010F0020F04D0A960606D40F00400606515
:1017200094F85C00102100F01F008140314259D034
:101730002068B84235D0404533D0504531D0584567
:101740002FD0544A603290422BD0524A7832904285
:1017500027D0504A9032904223D04E4AA83290422D
:101760001FD048451DD04C4A1832904219D04A4AE1
:101770003032904215D0484A483200E015E090429D
:101780000FD0454A603290420BD0434A78329042A3
:1017900007D0414A9032904203D03F4AA83290424B
:1017A00007D1006800F0080006E0006870E70068F4
:1017B000B6E7006800F00400A0B1A96020680168E5
:1017C000490304D50068000308D5A16C07E001684F
:1017D000C90503D4016821F008010160216C09B139
:1017E0002046884794F85C00202100F01F008140CB
:1017F000314278D02068B84233D0404531D050458E
:101800002FD058452DD0234A6032904229D0214A0A
:101810007832904225D01F4A9032904221D01D4A02
:10182000A83290421DD048451BD01B4A1832904226
:1018300017D0194A3032904213D0174A483290429A
:101840000FD0154A603290420BD0134A7832904242
:1018500007D0114A9032904203D00F4AA8329042EA
:1018600003D1006800F0100002E0006800F0020000
:10187000A0B3A96094F835000428206801680DD051
:1018800049037CD50068000329D4616C28E000007E
:1018900014000024100002401004024021F0160140
:1018A00001602068416921F080014161206C08B924
:1018B000A06C20B12068016821F00801016094F853
:1018C0005C0000F01F013F208840A860012084F8E0
:1018D0003500002084F83400216D65E003E0E16B01
:1018E00009B120468847606D00287DD0606DC00733
:1018F00059D0042084F835002068B8422BD04045E8
:1019000029D0504527D0584525D09E49884222D01D
:101910009C49183188421ED09A49303188421AD0E9
:1019200098494831884216D0484514D09649884293
:1019300011D09549183188420DD0934930318842F1
:1019400009D091494831884205D08F496031884299
:1019500001D08D497831016821F0010101602168D1
:101960000098019A401C0090904202D80868C00775
:10197000F6D10868C00710D003200FE0FFE7016828
:10198000C905ACD4016821F010010160012084F880
:101990003500002084F83400A1E7012084F83500E8
:1019A000002084F83400E16C00291DD002B02046EC
:1019B000BDE8F05F0847754988421DD0734914316E
:1019C000884219D071492831884215D06F493C317D
:1019D000884211D06D49503188420DD06B49643135
:1019E000884209D0694900E084E07831884203D018
:1019F00066498C3188427DD101684FF0040894F823
:101A00005C6006F01F0608FA06F818EA020FCDF827
:101A1000008047D05FEA417844D5009868600804A8
:101A200003D5C8033CD4A16CBEE7880638D420682F
:101A3000B8422DD053494839884229D0504527D043
:101A4000584525D04F49884222D04E491831884206
:101A50001ED04C49303188421AD04A494831884218
:101A600016D0484514D04849884211D0464918310B
:101A700088420DD044493031884209D0704507D0A2
:101A8000984205D0604503D03F499031884203D148
:101A9000016821F0080102E0016821F00401016001
:101AA000216C81E74FF0020808FA06F818EA020FE5
:101AB000CDF800804FD05FEA81784CD500986860FF
:101AC000080403D5C80344D4616C6DE7880640D48C
:101AD0002068B8422FD02B49483988422BD0504536
:101AE00029D0584527D02749884224D02549183184
:101AF000884200E043E01ED02249303188421AD0AB
:101B000020494831884216D0484514D01E498842A1
:101B100011D01D49183188420DD01B4930318842FF
:101B200009D0704507D0984205D0604503D01649CA
:101B30009031884203D1016821F0140102E001686C
:101B400021F00A010160012084F83500002084F8AA
:101B50003400E16B28E70823B34013420FD0090794
:101B60000DD5016821F00E01016094F85C0000F0D1
:101B70001F01012000FA01F1696060650EE7BDE810
:101B8000FC9F0000700002402804024008540258E4
:101B90002DE9F05F044601F02DF80646F4B3E04F5E
:101BA0000222DFF87C830025DFF87493DFF870A34E
:101BB00008F13008DFF868B309F1480920680AF134
:101BC000600A0BF1780BB84234D0D54918318842FD
:101BD00030D040452ED048452CD050452AD05845CD
:101BE00028D0CF499031884224D0CD49A8318842AD
:101BF00020D0CC4988421DD0CA491831884219D01A
:101C0000C8493031884215D0C6494831884211D080
:101C1000C449603188420DD0C24900E042E07831C9
:101C2000884207D0BF499031884203D0BD49A831CE
:101C300088427DD184F83520B84284F834502CD0C5
:101C4000B7491831884228D0404526D0484524D08D
:101C5000504522D0584520D0B149903188421CD0FF
:101C6000AF49A831884218D0AE49884215D0AD4955
:101C70001831884211D0AB49303188420DD0A94982
:101C80004831884209D0A7496031884205D0A5492A
:101C90007831884201D0A3499031016821F00101D7
:101CA000016009E00120BDE8F09F00F0A3FF801B68
:101CB000052801D9202011E120680068C007F4D16F
:101CC0002268116898480140D4E902031843D4E916
:101CD000043633431843A3691843E3691843236A5E
:101CE00018430843616A042903D1D4E90B1319434B
:101CF00008436168A1F12903052B0BD9163B032B7F
:101D000008D9083B012B05D9083B032B02D97439AC
:101D1000032901D840F4801010602068406920F049
:101D20000701606A042840EA01060DD1A06A00E0BC
:101D300017E00643E06A38B12046FEF719FE18B1F5
:101D4000402060650120CBE0206846612046FEF718
:101D500025FD94F85C1001F01F023F219140816045
:101D600056E0724988421BD0704B1433984217D00A
:101D70006E4B2833984213D06C4B3C3398420FD0B3
:101D80006A4B503398420BD0684B6433984207D06B
:101D9000664B7833984203D0644B8C3398427DD1A4
:101DA000884201D06149143184F8352084F83450D8
:101DB00002685F490A40A168402970D080296FD02D
:101DC0000021E36841EAD301236941EAD301636951
:101DD00041EAD301A36941EAD301E36941EAD301AE
:101DE000236A41EA131111430160504920684942B6
:101DF00008441421B0FBF1F08000E0652046FEF7B6
:101E0000CDFC94F85C1001F01F020121914041606B
:101E10002068B84255D042491831884251D04045D7
:101E20004FD048454DD050454BD0584549D03C49FE
:101E30009031884245D03A49A831884241D0394949
:101E400088423ED03749183188423AD0354930313E
:101E5000884236D033494831884232D031496031E6
:101E600088422ED02F49783188422AD02D4990318E
:101E7000884226D02B49A831884222D02B4988425B
:101E80001FD02A49143188421BD028492831884262
:101E900017D026493C31884213D002E01DE017E0FC
:101EA00018E02249503188420BD0204964318842E1
:101EB00007D01E497831884203D01C498C318842B2
:101EC00028D12046FEF7C6FCA06880280BD00BE086
:101ED000102176E74FF4804173E7402060650320CE
:101EE00084F83500DEE66560216E20790860D4E96B
:101EF000190141606068401E072808D82046FEF797
:101F0000F9FCE06E0560D4E91C01416002E0E56681
:101F1000256765676565012084F835000020C2E605
:101F200010000240100402403F8010FE0854025886
:101F30000F00FEFF2DE9F84F04004FF00000009065
:101F400014D094F83400012812D0012084F8340011
:101F500094F835500020012D0CD04FF400616165DC
:101F600084F8340001200090BDE8F88F0120FBE7E1
:101F70000220F9E7022584F835506065974D974EA9
:101F8000964F1835DFF854C23036DFF850824837A4
:101F9000DFF84892DFF844A208F16008DFF83CB2AD
:101FA00009F1780920680AF1900A0BF1A80B604545
:101FB00033D0A84231D0B0422FD0B8422DD04045C6
:101FC0002BD0484529D0504527D0584525D0DFF89B
:101FD00010C2604521D0DFF808C20CF1180C604532
:101FE0001BD0DFF8FCC10CF1300C604515D0DFF8D8
:101FF000F0C10CF1480C60450FD0DFF8E4C10CF1E2
:10200000600C604509D0DFF8D8C10CF1780C604550
:1020100003D0DFF8CCC10CF1900CD0F800C02CF04C
:10202000010CC0F800C02046FEF7CCFC6B492068CC
:1020300088422CD0A8422AD0B04228D0B84226D01C
:10204000404524D0484522D0504520D058451ED088
:10205000634A90421BD0624A1832904217D0604ABD
:102060003032904213D05E4A483290420FD05C4AE0
:10207000603290420BD05A4A7832904207D0584A88
:102080009032904203D0564AA83290420CD1026856
:1020900022F01E0242F016020260206C88B1206815
:1020A000026842F008020BE0026822F00E0242F0E1
:1020B0000A020260206C20B12068026842F004022B
:1020C0000260206888424BD0A84249D0B04247D035
:1020D000B84245D0404543D0484541D050453FD017
:1020E00058453DD03E4A90423AD03D4A183290423F
:1020F00036D03B4A3032904232D0394A4832904250
:102100002ED0374A603290422AD0354A78329042F7
:1021100026D0334A9032904222D0314AA83290429F
:102120001ED0304A90421BD02E4A1432904217D013
:102130002C4A2832904213D02A4A3C3290420FD087
:10214000284A503290420BD0264A6432904207D03F
:10215000244A7832904203D0224A8C3290420DD1E8
:10216000206E0268D20303D5026842F480720260D6
:10217000E06E18B1026842F4807202602068884202
:1021800026D0A84224D0B04222D0B84220D0404528
:102190001ED048451CD050451AD0584518D010497B
:1021A000884215D00E491831884211D00C4930317F
:1021B00088420DD00A494831884209D00849603127
:1021C000884205D006497831884201D004499031CF
:1021D000016841F0010101600098C5E6100002406D
:1021E00010040240085402587047704770470000BE
:1021F000F0B590F898500024022D04D0D0F89C102F
:1022000041F008012CE0402905D041292CD0056D72
:102210008D421CD945E00568D5F8A06016F4FE0F84
:1022200015D0D5F8A460760616D0D5F8A460F601CE
:1022300005D5D5F8A06016F0004F00D50124D5F8DB
:10224000A450466FC5F305252C44456C27E0D0F813
:102250009C1041F0200103E0D0F89C1041F4807103
:10226000C0F89C100120F0BD0568D5F8B06016F4E8
:10227000FE0FECD0D5F8B4607606EDD0D5F8B4609A
:10228000F60105D5D5F8B06016F0004F00D5012451
:10229000D5F8B450866FC5F305252C44C56C65434D
:1022A00002E0456DC66F4D4306EB8506356815F0B7
:1022B00080455560356824D025F060451560356847
:1022C000254F05F000559560356805F0004515610E
:1022D000B588ADB2D5617568C5F30345D56075683D
:1022E00005F480155561756805F4001595617568EC
:1022F000C5F3066515627568ED0F55620025083651
:1023000007E0C5F38A45D9E716F805C003F805C00C
:102310006D1CD2F80CC017F80CC0AC45F4D840299D
:1023200009D041290BD0012220290CD200688A4013
:10233000C0F898200DE00068C0F8A84009E00068E7
:10234000C0F8B84005E0006801F01F018A40C0F8FD
:102350009C200020F0BD0000A08300087047000012
:102360002DE9FE4FB34F044638688007391D0968D0
:1023700000EA817B2068016D426D01F470410A40E2
:102380000292016D426D01F00F0102EA010A016D36
:10239000426D01F0F0010A400192016D426D01F0C1
:1023A000715102EA0108016D426D01F060710A404D
:1023B0000092416D056D4FF00009CE43F10509D43F
:1023C000E943C90506D4B9150165C7F80090204650
:1023D000FFF7C4FF700510D4E84340050DD4206812
:1023E000D0F8DC20D0F8E41011404FF48062026590
:1023F000C7F80090204600F012FBBBF1000F0BD095
:102400008D490BEA0100216808654FEA9B7038602E
:1024100059462046FFF7E8FE029850B18649084029
:10242000216808650298800F38600299204600F004
:10243000F8FABAF1000F0BD07F490AEA01002168CF
:1024400008654FEA9A7038605146204600F0B2FAAB
:10245000019850B178490840216808650198800FBB
:1024600038600199204600F0D3FA30050BD4E843D8
:10247000000508D421684FF400600865C7F8009093
:10248000204600F0CFFAB00510D4E84380050DD403
:102490002068D0F8D820D0F8E01011404FF4007236
:1024A0000265C7F80090204600F0BAFA30030BD45A
:1024B000E843000308D421684FF400200865C7F8FA
:1024C0000090204600F074FAF0030BD4E843C003F8
:1024D00008D421684FF480300865C7F80090204682
:1024E00000F09CFA70030BD4E843400308D4216841
:1024F0004FF480200865C7F80090204600F08DFA60
:10250000B0030ED4E84380030BD421684FF40030AD
:102510000865C7F80090D4F89C0040F08000C4F82B
:102520009C00009850B14449084021680865009813
:10253000800F386000992046FFF758FEB8F1000F71
:102540000DD03D4908EA0100216808654FEA9870FE
:102550003860D4F89C0040EA0800C4F89C00374971
:10256000206888425CD160688168890758D0016A18
:1025700001F00F02416A1140026A476A02F030021C
:1025800007EA0207026A436A02F4C07203EA020819
:10259000026A456A02F4FC4205EA0205026A466ADA
:1025A00002F4F022D0F8249006EA0206D0F820A027
:1025B00003D00162204600F02DFA2FB16068076257
:1025C0003946204600F028FA6FEA090040060ED48A
:1025D0006FEA0A0040060AD46068C16BC26B090C3E
:1025E0004023036202F03F02204600F014FAB8F1E3
:1025F000000005D0616808624146204600F009FAF3
:1026000035B160680562D4F89C002843C4F89C008A
:1026100036B160680662D4F89C003043C4F89C0070
:10262000D4F89C00002802D02046FFF7DEFDBDE86C
:10263000FE8F000010A80040FFFFCF3F00A0004029
:102640002DE9F04194B08D494C2204466846FDF7CF
:10265000CDFF64B18A4E2068B04202D100F580708F
:10266000606094F898004FF0000820B108E0012065
:1026700014B0BDE8F081204684F8998000F002F99A
:102680002068816921F01001816100F0B3FA03270D
:10269000054604E000F0AEFA401B0A2811D8206875
:1026A00080690007F6D42068816941F001018161E9
:1026B00000F0A0FA05460DE000F09CFA401B0A2845
:1026C00008D9D4F89C0040F00100C4F89C0084F8BC
:1026D0009870CCE720688069C007EDD020688169D8
:1026E00041F002018161207C01282068816937D096
:1026F00041F040018161607C01282068816932D00D
:1027000021F480418161A07C0128206881692DD05D
:1027100041F48051816120688169A26821F440718F
:10272000114381612068816921F0A40181612068E1
:10273000016921F010010161E068012819D010B38E
:1027400002281BD02068816941F0800181612068E6
:10275000016941F010010161E06803280ED012E028
:1027600021F04001C6E741F48041CBE721F48051DC
:10277000D0E72068816941F0040103E020688169A5
:1027800041F020018161207E6FF0FF02E169A38AA0
:10279000400602EB0121A0F100700843216A491EA6
:1027A0000843110201EB034318432368D861A06872
:1027B000B0F5407F10D1D4E90A03401E02EB03229A
:1027C0001043226B0B1303EB02121043A28C01EB9C
:1027D000024108432168C860206E30B12068D0F8FB
:1027E000C010626E1143C0F8C010D4E91701C8428E
:1027F000694609D0206850F8C82FA36E22F007025E
:1028000051F823301A430260206C48B1206850F818
:10281000BC2F636C22F0070251F823301A43026088
:10282000A06C50B1206850F8BC2FE36C22F070020D
:1028300051F8233042EA03120260206D50B1206843
:1028400050F8BC2F636D22F4E06251F8231042EA85
:10285000012101602068B04204D16068816821F0E4
:1028600003018160C4F89480C4F89C80012084F83E
:1028700098002046FEF7D4F9FAE60000B08300087D
:1028800000A000402DE9F041B4B0044614212EA868
:10289000FDF708FFB8216846FDF704FF404D022709
:1028A0003D494FF0805220680C3D3C4E4FF00008EF
:1028B0003B4C88422FD100201B925113CDE90010D0
:1028C000684600F027FC08B1FEF78DF93068401C1F
:1028D0003060012807D1206840F4807020602068B3
:1028E00000F480703390286840F002002860286867
:1028F0002EA9CDF8C08000F0020033904FF4405074
:10290000CDE92E070920CDE93180264800F08CF86A
:1029100034B0BDE8F08124498842F9D100201B92EF
:102920004FF40041CDE90010684600F0F3FB08B118
:10293000FEF759F93068401C3060012807D1206843
:1029400040F480702060206800F480703390286824
:1029500040F02000286028682EA9CDF8C08000F043
:1029600020003390C020CDE92E071048CDE93187F3
:1029700000F05AF8002205219F2000F023FA9F2042
:1029800000F012FA00220521A02000F01BFAA0207E
:1029900000F00AFABCE7000000A400400400002494
:1029A000EC4402580004025800D4004000140258BD
:1029B0007047000030B58DB00546C80722D04021D1
:1029C0006A460AAB2846FFF713FC00281AD10E4CC2
:1029D000A16851B12A6809688A4206D10099201D70
:1029E0000AAA02F082FA00280CD1D4F8CC010028FF
:1029F00008D029680068814204D104480AAA0099D5
:102A000002F0E8FA0DB030BDF44E0024BC500024B2
:102A100070477047704770477047704770477047FE
:102A200070477047704700002DE9F84F664C002250
:102A30004FF0B04A4FF0010B4FF003084FF00F0971
:102A4000BBE00BFA02F6334073D00D7905F00305B5
:102A5000012D01D0022D15D18768550008FA05FC1B
:102A600027EA0C07D1F80CC00CFA05FC4CEA070C5D
:102A7000C0F808C04568B5430E79C6F30016964005
:102A80002E4346600D79ED43AD0708D0C66855006A
:102A900008FA05F7BE438F68AF403743C7600D792A
:102AA00005F00305022D11D1D50800EB85073E6A1C
:102AB0005507ED0E09FA05FC26EA0C06D1F810C000
:102AC0000CFA05FC4CEA060CC7F820C00668550055
:102AD00008FA05F7BE430F7907F00307AF40374305
:102AE00007604D6815F4403F66D0384D2E6846F0BB
:102AF00002062E602D6822F0030606F1B04605F0AE
:102B000002050095D6F8087495074FEA157C09FA76
:102B10000CF5AF432E4DA84201D1002529E02D4DE3
:102B2000A84201D1012524E02B4DA84202D1022563
:102B30001FE041E0294DA84201D1032519E0284DAD
:102B4000A84201D1042514E0264DA84201D1052553
:102B50000FE0254DA84201D106250AE0234DA842E9
:102B600001D1072505E0224DA84201D1092500E049
:102B70000A2505FA0CF53D43C6F80854DAF800506A
:102B800056464F689D43FF0200D51D43356075686A
:102B90004F689D43BF0200D51D43756065684E6850
:102BA0009D43B60300D51D43656025684E689D436F
:102BB000F60300D51D432560521C0B6833FA02F55D
:102BC0007FF43FAFBDE8F88F80000058F44402580E
:102BD000000002580004025800080258000C025875
:102BE000001002580014025800180258001C025825
:102BF0000024025801488068704700000800002443
:102C000002488168027811448160704708000024FE
:102C1000032010B500F0F6F801F0C8F80F4A11686B
:102C20001268C1F303230E49CB5C03F01F03D840A5
:102C300002F00F02895C0B4A01F01F0120FA01F13A
:102C40001160094908600F2000F010F808B1012058
:102C500010BD00F097F8002010BD00001844025885
:102C600024840008180000241400002410B5102843
:102C700004468AB02AD200220146752000F0A2F84C
:102C8000752000F091F8154804601548016841F47A
:102C900000310160006808A900F40030099068461E
:102CA00001F00EF801F070F80E4940000E4AB0FB3A
:102CB000F1F10E48026040F2E732491E4160002106
:102CC000C0E90321816001F09AFB10B101200AB034
:102CD00010BD064801F0C6FBF9E700000C00002417
:102CE000F044025840420F0000440140F404002424
:102CF000134A41781160124908310A6822F0010232
:102D00000A600B1F42681A60027BC37A120742EA0C
:102D10000362837A42EAC342437B42EA8342837B73
:102D200042EA4342C37B42EA0342437A42EA032235
:102D3000037A007842EA430202430A6070470000C7
:102D400098ED00E0BFF35F8F0448016821F4803103
:102D500001600249002070310860704724ED00E0F6
:102D6000074940F00100086005487038016841F4E7
:102D700080310160BFF34F8FBFF36F8F704700004A
:102D800094ED00E0074882B0016841F00201016063
:102D9000006800220F2100F002000090901E02B097
:102DA00000F010B8F4440258002809DB012100F0BB
:102DB0001F0291404009800000F1E020C0F800119E
:102DC000704700000E4BF0B41B68C3F30223C3F13D
:102DD0000704042C00D904241D1D072D01D2002353
:102DE00000E0DB1E012606FA04F56D1E0D409D4035
:102DF0009E40761E164045EA0601F0BC03F0B6BDC3
:102E00000CED00E0064A00F0070110684FF6FF03E2
:102E1000184040EA01200349084310607047000051
:102E20000CED00E00000FA05124970B50A68D243C3
:102E3000520705D5096801F00701814212D117E058
:102E40000A6822F0070202430A60FFF7D3FE094D29
:102E50004FF47A760446083D06E0FFF7CBFE001BF0
:102E6000B04201D9012070BD2868C0438004F4D469
:102E7000002070BD0C48025810B500F051FF054904
:102E80000968054AC1F30211515C01F01F01C840F5
:102E900010BD00002044025824840008484910B5A1
:102EA0000A68096802F00302454B1B1DC1F3053196
:102EB0001B68434C1434C3F300132468C4F3CC04DC
:102EC00014FB03F300EE103AB8EE400AE9B33C4BB2
:102ED0009FED3C1A1033F7EE000A62B1DFED3A1AAB
:102EE000012A01D0022A5ED002EE101AF8EE422A20
:102EF00081EEA22A1AE0324A283A1468A4060DD5B7
:102F00001268C2F3C104314AE24001EE902AF8EEA1
:102F1000612A01EE901AF8EE611A05E001EE901AAE
:102F2000DFED2B2AF8EE611A82EEA12A1968C1F3AF
:102F3000080101EE901A1968F8EE611A40EE011AC4
:102F400031EEA00A22EE000A00E033E0C1F3462190
:102F500001EE101AB8EE411A31EE201AC0EE011A35
:102F6000BCEEE11A80ED001A1968C1F3064101EECA
:102F7000101AB8EE411A31EE201AC0EE011ABCEE5A
:102F8000E11A80ED011A1968C1F3066101EE101A09
:102F9000B8EE411A71EE200A80EE201ABCEEC10A8A
:102FA00080ED020A10BD01EE901ADFED0A2AF8EE5C
:102FB000611AB9E7002101604160816010BD000025
:102FC00028440258000000390024744A0090D003BD
:102FD0000024744C20BCBE4B484910B50A680968EF
:102FE00002F00302454B1B1DC1F305511B68434C06
:102FF0001C34C3F300232468C4F3CC0414FB03F390
:1030000000EE103AB8EE400AE9B33C4B9FED3C1A93
:103010001833F7EE000A62B1DFED3A1A012A01D047
:10302000022A5ED002EE101AF8EE422A81EEA22A9F
:103030001AE0324A283A1468A4060DD51268C2F381
:10304000C104314AE24001EE902AF8EE612A01EE15
:10305000901AF8EE611A05E001EE901ADFED2B2AC6
:10306000F8EE611A82EEA12A1968C1F3080101EE97
:10307000901A1968F8EE611A40EE011A31EEA00AB2
:1030800022EE000A00E033E0C1F3462101EE101AFF
:10309000B8EE411A31EE201AC0EE011ABCEEE11A68
:1030A00080ED001A1968C1F3064101EE101AB8EE5E
:1030B000411A31EE201AC0EE011ABCEEE11A80ED81
:1030C000011A1968C1F3066101EE101AB8EE411A2F
:1030D00071EE200A80EE201ABCEEC10A80ED020AD1
:1030E00010BD01EE901ADFED0A2AF8EE611AB9E779
:1030F000002101604160816010BD00002844025839
:10310000000000390024744A0090D0030024744C5D
:1031100020BCBE4B2DE9FC5F044600680025FD4F36
:10312000C043DFF8F4A32E46010104F1080001902A
:1031300004F1280000901DD4606E50B1B0F5801FDE
:103140000CD0B0F5001F0ED0B0F5401F1ED00125E9
:103150000FE0386840F40030386017E00198022131
:1031600002F0B8F803E00098022102F03DF90500F2
:103170000CD02E462088C043C00523D4A06D05285E
:103180001ED2DFE800F00C11161B1B00DAF800104D
:10319000626E21F440111143CAF80010EAE7386862
:1031A00040F40030386009E00198002102F092F804
:1031B00003E00098002102F017F90546B5B100E0E0
:1031C00001252E462088DFF85483C04340052FD4C4
:1031D000D4F8A400B0F5C00F28D010DCB8B1B0F519
:1031E000001F19D0B0F5800F0FD11AE0DAF80010E7
:1031F000A26D21F007011143CAF80010E2E7B0F513
:10320000000F13D0B0F5200F10D001250FE0386863
:1032100040F40030386009E00198002102F05AF8CB
:1032200003E00098002102F0DFF8054695B12E4634
:103230002088C043000530D4D4F8A800B0F1407F06
:1032400029D011DCC0B1B0F1807F1AD0B0F1007F7D
:1032500010D11BE0D8F80010D4F8A42021F46001AC
:103260001143C8F80010E3E7B0F1806F13D0B0F15C
:10327000A06F10D001250FE0386840F400303860AE
:1032800009E00198002102F025F803E000980021F0
:1032900002F0AAF8054685B12E462068DFF880B214
:1032A000C04380011FD4E06CD8B110280FD0202873
:1032B00012D0302815D0012514E0D8F80010D4F829
:1032C000A82021F0E0611143C8F80010E5E7386854
:1032D00040F40030386004E00198022101F0FAFF68
:1032E000054675B12E462088C043C0042BD4E06D3E
:1032F000B0F5005F20D00DDCA0B1B0F5805F0FD13C
:1033000015E0DBF80010E26C21F030011143CBF83E
:103310000010E8E7B0F5405F13D0B0F5804F10D053
:1033200001250FE0386840F40030386009E001986A
:10333000002101F0CFFF03E00098002102F054F8D3
:1033400005468DB12E462088C043800429D4206EC6
:10335000B0F5403F23D010DC08B3B0F5803F14D067
:10336000B0F5003F0FD115E0DAF80010E26D21F45E
:10337000E0411143CAF80010E5E7B0F5802F0ED008
:10338000B0F5A02F0BD001250AE00198012101F032
:10339000A1FF03E00098012102F026F8054695B14F
:1033A0002E462088C04340042AD4D4F8AC00B0F1A3
:1033B000405F23D010DC08B3B0F1805F14D0B0F1CF
:1033C000005F0FD115E0DAF80010226E21F4E02141
:1033D0001143CAF80010E4E7B0F1804F0ED0B0F10D
:1033E000A04F0BD001250AE00198012101F072FFE6
:1033F00003E00098012101F0F7FF054675B12E4664
:103400002088C04300041FD4E06ED8B1B0F1805FC3
:103410000ED0B0F1005F10D0012514E0D8F80010F4
:10342000D4F8AC2021F0E0411143C8F80010E7E7E0
:10343000386840F40030386004E00198012101F060
:1034400049FF054675B12E462068C043C0011ED411
:10345000A06CD0B101280ED0022811D0032814D0BE
:10346000012513E0DAF80010E26E21F0405111431B
:10347000CAF80010E8E7386840F40030386004E02B
:103480000198022101F026FF05466DB12E46206805
:10349000C043400259D42348016841F4807101605F
:1034A000FFF7A8FB81460EE0DBF80010A26C21F0CC
:1034B00003011143CBF80010E9E7FFF79BFBA0EBFA
:1034C0000900642839D817480068C005F5D55DBBE8
:1034D000124818300068B4F8B01000F4407001F4DD
:1034E000407188420DD00D4818300168026821F4FF
:1034F000407142F480320260026822F4803202603D
:103500000160D4F8B000B0F5807F25D1FFF772FBE1
:10351000814614E02C440258504402585844025842
:103520004C440258004802580EE0FFF763FBA0EB42
:10353000090141F28830814201D9032504E0FE48A7
:1035400000688007F1D53DB12E462078DFF8EC9376
:10355000C043C00720D03BE0D4F8B000C0F3012145
:1035600003290ED0F5484438016821F47C510160EC
:10357000F1480168B4F8B020C2F30B0211430160B6
:10358000E3E7EE4944390A68ED4B22F47C5203EA42
:10359000101002430A60EBE7A06F182816D005DC74
:1035A000A0B1082808D0102804D10AE020280DD0A6
:1035B00028280BD001250AE00198012101F08AFE9C
:1035C00003E00098012101F00FFF054665B12E468A
:1035D0002078C04380071ED4606F062819D2DFE828
:1035E00000F0160C11161616D9F80010A26F21F073
:1035F00038011143C9F80010EAE70198012101F0F0
:1036000069FE03E00098012101F0EEFE05467DB160
:1036100000E001252E462078C04340071FD4D4F88F
:103620009000062819D2DFE800F0160C11161616C5
:10363000D9F80010626F21F007011143C9F800109A
:10364000E9E70198012101F045FE03E0009801211E
:1036500001F0CAFE0546A5B100E001252E462078FE
:10366000C04380062BD4D4F88C00B0F1405F24D046
:1036700011DC10B3B0F1805F15D0B0F1005F10D154
:1036800016E0D8F80010D4F8902021F0070111437B
:10369000C8F80010E3E7B0F1804F0ED0B0F1A04FB2
:1036A0000BD001250AE00198002101F013FE03E090
:1036B0000098022101F098FE054695B12E4620782B
:1036C000C04340062BD4D4F89800B0F5406F24D006
:1036D00011DC10B3B0F5806F15D0B0F5006F10D1CC
:1036E00016E0D9F80010D4F88C2021F0E041114305
:1036F000C9F80010E3E7B0F5805F0ED0B0F5A05F29
:103700000BD001250AE00198002101F0E3FD03E060
:103710000098022101F068FE054695B12E462078FA
:10372000C04300062BD4D4F89C00B0F5C04F24D081
:1037300011DC10B3B0F5005F15D0B0F5804F10D19B
:1037400016E0D8F80010D4F8982021F4E051114385
:10375000C8F80010E3E7B0F5004F0ED0B0F5204FE9
:103760000BD001250AE00198002101F0B3FD03E030
:103770000098022101F038FE054655B12E4620780A
:10378000C04300071ED4D4F88000B0F5805F0AD093
:103790000FE0D8F80010D4F89C2021F460411143C8
:1037A000C8F80010EBE70098022101F01DFE00B1FF
:1037B0000126D9F80010D4F8802021F4405111439B
:1037C000C9F800102078C043C00613D4D4F8940080
:1037D000B0F5807F05D10098022101F005FE00B10F
:1037E0000126D8F80010D4F8942021F44071114338
:1037F000C8F800102068C043000316D4D4F8A00015
:1038000038B1B0F5803F09D0B0F5003F0BD00125AD
:103810000AE00198002101F05DFD03E0009802211B
:1038200001F0E2FD05468DB12E462068C0434003FD
:1038300022D4D4F88400B0F5801F11D0B0F5001F59
:1038400013D0B0F5401F15D0012514E0D8F80010B2
:10385000D4F8A02021F440311143C8F80010E4E767
:10386000386840F40030386004E00098012101F02D
:10387000BBFD05465DB12E462068C043C0031CD485
:10388000206D70B1B0F5803F10D0012514E0D9F85B
:103890000010D4F8842021F440111143C9F800101D
:1038A000EAE7386840F40030386004E0019802210B
:1038B00001F010FD0546DDB12E462068C0438000B2
:1038C00005D40098022101F08FFD00B10126206887
:1038D000C04380031BD4E06FB8B1B0F5807F10D037
:1038E000B0F5007F11D0B0F5407F0ED001250DE07E
:1038F000DBF80010226D21F480311143CBF8001069
:10390000DBE7386840F400303860EDB32E462068BD
:10391000C043C00207D4DAF80010226F21F0004142
:103920001143CAF800102068C04380020ED4DAF8B0
:10393000001021F0807105E0704402585444025890
:10394000CFFFFF00A26E1143CAF800102068C043E9
:10395000400009D43D48016821F40041016001683C
:10396000D4F8B420114301602068C04307D4DBF8C9
:103970000010626D21F040511143CBF80010206817
:10398000C04300020AD400E010E0D9F80010D4F8D7
:10399000882021F440011143C9F800102079002546
:1039A000C04300F00100284309D00EE0D9F8001010
:1039B000E26F21F440711143C9F80010A7E70198A4
:1039C000002101F087FC00B106462079C04300F0D9
:1039D0000200284305D10198012101F07BFC00B1D0
:1039E00006462079C04300F00400284305D1019821
:1039F000022101F06FFC00B106462079C04300F0BF
:103A00000800284305D10098002101F0EDFC00B129
:103A100006462079C04300F01000284305D10098E5
:103A2000012101F0E1FC00B106462079C04300F01D
:103A30002000054304D10098022101F0D5FC00B913
:103A400016B10120BDE8FC9F0020FBE7104402589E
:103A50002DE9F05F04000D467ED0DFF84492D9F8DE
:103A6000000000F00F00A8420CD2D9F8001021F09D
:103A70000F012943C9F80010D9F8000000F00F0029
:103A8000A84269D12078874E40070AD5206931685D
:103A900001F07001884204D9316821F070010143BE
:103AA00031602078DFF8008200070CD5606941465C
:103AB000D8F8002002F07002904204D90A6822F07F
:103AC000700202430A602078C0060CD5A069414606
:103AD000D8F8002002F4E062904204D90A6822F487
:103AE000E06202430A602078DFF8C0B180060CD59E
:103AF000E0695946DBF8002002F07002904204D9D8
:103B00000A6822F0700202430A60207880070AD512
:103B1000E068316801F00F01884204D9316821F072
:103B20000F01014331602078C0073DD03068A168A3
:103B300020F47060084330605A49606818390228E0
:103B400018D0032819D00968012819D0490700297D
:103B500049DADFF850A100E045E0AAF1080ADAF8F6
:103B6000001021F007010143CAF80010FFF742F8E6
:103B7000074611E009688903E9E709688901E6E772
:103B8000C905E4E7FFF736F8C11B41F288308142EE
:103B900002D90320BDE8F09FDAF80000616800F068
:103BA0003800B0EBC10FEDD1207880070AD5E0686E
:103BB000316801F00F01884204D2316821F00F0111
:103BC00001433160D9F80010484601F00F01A942C5
:103BD0000BD9016821F00F0129430160006800F052
:103BE0000F00A84201D00120D4E7207840070AD571
:103BF0002069316801F07001884204D2316821F0F7
:103C0000700101433160207800070CD5606941469E
:103C1000D8F8002002F07002904204D20A6822F024
:103C2000700202430A602078C0060CD5A0694246A3
:103C3000D8F8001001F4E061884204D2116821F440
:103C4000E06101431160207880060CD5E069594697
:103C5000DBF8002002F07002904204D20A6822F0E1
:103C6000700202430A6000F0A1F83168C1F3032238
:103C70000F498A5C02F01F02D040326802F00F0246
:103C8000895C0C4A01F01F0120FA01F111600A4918
:103C900008600A480068BDE8F05FFEF7E7BF000073
:103CA00000200052184402581C4402582044025874
:103CB0002484000818000024140000240C000024B0
:103CC0003F220260144A126802F007024260124A60
:103CD0000832136803F470638360136803F00F0302
:103CE000C360126802F0700202610B4A0C32136862
:103CF00003F070034361126802F4E0628261064AD5
:103D00001032126802F07002C2610448006800F0CC
:103D10000F00086070470000104402580020005255
:103D200000B500F043F80B4A11681268C1F3032391
:103D30000949CB5C03F01F03D84002F00F02895CF5
:103D4000064A01F01F0120FA01F11160044A1060D7
:103D5000084600BD184402582484000818000024B6
:103D60001400002400B5FFF7DBFF05490968054A88
:103D7000C1F30211515C01F01F01C84000BD0000F9
:103D80001C4402582484000800B5FFF7C9FF054908
:103D90000968054AC1F30221515C01F01F01C840C6
:103DA00000BD00001C44025824840008434830B57C
:103DB0000068444C10F03801414808D0021108292D
:103DC00003D010290BD018290BD0104630BD216824
:103DD0008906FBD52168C1F3C101C84030BD3A480E
:103DE00030BD364918310A68096802F00302334BC6
:103DF0001C33C1F305111B68304D03F0010324355A
:103E00002D68C5F3CC0515FB03F300EE103AB8EEB0
:103E1000400AE9B3294BDFED2D0A2033B7EE001A33
:103E200062B1DFED2B1A012A01D0022A3CD002EE4A
:103E3000101AF8EE422A81EEA22A17E022689206B2
:103E40000CD52268C2F3C102D04001EE900AF8EE10
:103E5000612A01EE901AF8EE611A05E001EE901A5F
:103E6000DFED1C2AF8EE611A82EEA12A1868C0F371
:103E7000080001EE900A1868F8EE611A40EE201A68
:103E800031EE810A22EE000AC0F34620401C00E019
:103E900011E000EE900AF8EE600A80EE201ABCEE07
:103EA000C10A10EE100A30BD01EE901ADFED0A2AA9
:103EB000F8EE611AD8E7002030BD00001044025827
:103EC0000090D0030044025840787D010000003982
:103ED0000024744A0024744C20BCBE4B2DE9F05FD2
:103EE000040078D02078DFF8F893FE4EFE4DC0072E
:103EF00047D0D9F80000316800F03800102815D0FC
:103F0000182803D101F0030002280FD06068B0F533
:103F1000803F12D010B1B0F5A02F18D0286820F43F
:103F200080302860286820F4802009E02868800319
:103F300027D560680028D4D023E0286840F480307A
:103F40002860606888B1FEF755FE074609E02868DA
:103F500040F480202860F0E7FEF74CFEC01B642888
:103F60007ED828688003F7D50BE0FEF743FE0746AE
:103F700004E0FEF73FFEC01B6428F1D828688003E8
:103F8000F7D42078800753D5D9F80000316810F0B5
:103F90003800DFF858830ED0182801D188070AD0DE
:103FA000E068A0B3296821F0190101432960FEF7F8
:103FB00021FE074627E02868400702D5E068002870
:103FC0008FD02868E16820F0190008432860FEF7C8
:103FD00011FE074605E0D1E0FEF70CFEC01B0228EB
:103FE000BED828684007F7D5D8F80010227C21F009
:103FF000FE4141EA0261C8F8001019E0FEF7FAFD3F
:10400000C01B0228ACD828684007F7D5ECE7FFE7CB
:10401000286820F001002860FEF7ECFD074604E068
:10402000FEF7E8FDC01B02289AD828684007F7D49D
:104030002078C00646D5D9F80000316800F0380075
:10404000DFF89C820828A8F1040812D0182803D1B0
:1040500001F0030001280CD0E0690028286800E086
:10406000C7E020D040F080002860FEF7C3FD07467F
:1040700015E02868C00502D5E06980287ED1D8F80F
:10408000001094F8202021F07C5141EA0261C8F828
:10409000001017E0FEF7AEFDC01B0228A0D828686C
:1040A000C005F7D5EBE720F080002860FEF7A2FD01
:1040B000074604E0FEF79EFDC01B022890D8286842
:1040C000C005F7D42078000728D5864960694C31AF
:1040D000002888460846096810D041F001010160B7
:1040E000FEF788FD074604E0FEF784FDC01B0228AA
:1040F00088D8D8F800008007F6D50FE021F001013C
:104100000160FEF777FD074604E0FEF773FDC01B74
:1041100002286ED8D8F800008007F6D420788006F0
:1041200022D5A069002828680FD040F4805028606C
:10413000FEF760FD074604E0FEF75CFDC01B0228A9
:1041400057D828688004F7D50EE020F48050286006
:10415000FEF750FD074604E0FEF74CFDC01B0228A9
:1041600047D828688004F7D4207840074FD5DFF877
:104170008081D8F8001041F4807100E017E1C8F8A0
:104180000010FEF737FD074604E0FEF733FDC01BC5
:1041900064282ED8D8F80000C005F6D5514FA06885
:1041A000483701280AD008B1052813D0386820F014
:1041B00001003860386820F0040002E0386840F000
:1041C00001003860A06841F2883A98B1FEF712FD0C
:1041D00080460AE0386840F004003860EEE7FEF7F9
:1041E00009FDA0EB0801514503D838688007F6D5D2
:1041F0000DE07FE0FEF7FEFC804605E0FEF7FAFCEE
:10420000A0EB0801514575D838688007F6D4616A7B
:10421000002970D0D9F800004FF6F87BDFF8C48091
:1042200008F10808C0F3C200032808F10409A8F146
:10423000040A7DD02868022920F08070286003D00D
:10424000FEF7D8FC044687E0FEF7D4FC074604E0FE
:10425000FEF7D0FCC01B02287BD828688001F7D469
:10426000306840F2F3318843E16A40EA0110A16A04
:104270000843306094F834004FF4FE02218E40026F
:10428000491EA0F5007080B2C1F308010843218FD8
:10429000491E02EA0141084394F83C101202491EEB
:1042A00002EA01610843C8F80000DAF8001050463D
:1042B00021F00101CAF80010D9F80020A36C22EA0D
:1042C0000B0242EAC302C9F80020DAF80010226C9F
:1042D00021F00C011143CAF80010DAF800100BE0CD
:1042E000104402582844025800440258044402581A
:1042F000004802582DE07DE0626C21F0020111437C
:104300000160016841F480310160016841F40031CD
:104310000160016841F480210160016841F0010100
:104320000160286840F080702860FEF763FC00E0C0
:1043300016E0044604E0FEF75DFC001B022808D8E6
:1043400028688001F7D555E0FEF754FC001B0228D1
:1043500002D90320BDE8F09F28688001F4D449E029
:104360003268D8F80000012921D0A36A02F00301C5
:1043700099421CD1E16AC2F30512914217D1216B17
:10438000C0F30802491E8A4211D1616BC0F3462274
:10439000491E91420BD1A16BC0F30642491E9142C6
:1043A00005D1E16BC0F30660491E814201D00120B6
:1043B000D0E7D9F800004F46A16CC0F3CC00814291
:1043C00018D0DAF80000564620F00100CAF80000C4
:1043D000FEF710FC0546FEF70DFCA842FBD038683E
:1043E000A16C20EA0B0040EAC1003860306840F060
:1043F000010030600020ADE770477047704710B58E
:10440000040003D094F83D0010B107E0012010BD76
:10441000002084F83C00204600F022F8022084F8B6
:104420003D002068211D01F037F9012084F8480083
:1044300084F83E0084F83F0084F8400084F841008E
:1044400084F8420084F8430084F8440084F845006E
:1044500084F8460084F8470084F83D00002010BD31
:104460007047000090F83D10012901D001207047ED
:10447000022180F83D100168CA6842F00102CA605A
:104480000068164988421AD0B0F1804F17D01449FD
:10449000884214D01349884211D0134988420ED063
:1044A000124988420BD01249884208D011498842EB
:1044B00005D01149884202D01049884207D181684D
:1044C0000F4A1140062906D0B1F5803F03D001689C
:1044D00041F0010101600020704700000000014030
:1044E0000004004000080040000C004000040140AF
:1044F000001800400040014000E0004000E400409F
:104500000700010070472DE9F04104460068C668C5
:1045100005694FF00007A90713D5B10711D5F91E9A
:10452000016101202077206880698007204602D041
:10453000FFF7E8FF04E000F08BF8204600F089F870
:104540002777680716D5700714D521686FF0040027
:104550000861022020772068806910F4407F20469F
:1045600002D0FFF7CFFF04E000F072F8204600F021
:1045700070F82777280715D5300713D521686FF015
:1045800008000861042020772068C0698007204661
:1045900002D0FFF7B7FF04E000F05AF8204600F021
:1045A00058F82777E80616D5F00614D521686FF07D
:1045B00010000861082020772068C06910F4407F4F
:1045C000204602D0FFF79EFF04E000F041F82046AD
:1045D00000F03FF82777E80708D0F00706D02168F9
:1045E0006FF001000861204600F034F8280601D47D
:1045F000A80408D5300606D521686FF4025008617A
:104600002046FFF7FAFEE80508D5300606D52168F2
:104610006FF4807008612046FFF7EEFE680608D54B
:10462000700606D521686FF040000861204600F052
:104630001BF8A8060AD5B00608D521686FF020003F
:1046400008612046BDE8F041FFF7D8BEBDE8F08123
:104650007047704700680349884201D1FEF7D0BA1D
:104660007047000000440140704790F88410012911
:1046700018D0012180F884102421C0F88810016826
:104680000A680B6823F001030B6022F0005100223E
:104690004266036819602021C0F8881080F88420E1
:1046A000104670470220704710B50446D0F88C00C1
:1046B000202801D0022010BD51B14AB10120E0668E
:1046C00000202067204601F007FF010002D005E02E
:1046D000012010BDE06E012802D00121084610BD66
:1046E000226810201062206850E8002F42F010026B
:1046F00040E80023002BF6D1F0E770B50446D0F86F
:104700008C000025202801D0022070BD69B162B163
:104710000120E06600202067204601F033FFE06EB4
:10472000012804D00125284670BD012070BD2168F4
:1047300010200862206850E8001F41F0100140E896
:104740000012002AF6D1EEE7174A10B504460068B9
:104750001268904206D10A462146BDE8104013482F
:1047600002F086B8124BDA6F52B11268904207D14C
:1047700003F17800FCF734FB0E49102220460EE0CE
:10478000D3F81C21002A0ED0126890420BD10948A0
:104790001330FCF725FB074910222046A031BDE865
:1047A0001040FFF7AABF10BD800200243853002438
:1047B000F44E0024F94F0024704770B5044690F879
:1047C000840001281DD0012084F884002420C4F82E
:1047D000880020680568026822F0010202602068F3
:1047E000826822F060620A438260204601F054F839
:1047F000206805602020C4F88800002084F8840028
:1048000070BD022070BD70B5044690F88400012888
:104810001DD0012084F884002420C4F8880020687A
:104820000568026822F0010202602068826822F0B6
:1048300060420A438260204601F02EF8206805603D
:104840002020C4F88800002084F8840070BD022075
:1048500070BD7047704770472DE9F0410768044606
:10486000F8693968BA6840F60F0318424FF000053E
:104870004FF002060AD183067ED501F0200302F034
:10488000805C53EA0C0377D0616F7DE1D34BDFF896
:1048900050C3134001EA0C0C53EA0C0C6CD05FEAD5
:1048A000C07C0CD05FEAC15C09D54FF0010CC7F8A1
:1048B00020C0D4F8907047F00107C4F890708707C3
:1048C00009D5D70707D027683E62D4F8906046F034
:1048D0000406C4F8906046070AD5D60708D02768B2
:1048E00004263E62D4F8906046F00206C4F8906058
:1048F00006070CD501F020061E4308D026680823C1
:104900003362D4F8903043F00803C4F890300305C4
:104910000BD54B0109D526684FF400633362D4F8F8
:10492000903043F02003C4F89030D4F89030002B3E
:104930003DD0800609D501F0200002F080510843E7
:1049400003D0616F09B120468847D4F890002168F0
:104950008968490602D410F0280F2AD0204601F0B9
:104960001FF92068806840061ED52068083050E88E
:10497000001F21F0400100E021E040E80012002A81
:10498000F3D1D4F8800078B196490165D4F880005D
:10499000FCF74EFC00280AD0D4F88000016D00E03E
:1049A0002046BDE8F04108472046FFF754FFBDE828
:1049B000F0812046FFF74FFFC4F89050F7E7D4F896
:1049C0006CC02023BCF1010F7ED15FEAC06C7BD5A7
:1049D0005FEAC16C78D51020386220688068400694
:1049E00073D5D4F8802080491068884234D07E493D
:1049F0001831884230D07C49303188422CD07A49F5
:104A00004831884228D078496031884224D076499C
:104A10007831884220D07449903188421CD0724944
:104A2000A831884218D07149884215D06F49183191
:104A3000884211D06D49303188420DD06B494831E0
:104A4000884209D069496031884205D06749783188
:104A5000884201D06549903140684FF48077000466
:104A6000000C40D0B4F85C1081423CD9A4F85E0040
:104A7000D069B8422FD0206850E8001F21F480711F
:104A800040E80012002AF6D12068083050E8001FE4
:104A900021F0010140E80012002AF5D12068083019
:104AA00050E8001F21F0400140E80012002AF5D133
:104AB000C4F88C30E566206850E8001F21F0100132
:104AC00040E80012002A01E049E019E0F3D1D4F8EF
:104AD0008000FCF7FDF92667B4F85C00B4F85E10BE
:104AE000401A81B208E0B4F85C1081427FF466AFEE
:104AF000D069B842FAD126672046FFF725FE56E76F
:104B0000B4F85C00B4F85E10401A81B2B4F85E00EC
:104B10000028F4D00029F2D0206850E8002F22F4B9
:104B2000907240E80027002FF6D12C4FFF432068F9
:104B3000083050E8002F3A4040E8002CBCF1000F4C
:104B4000F5D1C4F88C30E5666567206850E8002F21
:104B500022F0100240E80023002BF6D1CBE7C6027A
:104B600009D5560207D54FF4801038622046BDE8BB
:104B7000F041FFF76FBE06060AD501F0800602F489
:104B80000002164304D0A16F00297FF409AF0EE79D
:104B9000420611D54A060FD52046016851E8002F7C
:104BA00022F0400241E80024002CF6D1C0F8883001
:104BB000856700F097F9FAE6020206D54A0004D5A7
:104BC0002046BDE8F041FFF744BEC00197D500295B
:104BD00095DA2046BDE8F041FFF7EEBD0100001078
:104BE00020010004515A0008100002401004024045
:104BF00010B5040003D0D4F8880010B107E00120FC
:104C000010BD002084F88400204600F027F82420FE
:104C1000C4F888002068016821F001010160A06AE1
:104C200010B1204600F05AFE204601F05FFA01283C
:104C3000E6D02068416821F4904141602068816895
:104C400021F02A0181602068016841F001010160C2
:104C50002046BDE8104000F0A5BE00002DE9F04759
:104C6000B4B0044614212EA8FBF71CFDB8216846F9
:104C7000FBF718FD6D490226206800256C4F4FF4A4
:104C8000806988424FF004084FF0400A6BD1002041
:104C90001D950221CDE900106846FEF73BFA08B1E8
:104CA000FBF7A1FF62480830016841F48011016000
:104CB000006800F480103390386840F004003860D9
:104CC000386800F004003390386840F0080038601D
:104CD000386808272EA900F0080033904FF4805060
:104CE0002E90CDE92F655348CDE93157FDF79CFE55
:104CF000CDF8B8802EA9CDE92F654F48CDE93157C1
:104D0000FDF792FE4E4E4F464C4830604120C6E9BA
:104D10000105C6E9035975613046B561F561356233
:104D20007562FCF735FF08B1FBF75DFFC4F88060E2
:104D3000B463434E41487836183030604220C6E9AB
:104D400003577561B561F56135627562C6E9010A9F
:104D50003046FCF71DFF08B1FBF745FFE667B4637B
:104D600034B0BDE8F08737498842F9D100201E955C
:104D70000121CDE900106846FEF7CCF908B1FBF738
:104D800032FF2B481030016841F0100101600068CB
:104D900000F010003390386840F002003860386846
:104DA0002EA900F0020033904FF440402E90CDE940
:104DB0002F652548CDE93158FDF736FE204E4F4688
:104DC0001E48F036303830602920C6E90105C6E9B2
:104DD000035975613046B561F56135627562FCF75E
:104DE000D7FE08B1FBF7FFFEC4F88060B463174E2E
:104DF0001248183830602A20C6E903577561B5613A
:104E0000F56135627562C6E9010A3046FCF7C0FEFD
:104E100008B1FBF7E8FEE66700220521B463252010
:104E2000FDF7D0FF2520FDF7BFFF99E700500040B8
:104E3000E044025800080258000C025840000240AA
:104E40001403002400100140000402587C040024D4
:104E50007047704770B50446D0F88800202801D00C
:104E6000022070BD39B332B32165A4F85420A4F8F0
:104E700056200021C4F890102120C4F88800E06F6B
:104E8000D8B1154BC363E36F14481864E36F14483B
:104E9000D8641346E06F01652068E56F00F12802D1
:104EA000216D2846FDF746F838B11020C4F890006F
:104EB0002020C4F88800012070BD216840200862CD
:104EC0002068083050E8001F41F0800140E80012DF
:104ED000002AF5D1002070BD555B0008975B0008E3
:104EE000615A000870477047FEE710B50B4601781D
:104EF00041F09001994201D0002010BD5C30114674
:104F000000F002F8012010BD70B504462DED028BB3
:104F10000E689FED228ADFED228A4D68C6F31300EA
:104F20001421F0EE480AB0EE680A00F03FF8300DA8
:104F300040EA053084ED000AC0F313001421F0EEBE
:104F4000480AB0EE680A00F031F884ED010A102139
:104F5000F0EE480AB0EE680AC5F30F2000F026F81C
:104F600084ED020AC5F300602074680E00EE100A9A
:104F7000DFED0C0A9FED0C1AB8EE400A60EE200A35
:104F800080EE810AFBEE040A30EE200A84ED030A6B
:104F90006069401C6061BDEC028B70BD0000204266
:104FA000000020C200005C430000FE4230EEC01A48
:104FB00000EE900A0122F8EE600A8A40521E21EEAD
:104FC000201A00EE902AF8EE601AC1EE210A30EEA7
:104FD000800A704710B503884FF40074A34201D1D2
:104FE000012300E00523A14202D9B1F5027F01D9D6
:104FF000002100E0C9B2994202D31C1D8C4201D8A5
:10500000002010BDC91AC1EBC10100EB01101188CD
:1050100049BAA0F86C10518849BAA0F86E1091886E
:1050200049BAA0F87010917980F87210416F491C4C
:105030004167012010BD0000154808B5016841F026
:105040000101016000680022052100F001000090CC
:105050000B20FDF7B7FE0B20FDF7A6FE0022052171
:105060000C20FDF7AFFE0C20FDF79EFE002205216F
:105070000D20FDF7A7FE0D20FDF796FE002205216D
:105080000E20FDF79FFEBDE808400E20FDF78CBE08
:10509000D844025818480A231649052210B5062498
:1050A000016000218160C160017441748174C0E9B4
:1050B00005230E234462C0E90732C0E90A23C0E990
:1050C0000C210222C0E90E2104220323C0E9103280
:1050D0008364C0E91321C0E91521C0E91713C0E9B1
:1050E0001912FDF7ADFA002803D0BDE81040FBF718
:1050F0007ABD10BD00A40040AC00002418480A236B
:105100001649052210B50624016000218160C160A6
:10511000017441748174C0E905230E234462C0E91F
:105120000732C0E90A230323C0E90C21816304226A
:10513000C0E90F13C0E91123C0E91321C0E915210B
:10514000C0E91713C0E91912FDF77AFA002803D055
:10515000BDE81040FBF747BD10BD000000D4004083
:105160004C010024074A0021074810B501F04AFD10
:105170000649044A243A08600021BDE8104004486A
:1051800001F040BD74830008FD54000800000024B5
:10519000D5570008194808B5016841F004010160BD
:1051A000016801F004010091016841F020010160F3
:1051B000016801F020010091016841F08001016067
:1051C000016801F080010091016841F00201016075
:1051D000016801F002010091016841F001010160E4
:1051E000016801F001010091016841F008010160CE
:1051F000006800F00800009008BD0000E04402587C
:1052000018480C22164910B501604FF4E131416095
:1052100000218160C160C0E904128161C161016245
:1052200041628162FFF7E4FC08B1FBF7DCFC0D484A
:105230000021FFF7E8FA08B1FBF7D5FC0948002187
:10524000FFF7BBFA08B1FBF7CEFC0648FFF70DFAF3
:10525000002803D0BDE81040FBF7C5BC10BD00001E
:1052600000500040EC01002418480C22164910B5EB
:1052700001604FF4E131416000218160C160C0E90B
:1052800004128161C161016241628162FFF7B0FC79
:1052900008B1FBF7A8FC0D480021FFF7B4FA08B1EC
:1052A000FBF7A1FC09480021FFF787FA08B1FBF7DB
:1052B0009AFC0648FFF7D9F9002803D0BDE8104052
:1052C000FBF791BC10BD00000010014080020024DB
:1052D000FEE7FEE72DE9F047DFF8088104460E46B9
:1052E0004FF00009D8F80000C043800709D03D4DB9
:1052F000283D286820F080602860FDF77BFC074689
:1053000007E00120BDE8F087FDF774FCC01B022810
:1053100060D828680001F7D4D8F80010226821F47A
:105320007C3141EA0231C8F80010207A4FF4FE02C5
:10533000A1884002491EA0F5007080B2C1F30801A7
:105340000843A189491E02EA01410843217C120257
:10535000491E02EA016108432249103108602148D0
:10536000001D0168626921F0C001114301600168FC
:10537000A26921F0200111430160016821F01001B0
:105380000160184914310A684FF6F8739A43E369CB
:1053900042EAC3020A60016841F0100101606EB187
:1053A0000168012E0ED041F400110160286840F020
:1053B00080602860FDF71EFC04460DE0016841F4A2
:1053C0000021F2E741F48011EFE7FDF713FC001B29
:1053D000022801D9032095E728680001F5D5484641
:1053E00090E70000284402582DE9F047DFF80881D3
:1053F00004460E464FF00009D8F80000C04380076D
:1054000009D03D4D283D286820F080502860FDF7E8
:10541000F1FB074607E00120BDE8F087FDF7EAFB56
:10542000C01B022860D828688000F7D4D8F8001084
:10543000228821F07C7141EA0251C8F80010207ADC
:105440004FF4FE02A1884002491EA0F5007080B210
:10545000C1F308010843A189491E02EA014108433A
:10546000217C1202491E02EA0161084322491831D7
:1054700008602148001D0168626921F44061114300
:1054800001600168A26921F40071114301600168A3
:1054900021F48071016018491C310A684FF6F873D5
:1054A0009A43E36942EAC3020A60016841F48071E9
:1054B00001606EB10168012E0ED041F08071016073
:1054C000286840F080502860FDF794FB04460DE00A
:1054D000016841F48001F2E741F40001EFE7FDF7D4
:1054E00089FB001B022801D9032095E7286880006A
:1054F000F5D5484690E7000028440258012001F005
:1055000046FBFBE74FF0E02010B5006902F066FDB6
:10551000012803D0BDE8104002F090BA10BD000091
:1055200010B59CB04C216846FBF7BCF8202113A8AD
:10553000FBF7B8F80220FDF777FC1D48002401684E
:1055400041F440410160016801F440411B91016850
:105550008904FCD5012110220804CDE900100220A5
:1055600009900A90CDE90B02CDE90D100F900C20A7
:10557000CDE9100468461294FEF7B0FC08B172B68B
:10558000FEE73F2013900320CDE9140440201A9039
:105590000101CDE91640CDE91801022113A8FEF75B
:1055A00057FA002801D072B6FEE71CB010BD00000B
:1055B000184802582D4810B5016841F47001016087
:1055C0002B4A106800F00F00072804D2106820F062
:1055D0000F00C01D10602749086840F001000860F6
:1055E000244B0020103318600B68234C23400B60C1
:1055F000136803F00F03072B04D9136823F00F037C
:10560000DB1D13601B4A18321060121D1060121D42
:105610001060184B194A28331A601B1D184A1A606B
:105620001B1D184A1A601B1D18601B1D1A601B1DCC
:1056300018601B1D1A601A1D10600A6822F480226F
:105640000A600C49603108600A48D4300168C90416
:105650000BD4016841F4805101600B4A43F2D2013E
:105660001160016821F48051016010BD88ED00E0F7
:1056700000200052004402587FEDF6EA00020202C8
:105680000000FF0180020101004000520148FEF7C6
:105690003ABF0000F40400242DE9F04702684FF0FF
:1056A000804A2A4C2A4D2B4EA0422B4F2B4B09D01F
:1056B000504507D0A84205D0B04203D0B84201D02F
:1056C000984204D122F0700C4A6842EA0C02DFF8DA
:1056D00090C0DFF89080A042DFF88C9015D0504544
:1056E00013D0A84211D0B0420FD0B8420DD098428A
:1056F0000BD0604509D0404507D0484505D01B4D2B
:10570000A84202D01A4DA84203D122F44075CA68BB
:105710002A434D6922F080022A438D68C5620D68D4
:105720008562A04207D0984205D0604503D040452D
:1057300001D0484501D109690163016841F00401C4
:105740000160012141610260BDE8F0870000014075
:105750000004004000080040000C0040000401402C
:1057600000400140004401400048014000E000408A
:1057700000E40040B0F90010A1F58062D23A25D1D2
:10578000B0F9021040F62912D1421FD18188B1F53B
:10579000586F1BD1B0F9061041F2D712D14215D182
:1057A000B0F90810A1F5B0522E3A0FD1B0F90A1095
:1057B00041F68522D14209D1017B012906D1417BE5
:1057C00021B9817B012901D1C07B08B1002070473C
:1057D000012070471FB52C4C002121606160A16041
:1057E000E16040F2D242294802804FF2D762428003
:1057F0004FF4586282804EF62962C28041F22E62D6
:1058000002814EF27B524281012202734173827304
:10581000C1731F48064600F0A9FF28B14FF47A74FF
:10582000204601F0B4F9FBE71A4DD5F8880020288E
:1058300008D0A068401CA0606946304601F004F81A
:1058400050B119E01149304601F06CF80028F3D14D
:105850002068401C2060EFE70C4810226946103099
:10586000FAF77FFE6068401C60606846FFF782FFC1
:1058700010B9E068401CE060304600F05CFF0A2090
:1058800001F085F9D1E700009C000024F4530024C6
:10589000385300248002002430B5416EB9B102684B
:1058A00091689268C1F342610B4C520FA35C1D01D9
:1058B00004F108039A5CB5FBF2F2A0F86A20625C7E
:1058C000595C1201B2FBF1F1A0F8681030BD012162
:1058D000A0F86A10F8E700001484000890F8281077
:1058E000090706D501684A68836B22F400421A430F
:1058F0004A6090F82810C90706D001684A68C36A50
:1059000022F400321A434A6090F82810890706D51D
:1059100001684A68036B22F480321A434A6090F8A7
:105920002810490706D501684A68436B22F4802293
:105930001A434A6090F82810C90606D501688A689B
:10594000C36B22F480521A438A6090F828108906AB
:1059500006D501688A68036C22F400521A438A60F3
:1059600090F82810490611D501684A68436C22F462
:1059700080121A434A60416CB1F5801F06D101685C
:105980004A68836C22F4C0021A434A6090F82810D7
:10599000090606D501684A68C06C22F40022024359
:1059A0004A6070472DE9F84300250446C0F890503E
:1059B000FDF720F98046206800686FF07E474FF0C1
:1059C0002006000713D500224346310420460097E5
:1059D00000F060FE58B1206850E8001F21F08001FF
:1059E00040E80012002AF6D1C4F8886021E020685F
:1059F0000068400722D5002243464FF4800120462C
:105A0000009700F047FEC8B1206850E8001F21F45D
:105A1000907140E80012002AF6D12068083050E862
:105A2000001F21F0010140E80012002AF5D1C4F85E
:105A30008C60032084F88450BDE8F883C4F8886043
:105A4000C4F88C60E5662567002084F88450F3E78D
:105A500010B5806B0021A0F85E10FEF7FCFE10BDB3
:105A600070B5846BD4F88800D4F88C5021688968AC
:105A70004FF00006090606D5212804D1A4F8566087
:105A8000204600F0B7F820688068400606D5222D31
:105A900004D1A4F85E60204600F082F8D4F89000AB
:105AA00040F01000C4F890002046FEF7D4FE70BD10
:105AB000014610B5806B0023C969B1F5807F2DD0F8
:105AC000A0F85E30016851E8002F22F4807241E8AE
:105AD0000024002CF6D10168083151E8002F22F093
